:020000040800F2
:1000000000040020C101000801420008014200086C
:1000100001420008014200080142000801420008B4
:10002000014200080142000801420008812B00083B
:100030000142000801420008014200080142000894
:100040000142000801420008014200080142000884
:100050000142000801420008014200080142000874
:10006000014200080142000801420008D1300008A6
:10007000913000085130000811300008D12F0008DD
:10008000912F0008512F000801420008014200088A
:100090000142000801420008014200080142000834
:1000A000E1200008A12100080142000801420008E7
:1000B0008121000861210008412100087125000804
:1000C00071240008014200080142000801420008B2
:1000D00001420008014200080142000801420008F4
:1000E00001420008014200080142000801420008E4
:1000F000212100080142000801210008112F0008F9
:1001000001420008014200081127000801420008CE
:10011000C121000801420008014200080142000814
:10012000D12E0008912E0008512E0008112E000833
:10013000D12D0008014200080142000801420008D8
:100140000142000801420008014200080142000883
:10015000912D0008512D0008112D000801420008C2
:100160000142000801420008014200080142000863
:100170000142000801420008014200080142000853
:100180000142000801420008014200080142000843
:100190000142000801420008014200080142000833
:1001A0000142000801420008014200080142000823
:1001B0000142000801420008014200080142000813
:1001C00072B6344880F3098840F20000CCF2000097
:1001D0004EF63471CEF200010860BFF34F8FBFF3CB
:1001E0006F8F40F20000C0F2F0004EF68851CEF260
:1001F00000010860BFF34F8FBFF36F8F4FF0000017
:10020000E1EE100A4EF63C71CEF2000108600620C5
:1002100080F31488BFF36F8F04F032F802F0F8FA1D
:100220001D481E491E4A91423CBF41F8040BFAE7A3
:100230001C49184A91423CBF41F8040BFAE71A499D
:100240001A4A1B4B9A423EBF51F8040B42F8040B6A
:10025000F8E700201749184A91423CBF41F8040BC7
:10026000FAE703F0D5FF04F003F8144C144DAC4248
:1002700003DA54F8041B8847F9E704F061F8114CDD
:10028000114DAC4203DA54F8041B8847F9E703F038
:10029000E7BF00000008002055555555000000201C
:1002A0000004002000040020907F000800080020C7
:1002B0008408002088080020B8DD0020C001000864
:1002C000C0010008C0010008C001000800000000D3
:1002D0002DE9F04F2DED108AC1F80CD0C3689D4672
:1002E000BDEC108ABDE8F08F03F08AFD03F0F8FA48
:1002F000002383F311882846A047002003F040FE26
:1003000003F006FB03F08CFD03F04AFB03F078FDDD
:1003100003F0E6FA00DFFEE7000000000000000046
:1003200081F0004102E000BF83F0004330B54FEAA6
:1003300041044FEA430594EA050F08BF90EA020F13
:100340001FBF54EA000C55EA020C7FEA645C7FEAA6
:10035000655C00F0E2804FEA5454D4EB5555B8BFC9
:100360006D420CDD2C4480EA020281EA030382EA3A
:10037000000083EA010180EA020281EA0303362DCC
:1003800088BF30BD11F0004F4FEA01314FF4801C9F
:100390004CEA113102D0404261EB410113F0004FB1
:1003A0004FEA03334CEA133302D0524263EB430368
:1003B00094EA050F00F0A780A4F10104D5F1200E06
:1003C0000DDB02FA0EFC22FA05F2801841F1000161
:1003D00003FA0EF2801843FA05F359410EE0A5F135
:1003E00020050EF1200E012A03FA0EFC28BF4CF066
:1003F000020C43FA05F3C01851EBE37101F000451C
:1004000007D54FF0000EDCF1000C7EEB00006EEB28
:100410000101B1F5801F1BD3B1F5001F0CD34908B2
:100420005FEA30004FEA3C0C04F101044FEA445209
:1004300012F5800F80F09A80BCF1004F08BF5FEA90
:10044000500C50F1000041EB045141EA050130BD70
:100450005FEA4C0C404141EB010111F4801FA4F113
:100460000104E9D191F0000F04BF01460020B1FA68
:1004700081F308BF2033A3F10B03B3F120020CDAA0
:100480000C3208DD02F1140CC2F10C0201FA0CF07E
:1004900021FA02F10CE002F11402D8BFC2F1200CE3
:1004A00001FA02F120FA0CFCDCBF41EA0C01904099
:1004B000E41AA2BF01EB0451294330BD6FEA0404E2
:1004C0001F3C1CDA0C340EDC04F11404C4F12002CD
:1004D00020FA04F001FA02F340EA030021FA04F3DF
:1004E00045EA030130BDC4F10C04C4F1200220FA36
:1004F00002F001FA04F340EA0300294630BD21FA74
:1005000004F0294630BD94F0000F83F4801306BF39
:1005100081F480110134013D4EE77FEA645C18BF2D
:100520007FEA655C29D094EA050F08BF90EA020FC4
:1005300005D054EA000C04BF1946104630BD91EABC
:10054000030F1EBF0021002030BD5FEA545C05D1BF
:100550004000494128BF41F0004130BD14F58004FE
:100560003CBF01F5801130BD01F0004545F0FE4172
:1005700041F470014FF0000030BD7FEA645C1ABFA7
:10058000194610467FEA655C1CBF0B46024650EADE
:10059000013406BF52EA033591EA030F41F400210A
:1005A00030BD00BF90F0000F04BF0021704730B590
:1005B0004FF4806404F132044FF000054FF0000165
:1005C00050E700BF90F0000F04BF0021704730B526
:1005D0004FF4806404F1320410F0004548BF4042FB
:1005E0004FF000013EE700BF42004FEAE2014FEA50
:1005F00031014FEA02701FBF12F07F4393F07F4F2B
:1006000081F06051704792F0000F14BF93F07F4F5C
:10061000704730B54FF4607401F0004521F000419F
:1006200020E700BF50EA010208BF704730B54FF025
:1006300000050AE050EA010208BF704730B511F02A
:10064000004502D5404261EB41014FF4806404F162
:1006500032045FEA915C3FF4DCAE4FF003025FEAE4
:10066000DC0C18BF03325FEADC0C18BF033202EB6C
:10067000DC02C2F1200300FA03FC20FA02F001FAC6
:1006800003FE40EA0E0021FA02F11444C1E600BF65
:1006900070B54FF0FF0C4CF4E06C1CEA11541DBF18
:1006A0001CEA135594EA0C0F95EA0C0F00F0DEF8E3
:1006B0002C4481EA030621EA4C5123EA4C5350EAC8
:1006C000013518BF52EA033541F4801143F4801319
:1006D00038D0A0FB02CE4FF00005E1FB02E506F0AA
:1006E0000042E0FB03E54FF00006E1FB03569CF0FF
:1006F000000F18BF4EF0010EA4F1FF04B6F5007F05
:1007000064F5407404D25FEA4E0E6D4146EB060676
:1007100042EAC62141EA55514FEAC52040EA5E50FF
:100720004FEACE2EB4F1FD0C88BFBCF5E06F1ED8A9
:10073000BEF1004F08BF5FEA500E50F1000041EBE0
:10074000045170BD06F0004646EA010140EA02008D
:1007500081EA0301B4EB5C04C2BFD4EB0C0541EAAF
:10076000045170BD41F480114FF0000E013C00F3C4
:10077000AB8014F1360FDEBF002001F0004170BDE8
:10078000C4F10004203C35DA0C341BDC04F1140401
:10079000C4F1200500FA05F320FA04F001FA05F28D
:1007A00040EA020001F0004221F0004110EBD3705A
:1007B00021FA04F642EB06015EEA430E08BF20EA86
:1007C000D37070BDC4F10C04C4F1200500FA04F329
:1007D00020FA05F001FA04F240EA020001F00041BB
:1007E00010EBD37041F100015EEA430E08BF20EA2E
:1007F000D37070BDC4F1200500FA05F24EEA020E76
:1008000020FA04F301FA05F243EA020321FA04F0A4
:1008100001F0004121FA04F220EA020000EBD3705B
:100820005EEA430E08BF20EAD37070BD94F0000F5B
:100830000FD101F00046400041EB010111F4801F8F
:1008400008BF013CF7D041EA060195F0000F18BF40
:10085000704703F00046520043EB030313F4801F7C
:1008600008BF013DF7D043EA0603704794EA0C0F36
:100870000CEA135518BF95EA0C0F0CD050EA41064C
:1008800018BF52EA4306D1D181EA030101F00041C9
:100890004FF0000070BD50EA410606BF10461946F1
:1008A00052EA430619D094EA0C0F02D150EA0136FD
:1008B00013D195EA0C0F05D152EA03361CBF10463E
:1008C00019460AD181EA030101F0004141F0FE41DD
:1008D00041F470014FF0000070BD41F0FE4141F461
:1008E000780170BD70B54FF0FF0C4CF4E06C1CEA61
:1008F00011541DBF1CEA135594EA0C0F95EA0C0F16
:1009000000F0A7F8A4EB050481EA030E52EA0335D0
:100910004FEA013100F088804FEA03334FF08055F1
:1009200045EA131343EA12634FEA022245EA11151E
:1009300045EA10654FEA00260EF000419D4208BFCF
:10094000964244F1FD0404F5407402D25B084FEA7C
:100950003202B61A65EB03055B084FEA32024FF428
:1009600080104FF4002CB6EB020E75EB030E22BF85
:10097000B61A754640EA0C005B084FEA3202B6EB45
:10098000020E75EB030E22BFB61A754640EA5C00F4
:100990005B084FEA3202B6EB020E75EB030E22BF84
:1009A000B61A754640EA9C005B084FEA3202B6EB85
:1009B000020E75EB030E22BFB61A754640EADC0044
:1009C00055EA060E18D04FEA051545EA16754FEAA6
:1009D00006164FEAC30343EA52734FEAC2025FEAC4
:1009E0001C1CC0D111F4801F0BD141EA00014FF053
:1009F00000004FF0004CB6E711F4801F04BF014324
:100A00000020B4F1FD0C88BFBCF5E06F3FF6AFAE3F
:100A1000B5EB030C04BFB6EB020C5FEA500C50F1CF
:100A2000000041EB045170BD0EF0004E4EEA113152
:100A300014EB5C04C2BFD4EB0C0541EA045170BD59
:100A400041F480114FF0000E013C90E645EA060E9D
:100A50008DE60CEA135594EA0C0F08BF95EA0C0FCB
:100A60003FF43BAF94EA0C0F0AD150EA01347FF413
:100A700034AF95EA0C0F7FF425AF104619462CE7EA
:100A800095EA0C0F06D152EA03353FF4FDAE10464D
:100A9000194622E750EA410618BF52EA43067FF49E
:100AA000C5AE50EA41047FF40DAF52EA43057FF42E
:100AB000EBAE12E7000000000000000000000000A4
:100AC0004FEA4102B2F1E04324BFB3F5001CDCF170
:100AD000FE5C0DD901F0004C4FEAC0024CEA5070A8
:100AE000B2F1004F40EB830008BF20F001007047D7
:100AF00011F0804F21D113F13872BCBF01F00040DA
:100B0000704741F480114FEA5252C2F11802C2F10B
:100B1000200C10FA0CF320FA02F018BF40F001008C
:100B20004FEAC1234FEAD32303FA0CFC40EA0C003E
:100B300023FA02F34FEA4303CCE77FEA625307D17B
:100B400050EA01331EBF4FF0FE4040F440007047B2
:100B500001F0004040F0FE4040F40000704700BF4C
:100B6000844641EA000313F003036DD1403A41D3B8
:100B700051F8043B40F8043B51F8043B40F8043B77
:100B800051F8043B40F8043B51F8043B40F8043B67
:100B900051F8043B40F8043B51F8043B40F8043B57
:100BA00051F8043B40F8043B51F8043B40F8043B47
:100BB00051F8043B40F8043B51F8043B40F8043B37
:100BC00051F8043B40F8043B51F8043B40F8043B27
:100BD00051F8043B40F8043B51F8043B40F8043B17
:100BE00051F8043B40F8043B51F8043B40F8043B07
:100BF000403ABDD2303211D351F8043B40F8043BA7
:100C000051F8043B40F8043B51F8043B40F8043BE6
:100C100051F8043B40F8043B103AEDD20C3205D3B6
:100C200051F8043B40F8043B043AF9D2043208D0AE
:100C3000D2071CBF11F8013B00F8013B01D30B8820
:100C400003806046704700BF082A13D38B078DD0FE
:100C500010F003038AD0C3F10403D21ADB071CBFD0
:100C600011F8013B00F8013B80D331F8023B20F83A
:100C7000023B7BE7043AD9D3013A11F8013B00F873
:100C8000013BF9D20B7803704B7843708B788370FB
:100C900060467047000000000000000000000000F7
:100CA000A2EB0300704700BF02780B78012A28BF2F
:100CB0009A42F5D16DE9044540EA0104CDE90267A5
:100CC0006FF0000C4FEA447212B380EA010414F092
:100CD000070F6AD100F0070420F0070004F00305B5
:100CE00021F007014FEAC505F0E8042314F0040FD2
:100CF000F1E804670CFA05F462EA040266EA040605
:100D00000AD063EA0403624667EA0407664603E022
:100D1000F0E80423F1E8046782FA4CF582EA06045D
:100D2000A4FA8CF46CBB83FA4CF583EA0705A5FAA8
:100D30008CF595B950E9022351E9026782FA4CF526
:100D400082EA0604A4FA8CF483FA4CF583EA0705D8
:100D5000A5FA8CF52543DBD09CB92DBAB5FA85F4FC
:100D600024F0070427FA04F1DDE9026723FA04F30B
:100D700003F0FF0001F0FF01FDE80445A0EB0100D6
:100D8000704724BAB4FA84F424F0070426FA04F174
:100D9000DDE9026722FA04F202F0FF0001F0FF0130
:100DA000FDE80445A0EB0100704714F0030F3CD1AF
:100DB00010F0030428D150F8082B51F8083B82FAB0
:100DC0004CF582EA0305A5FA8CF55DB950F8042CC0
:100DD00051F8043C82FA4CF582EA0305A5FA8CF539
:100DE000002DE8D02DBAB5FA85F424F0070423FAD3
:100DF00004F122FA04F202F0FF0001F0FF01FDE825
:100E00000445A0EB010070474FEAC40420F0030042
:100E100050F8082B21F0030151F8083B0CFA04F4B8
:100E200062EA040263EA0403C9E710F003041AD07B
:100E3000A1EB040120F00300E40750F8042B06D0D6
:100E40000FD28B785FFAA2F4E41A06D12BB1CB78DB
:100E50005FFAB2F4E41A00D11BB920465DF8104BDA
:100E6000704701F1040150F8042BCC0721F0030175
:100E700051F8043B48D824D222F07F4482FA4CF542
:100E800094EA1325A5FA8CF50AD165B951F8043B0B
:100E900084EA0204B4EB036F0ED150F8042BEBE7A5
:100EA0004FEA132355E035F07F454DD10878FDE832
:100EB0000445C0F1000070474FEA126203F0FF03DF
:100EC00047E002EA1C4482FA4CF594EA1345A5FA7D
:100ED0008CF50AD165B951F8043B84EA0204B4EBFD
:100EE000034F0CD150F8042BEBE74FEA134330E0EB
:100EF00015EA1C4528D10B884FEA124229E04FEA37
:100F0000124203EA1C4324E002F0FF0482FA4CF58B
:100F100094EA1365A5FA8CF50AD165B951F8043B3A
:100F200084EA0204B4EB032F09D150F8042BEBE759
:100F30004FEA13630DE015F0FF0F05D10B684FEA80
:100F4000122223F07F4304E04FF00000FDE8044547
:100F5000704712BA1BBA82FA4CF482EA0304A4FA6C
:100F60008CF5B5FA85F402FA04F203FA04F34FEAB9
:100F70001260FDE80445A0EB13607047000000001C
:100F80004FF0FF3C06E000BF4FF0010C02E000BF55
:100F90004FF0010C4DF804CD4FEA410C7FEA6C5C38
:100FA0004FEA430C18BF7FEA6C5C1BD001B050EADB
:100FB000410C0CBF52EA430C91EA030F02BF90EAC6
:100FC000020F0020704710F1000F91EA030F58BF85
:100FD000994208BF90422CBFD8176FEAE37040F0E7
:100FE000010070474FEA410C7FEA6C5C02D150EA85
:100FF000013C07D14FEA430C7FEA6C5CD6D152EA40
:10100000033CD3D05DF8040B704700BF8446104604
:1010100062468C461946634600E000BF01B5FFF703
:10102000B7FF002848BF10F1000F01BD4DF808EDD3
:10103000FFF7F4FF0CBF012000205DF808FB00BFA4
:101040004DF808EDFFF7EAFF34BF012000205DF8FE
:1010500008FB00BF4DF808EDFFF7E0FF94BF01204B
:1010600000205DF808FB00BF4DF808EDFFF7CEFF4C
:1010700094BF012000205DF808FB00BF4DF808ED8B
:10108000FFF7C4FF34BF012000205DF808FB00BF5C
:101090000369C1689942024604D04168C85C0133C3
:1010A000136170476FF00100704700BF000000003F
:1010B000C36882689A4206D04268D154C36801333B
:1010C000C360002070476FF001007047000000000F
:1010D00080B52C4B2C4C9B692C4D2D4A9A614FF4BA
:1010E00080514FF480424FF40053218382B0284650
:1010F00022832849638302F05BF8EA68264B27487D
:10110000274E0025156055639563D56315645562B8
:10111000916941F4824141F042019161D16941F408
:10112000824141F0410143F21337D1611762916866
:1011300041F064019160116841F0010111603B22AE
:101140004FF4D871009502F08BFF164B164A1A60C7
:1011500006E03369DB070BD44FF4FA6002F050FF6E
:10116000636983F400436361002DF2D00125F3E746
:1011700000950E480E4B41F27011422202F070FFB2
:101180000125E9E720D20020000C024030DA0020DF
:1011900070660008C0660008D14C0008880800206E
:1011A00000000240B4DD0020E0DB0020580A0020EF
:1011B000411D0008000000000000000000000000C9
:1011C00038B5054608462B69EC686968E41A94420C
:1011D00028BF144619442246FFF7C2FC2B6923445A
:1011E0002B61204638BD00BF000000000000000059
:1011F00038B5C3688468E41A05469442406828BF3D
:10120000144618442246FFF7ABFCEB682344EB601E
:10121000204638BD00000000000000000000000073
:101220002DE9F04F87B015460DF10D0303AA9B1A67
:1012300081468A4601934FF000088B469BF80010C8
:101240000BF1010379B1252911D0D9F800209B4673
:101250009268484690479BF8001008F101080BF18E
:1012600001030029EFD1404607B0BDE8F08F9BF89D
:1012700001202D2A03BF9BF802200BF102034FF03F
:10128000010A4FF0000A302A03BF5A780133302791
:101290002027591C002606E02B7804359BF80020F7
:1012A00003EB40060131A2F13003DBB2092B8B4680
:1012B00006EB8600F2D92A2AEED02E2A4FF0000142
:1012C00043D002F0DF034C2B4ED0A2F1440034286F
:1012D00000F2F780DFE810F0EA00F500F500F50015
:1012E000F500EA00F500F500F500F500F500E8006E
:1012F000F500F500F500F500F500DD00F500F5005E
:10130000F200F500F500F500F500F500F500F50038
:10131000F500F500F500A100EA00F500F500F50084
:10132000F500EA00F500F500F500F500F500E8002D
:10133000F500F500F5007100F500DD00F500F500A1
:10134000F2002B78043503EB40011BF8012BA2F1CE
:101350003003DBB2092B01EB8100F4D92A2AF0D04B
:1013600002F0DF034C2BB0D19BF80030002B00F0D3
:10137000A880A3F144020BF1010B342A00F2A080F3
:10138000DFE802F0949E9E9E9E949E9E9E9E9E925C
:101390009E9E9E9E9E879E9E9C9E9E9E9E9E9E9E86
:1013A0009E9E9E4B949E9E9E9E949E9E9E9E9E92D0
:1013B0009E9E9E1B9E879E9E9C002C685A4B002CD6
:1013C00008BF1C4604352378002900F09480002BC8
:1013D00000F096800139204601E0013903D410F86D
:1013E000013F002BF9D1001B361A431E202726EAA5
:1013F000E676BAF1000F1FD0002B009334DA002EEE
:101400003FF41CAF3446D9F8003048469B68394653
:101410009847013CF7D1B04410E72B688DF80C30A9
:10142000019B043518462027013B03AC361A26EAF7
:10143000E676BAF1000FDFD10093C6F1000ABAF1E7
:10144000000F45D021782D2947D05646D9F80030D5
:1014500048469B68394698470136F7D1009B002BD8
:10146000CAEB0808FFF6EAAEDDF800A0D9F80030B4
:1014700014F8011B9B680AF1FF3A48469847BAF1F5
:10148000FF3FF3D1009B08F10108002BA8BF98444F
:10149000B5E70A22296803A8043503F019FD03AB58
:1014A000C01A431E03ACC1E70822F3E729680029EC
:1014B00005F104052EDB03A80A22EEE71022E9E776
:1014C0001A46019B8DF80C20184603AC013BADE792
:1014D000009B002B5646C7DAB0E6302FB5D1D9F8BD
:1014E000003048469B689847009B013B013408F157
:1014F00001080093A9E747F6FE71002B7FF46BAF5C
:1015000026EAE676BAF1000F0BD14FF0FF330093D5
:10151000202792E72D2349428DF80C300DF10D0064
:10152000CAE720276BE700BF7866000800000000CC
:101530000EB400B582B003AA52F8041B0192FFF763
:101540006FFE02B05DF804EB03B0704700000000CE
:101550002DE98048A04CA14AA36987B09A614FF455
:10156000FA6002F04DFD9E4B1B785A1E012A05D9E8
:10157000052B03D072B69B4BE362FEE7202383F377
:10158000118802F0C5F902F04BFC954B94491F7885
:101590009548586040F2564240F21643012F8A6245
:1015A0004B624D6B0E463DD029468D4B4268DE6A3C
:1015B0001B6BD6F80080DFF854E2D3F800A0077A5E
:1015C00005F1100602F1FF3CC8F808604FF400492D
:1015D00000234FF41068F445CAF80860C5F800907D
:1015E0002B60C5F8048019D8D1F804C0DFF820E2D8
:1015F0004FF6C0760CEA06064E604E68724546F01D
:101600002A064E6040F24E83784EB24269DCBB1E21
:10161000012B4CD972B6764BE362FEE772B6744B7F
:10162000E362FEE7DFF8EC81C86AD8F82030714A3F
:1016300043F400134FF0000EC8F820300521C8F81D
:1016400020E0334601F0ACFA002840F00A83306B0A
:10165000694A0521334601F0A3FA002840F0FD82D3
:10166000726AB36AD8F840C0DFF8ACE1716B706899
:1016700042F0007243F000734FF050094FF0004AFF
:101680004CF4001C42F4403243F44033C8F840C0EC
:1016900072628EF81F93B362CEF880A1CEF800A0DC
:1016A0008EF82093CEF88471CEF804707DE7022F77
:1016B00000F0DF82192303FB02F2504EB6FBF2F377
:1016C00002FB03F2B61A002E40F0CF829AB24FF41A
:1016D000804313436FEA43436FEA53430D229BB2A7
:1016E0000A62CB6102780B68022A9BB200F0CD82BD
:1016F000032A00F0D082012A02D123F00A039BB210
:101700000B602B68364A43F001032B6002231370F1
:1017100002F076FB02F0E4F822682F4BA24205D0DB
:101720009969926889689142C0F0B882002585F372
:101730001188DFF8E8803248C0236B2488F8013034
:1017400088F8004002F07CFB2A462B4668200221E4
:1017500003F016FE0546D0B103F09AFD294B019324
:1017600019461F4B1B7A0B7013B14B8801334B800A
:10177000019A137943F002031371234C636983F4D4
:10178000005363614FF4FA6002F03AFCF6E74FF45D
:101790007A7002F035FC0326682002212A462B4687
:1017A00088F8004088F8016003F0EAFD044600284C
:1017B00036D003F06DFD134B01931946084B1B7A8D
:1017C0000B7013B14B8801334B80019A137943F0AE
:1017D00004031371D1E700BF20D200208066000807
:1017E000E8DB0020E0660008D0660008801A0600EA
:1017F000A066000891260008D11F000880DE800244
:10180000F4DB0020380A0020000C0240FF083D00F5
:10181000A08601000038024000E100E074D0002002
:1018200019270B260125682005212246234688F822
:10183000007088F8024088F8034088F8016088F852
:10184000045003F09DFD074603F022FD002F40F0F9
:10185000F581AC4DAC4CAD4B019339468122284605
:1018600004F09EFC20463946182204F099FC2146DB
:10187000A748DFEDA88A9FEDA88A182203F0D8FBBD
:10188000A64B206819785A789B78D4F8049066693A
:10189000D4F80CA0D4F810C0D4F808E0286302F003
:1018A0000F0203F00F039E4885F87E3001F00F0110
:1018B000682485F87F4085F87C1085F87D20984B5A
:1018C0006E64466A5A6AC5F834901936B242C5F851
:1018D0003CA0C5F840C0C5F838E0B946C0F0F48077
:1018E0005E6A904C9048874F3B2388F8003002F0A6
:1018F000A7FA224695F87F0001210E2303F040FD50
:10190000824603F0C5FCBAF1000F40F0198194F84B
:1019100000B0607894F802A06279E17894F804C08D
:1019200094F808E0637A40EA0B2041EA0A2142EA8F
:101930000C2CADF80C00227B607BADF80E1097F8F4
:101940007C1094F80AA094F80BB0ADF810C043EAEC
:101950000E2340EA0222ADF81230ADF8162001F055
:10196000070306AA02EB43024BEA0A2AADF814A0C9
:1019700011F0080F134632F90C2C00F0B68033F941
:10198000063C9FED6A6A9FED6A7A06EE902A07EEA2
:10199000903A95F87D205B49F8EEE66AF8EEE77A32
:1019A00002F0070312F0080F06AA02EB430266EEEC
:1019B000866A67EE877A1346C7ED006AC7ED037A39
:1019C00032F90C2C00F0848033F9063C9FED576A05
:1019D0009FED577A06EE902A07EE903A95F87E2012
:1019E000F8EEE66AF8EEE77A02F0070312F0080F65
:1019F00006AA02EB430266EE866A67EE877AC1EDBD
:101A0000016AC1ED047A13463E4932F90C2C40F0CC
:101A1000058133F9063C9FED456A9FED457AD24337
:101A2000DB4306EE902A07EE903AF8EEE66AF8EE0F
:101A3000E77A66EE866A67EE877A324B9FED3D4A1B
:101A4000DFED3D4AC1ED026AC1ED057A002293ED5A
:101A5000006A93ED037A93ED155AD3ED095AD3ED4D
:101A60000C6AD3ED0F7A76EE666A77EE677A25EE2A
:101A7000286A25EE847AA6EE886A04320C2AA7EE3C
:101A8000A47A03F1040343ED016A83ED146AC3ED04
:101A9000027A83ED087ADAD1D5ED0B6ADFED277A89
:101AA00095ED1C7AC6EEA77A77EE677AC5ED1C7ABB
:101AB00009F00703072B51D0194B5A6A1936B24265
:101AC00009F10109BFF40CAF304602F069FA08E7EA
:101AD00033F9063C9FED156A9FED157AD243DB433F
:101AE00006EE902A07EE903A78E733F9063C9FED30
:101AF0000F6A9FED0F7AD243DB4306EE902A07EE82
:101B0000903A46E7BCBC0020C81B0020380A0020E1
:101B1000000004089A99593F9A99193E000800203C
:101B2000000C0040400A0020F4DB0020C3F51C3A02
:101B30002D23FA3B3333333F9A99993E0000C84333
:101B40006F4B019A1B7A13706E4A002BB0D05388EA
:101B50000133538009F00703072BADD195ED167AB9
:101B6000D5ED157AC7EE277A17EE900AFEF73CFD01
:101B700041EC100B04F0ACFB002251EC100B624B5B
:101B8000FEF786FD5CA3D3E90023FEF7ABFEFEF76C
:101B900097FF95ED1D9AE86607EE900A77EEC99AD1
:101BA00019EE900AFEF720FD41EC100B04F0F0FA5C
:101BB00007EE900AF8EEE77AB6EE007AF4EEC77A0E
:101BC000F1EE10FA35D4B0EE007AF4EEC77A9FED5C
:101BD0004F6A9FED4F7ADFED4F7ADFED4F6AF1EEFE
:101BE00010FA58BFB0EE677A58BFB0EE666AD5ED0E
:101BF0001C7ADFED4A6ADFED4A5A67EE277A29EE52
:101C0000267AE9EE867A00232B6739EE279AF0EEE2
:101C1000477AE9EE257AC5ED1D7A4DE733F9063CA2
:101C20009FED406A9FED407A06EE902A07EE903ACB
:101C3000FBE69FED3E7A9FED396AD8E7304B314A9B
:101C40001B7A0192137013B153882B445380019A6D
:101C5000137943F0080313718FE572B6344BE362D6
:101C6000FEE772B6324BE362FEE772B6314BE362D7
:101C7000FEE702EB4202304BB3FBF2F602FB06F248
:101C80009B1A002B33D1B2B223E523F008039BB299
:101C900043F0020334E543F00A0331E572B6274A04
:101CA000DA62FEE7012F03D072B6224BE362FEE751
:101CB0005200214EB6FBF2F302FB03F2B61A96B9BC
:101CC0009AB2032A0BD92B23B2F5805F0B62C2F3C1
:101CD0000B03FFF406AD72B6164BE362FEE772B675
:101CE000144BE362FEE772B6124BE362FEE772B694
:101CF000104BE362FEE700BF00000060FB210940DB
:101D0000E8DB0020380A002000806640CDCC4C3E45
:101D1000CDCC4C3F3333733FCDCC4C3D9A99193FDA
:101D2000CDCCCC3EC3F51C3A2D23FA3BCCCCCC3EDB
:101D300060660008A066000880DE8002F06D000882
:101D400080B5604C604AA36960489A6182B0694678
:101D5000082203F06DF9DDED007ADFED5D6ADFF852
:101D6000A0A15C4D5C4EDFF89C919FED5C9A9FEDCD
:101D70005C8AB8EE677ADDED017AF8EE677A87EE75
:101D8000267AA0462F46C7EEA67A8AED007ACAEDDB
:101D9000017AD6ED1D8AF2EE0E7AF4EEE78AF1EEC4
:101DA00010FA40DCFAEE0E7AF4EEE78AF1EE10FA61
:101DB00039D4DAED017A96ED0B6AD9F80030DAED14
:101DC000006A93ED027A67EE867AB5EEC07AC7EEC6
:101DD000897AF1EE10FAD6EEA87ACCBF37EE487ABF
:101DE00037EE087A77EE277AB6EE007AF4EEC77A05
:101DF000F1EE10FA46DCBEEE007AF4EEC77AF1EEB0
:101E000010FA3CD4F5EEC07AF1EE10FAD4BF77EEBA
:101E1000C87A77EE887AC3ED027AC3ED0E7AC820CD
:101E200002F0EEF8B5E7202383F3118801F070FD8E
:101E300001F0F6FF2B785A1E012A03D972B6294BFE
:101E4000E362FEE7022B20D000220123EA602B7020
:101E500001F0D6FF01F044FD23681A4AA34205D0E1
:101E6000D8F818109B688968994227D3002383F318
:101E700011881D4A536983F48053536199E7DFED5C
:101E80001B7AC8E7DFED1A7AC5E7B969194A1A481B
:101E900000234FF4805C4FF4804E0B60CB600B61ED
:101EA0004B64C2F884C082F82C33C2F884E082F814
:101EB0002E33436C23F002034364C5E772B60F4B25
:101EC000D362FEE720D200208866000800000208E6
:101ED00000401C4614DA0020BCBC00200000C842B0
:101EE000AE47E13D50660008000C0240F6281CBFDA
:101EF000F6281C3F00E100E000380240E06B0008DB
:101F0000500A002088AF0020000000000000000000
:101F1000024AD36843F08003D3607047004C00400E
:101F2000836970B51A69DC681440E2B2D243A6072F
:101F300005461A6103D543681B6903B198476007DA
:101F400004D56B689B690BB128469847210704D5D7
:101F50006B681B6A0BB128469847E20604D56B688C
:101F60009B6A0BB128469847E30706D56B689B68C8
:101F70001BB12846BDE87040184770BD0000000046
:101F80000178C368002204291A6107D10221017077
:101F90001A601A61DA6822F0FF02DA6043685B684F
:101FA000184700BF00000000000000000000000013
:101FB00011F00C0F00D1704772B6024B024ADA6280
:101FC000FEE700BF20D200201067000800000000DC
:101FD00011F00C0F10B4446B14D1026B1368196824
:101FE00021F01F0119601968C907FCD4117A5268E1
:101FF0003D238B401360636843F4007363605DF8B6
:10200000044B704772B6024B024ADA62FEE700BF29
:1020100020D200201067000800000000000000002F
:10202000002903DD19491A4AFFF782BA10B5194988
:10203000194A82B00446FFF77BFA20461749184A2E
:10204000FFF776FA20461749174AFFF771FA20463C
:102050001649174AFFF76CFA20461649164AFFF749
:1020600067FA20461549164AFFF762FA20461549D5
:10207000154AFFF75DFA154B009320461449154A9F
:10208000154BFFF755FA02B010BD00BF1C670008E2
:102090002867000830670008446700084C6700089C
:1020A00060670008A8670008BC670008C8670008E8
:1020B000DC670008E8670008FC670008146800088F
:1020C000286800085468000868680008B8680008B4
:1020D00090680008A8680008B468000800000000C4
:1020E00008B501F0BDFB01F00BFE0448FFF718FF37
:1020F00001F0EEFDBDE8084000F0D2BD582D0020F3
:1021000008B501F0ADFB01F0FBFD0448FFF708FF47
:1021100001F0DEFDBDE8084000F0C2BD14DA002089
:1021200008B501F09DFB01F0EBFD0448FFF7F8FE58
:1021300001F0CEFDBDE8084000F0B2BD14DA002089
:1021400008B501F08DFB01F0DBFD0448FFF718FF37
:1021500001F0BEFDBDE8084000F0A2BDD0DB0020CC
:1021600008B501F07DFB01F0CBFD0448FFF708FF47
:1021700001F0AEFDBDE8084000F092BD44D1002062
:1021800008B501F06DFB01F0BBFD0448FFF7F8FE58
:1021900001F09EFDBDE8084000F082BD30DA00206D
:1021A00008B501F05DFB01F0ABFD0448FFF7E8FE68
:1021B00001F08EFDBDE8084000F072BDA8BC002013
:1021C0002DE9F8437C4D01F04BFB01F099FD6E6F5A
:1021D000D6F80C903368DF059CB200F1978020237D
:1021E00083F3118801F08CFB01F0BAFD14F02F0F7E
:1021F00047D0DFF8C48107E0A00677681DD43468B3
:10220000A4B214F02F0F3CD02007F5D014F0080F23
:102210000CBF00218021E20748BF41F02001A30745
:1022200048BF41F04001670748BF41F480716348EF
:1022300000F06EFFA0067768E1D501F001FC01F027
:10224000FFFB6B698BB301F0FBFB01F0F9FB2B6A21
:102250006A6A93422ED06A69591C01326A61296206
:102260001F702A6AEB699A4203D3D8F81830C8F86D
:102270002030534802F0ECFD3468A4B214F02F0F64
:10228000C2D101F055FD01F023FB002383F3118837
:1022900019F0800F01D022064FD4630613D401F049
:1022A00017FDBDE8F84300F0FBBC4448042100F0F2
:1022B0002FFFC8E7D8F81420002ACCD03F4880214F
:1022C00000F026FF9BE7202383F3118801F018FB21
:1022D00001F046FD01F0B4FB6A6CAB6C36489A42E3
:1022E00053D04FF6BF7309EA03036FF04002F36067
:1022F000326001F01DFD01F0EBFA002383F3118839
:1023000001F0E6FCBDE8F84300F0CABC202383F3EB
:10231000118801F0F5FA01F023FD281D4FF400713A
:1023200000F0F6FE6FF48073336001F001FD01F000
:10233000CFFA002383F3118851E7202383F3118818
:1023400001F0DEFA01F00CFD01F07AFB01F078FB00
:10235000AB6C6A6C18489A421FD0AA6B1649581C7D
:102360000132AA63A8641F782B6C984201D3CB6B0F
:102370008B64144802F06CFD776001F0D9FC01F029
:10238000A7FA002383F3118887E7836B002BA8D07B
:102390000430102100F0BCFEA3E7826B002ADCD0E1
:1023A0000430082100F0B4FE4FF63F7309EA03033E
:1023B00043F04003F360E0E79C2D0020A02D0020B7
:1023C000A82D0020CC2D00200000000000000000FF
:1023D00011F00C0F38B53AD1416A0B681A6822F037
:1023E0001F021A601A68D407FCD40D7A026A4C687E
:1023F00013683D21A9402160196821F01F0119606F
:102400001968C907FCD4436851680446107A1A68F1
:102410003D2383400B60FAB104232370204690478C
:102420002378042B18D0202383F3118801F068FA55
:1024300001F096FC04F10800002101F009FC01F014
:1024400077FC01F045FA002383F3118838BD72B69A
:10245000034B044ADA62FEE702232370E3E700BF7E
:1024600020D20020106700080000000000000000DB
:10247000F8B53D4C636B5E6901F0F2F9B5B201F05D
:102480003FFC276B616B3A6805F45F43DB434B61AC
:10249000136823F01F0313601368D807FCD497F860
:1024A00008E0E06A7F6802683D2303FA0EF33B60B0
:1024B000136823F01F031360136813F00103FBD1AB
:1024C000077A40683D22BA400260EA0548BF01230E
:1024D000AF05A36044BF43F00203A36068050AD5BB
:1024E0004A6822F400724A600A6843F0040342F426
:1024F00000720A60A3602A0544BF43F00803A3608A
:102500006F0444BF43F02003A360E8041DD543F0EB
:1025100010033104A36022D4202383F3118801F037
:10252000EFF901F01DFC11486FF0010101F090FB83
:1025300001F0FEFB01F0CCF9002383F3118801F0D8
:10254000C7FBBDE8F84000F0ABBB320407D4002B5A
:10255000E2D101F0BDFBBDE8F84000F0A1BB43F0C3
:102560004003A360D8E700BFE8DB002004DC0020C4
:10257000F8B5424D01F074F901F0C2FB6C6B404AB2
:10258000A369666946EA034323F07F43934250D030
:1025900020D8073A934240D00132934210D162686A
:1025A000EB6A22F400721B6862601A6842F0010252
:1025B0001A60626842F4805262605B68012B58D9ED
:1025C00016F00A0F18BFA36901F082FBBDE8F840BE
:1025D00000F066BB2B4A934214D002329342EFD1F3
:1025E000EB6A1B685F684FB32A8C236842F00102D4
:1025F00043F4A0632A84236001F06AFBBDE8F8403D
:1026000000F04EBB63682A6B23F4007312686360AA
:10261000136843F001031360D2E72B8C1A0A0BD026
:1026200003F0010343F0F00302F0060213432361B9
:10263000C6E72B8CC3F347032361C1E7636823F428
:1026400000736360236843F400732360202383F3E3
:10265000118801F055F901F083FB05F11C003946A2
:1026600001F0F6FA01F064FB01F032F987F311880A
:10267000A6E7236823F480632360A1E7E8DB00205A
:1026800008000300820007000000000000000000B6
:1026900011F00C0F436B2FD170B5C56A29680A6819
:1026A00022F01F020A600A6812F00104FBD10646FC
:1026B000287A69683D2282400A605A6822F4805272
:1026C0005A601A6822F480621A601A6842F4007232
:1026D0001A60202383F3118801F012F901F040FB06
:1026E00006F11C00214601F0B3FA01F021FB01F0D4
:1026F000EFF884F3118870BD72B6024B024ADA62B9
:10270000FEE700BF20D20020106700080000000094
:102710002DE9F047384E01F0A3F801F0F1FA3369E2
:102720009B0705D401F0D4FABDE8F04700F0B8BA31
:10273000002737614FF0200989F311882F4D01F0F0
:10274000DFF801F00DFB01F07BF901F079F9EC699C
:10275000726AA96AA368501A984238BF05F11C062C
:1027600025D3B846374605F11C062268D4F80CA0DC
:102770000B44B242AB625660EA61C4F80C8008BFF9
:10278000C7F80C8001F0D4FA01F0A2F888F31188A0
:102790002069D04789F3118801F0B2F801F0E0FA1E
:1027A000EC697A6AA96AA368501A8342DDD9B442F7
:1027B00014D00B449B1A012B98BF02239C1820466F
:1027C00000F056FA0C4BA96A5A6A0C48631A521A5E
:1027D0009A4203D972B60A4BC362FEE701F0A8FA27
:1027E00001F076F8002383F3118801F071FABDE857
:1027F000F04700F055BA00BF000C004020D2002086
:102800000067000800000000000000000000000059
:102810002C492D4B4FF080504FF4404208641A6011
:102820000B6843F001030B600A68264B9007FBD549
:102830009A6822F003029A609A689A6019468B6837
:10284000204A13F00C03FAD1116801F0F90111606C
:102850009360136843F4803313601168194B890344
:10286000FBD55A6F42F001025A675A6F154990071B
:10287000FBD5164B4B600B68134A43F080730B601B
:1028800053685904FCD50F490A680E4B9201FBD5D9
:102890000F4A1049996040F2057111609A6842F040
:1028A00002029A601A469368064903F00C03082B4B
:1028B000F9D14B6C43F480434B644B6E43F480433B
:1028C0004B667047003802400070004008544007D3
:1028D000003C024000948838000000000000000026
:1028E0002DE9F043764B04689B69764A4768764940
:1028F0009A6199B02046FEF71BFE08AE2046734948
:10290000FEF716FE3546236820465B680DF1070189
:102910000122984780B39DF80710042928D0082980
:1029200012D07F2910D00D290DF15F0339D01F2956
:10293000E9D99D42E7D2236820469B6898479DF8D5
:1029400007302B700135DEE7B5424FF00801204615
:10295000D9D023689B689847236820469B6820212C
:102960009847236820469B680821013D9847CAE79D
:1029700020465749FEF7DCFD20465649FEF7D8FDB4
:10298000202383F3118800F0C3FF01F049FA0021EE
:10299000514800F0BDFB002001F072F919B0BDE80C
:1029A000F0834E492046FEF7C3FD002302A92B7099
:1029B00030461D4602F06CFA02A9814600200DF156
:1029C0000C0802F065FA50B1042D1DD048F8040B34
:1029D00002A90020013502F05BFA0028F4D118ABFF
:1029E00003EB850343F8540CB9F1000F86D0484639
:1029F0003B49FEF759F970B9002DC1D0204639493D
:102A0000374AFEF795FD79E720463749FEF790FDF6
:102A10000023079372E748463449FEF745F930B979
:102A20002046BDB12F49314AFEF782FD66E7DFF847
:102A3000C8802F4802E058F8080F48B34946FEF70F
:102A400033F90028F7D1D8F80430294603AA2046E4
:102A5000984753E72749284DFEF76AFD244A27493E
:102A60002046FEF765FD55F8082F002AF7D157B12B
:102A70003A6842B13D4620462049FEF759FD55F8D7
:102A8000082F002AF7D120461449FEF751FD35E7FB
:102A900067B1386850B1B84602E058F8080F28B15D
:102AA0004946FEF701F90028F7D1CCE74A4620460F
:102AB0001349FEF73DFD20461249FEF739FD1DE79B
:102AC00020D20020C4680008CC680008E468000830
:102AD000EC68000840690008E01B002064680008FA
:102AE000086900081C670008F06800081069000801
:102AF0002867000818690008606900083069000844
:102B00003469000838690008000000000000000077
:102B1000002903DD1449154AFEF70ABD38B50446FD
:102B2000202383F3118800F0F3FE01F079F9104BB4
:102B30005D6A01F065F900F0D3FE0E4B1968994209
:102B400004D098698A688168914209D3002383F38D
:102B50001188094920462A46BDE83840FEF7E8BCFE
:102B600072B6064ADA62FEE71C6700084C69000884
:102B7000000C004020D2002054690008F0660008D4
:102B8000064A536823F001035360EFF30983683367
:102B900083F30988002383F31188704730EF00E046
:102BA000002854D02DE9F0412B4F457A3C689846D7
:102BB000012303FA05FE1EEA040F3DD1274E4EEA1B
:102BC000040406EBC50C14F0FF0F3C6046F83520FA
:102BD000CCF8048004D0224D2B6B43F400132B63FC
:102BE00014F47F4F2BD10468236823F01F03236064
:102BF000236813F00103FBD1077A46683D25BD40E9
:102C00002127356023606761FAB1807A420992001A
:102C100000F1604502F1604202F56142090105F5EB
:102C2000614500F01F00012404FA00F0C9B285F8E4
:102C30000013C2F8800110601846BDE8F081084C0E
:102C4000236B43F480032363CDE71346F4E772B6A6
:102C5000044B054ADA62FEE7B0CE002028BC002013
:102C60000038024020D20020D06900080000000097
:102C7000054BDA68920701D55863704772B6034B6B
:102C8000034ADA62FEE700BF000C004020D20020B9
:102C90008069000800000000000000000000000043
:102CA000202383F31188124B5B6813F4006302D175
:102CB00083F311887047F1EE103AEFF309830D4A60
:102CC0004FF08071D26843F8082C43F84C1CA3F1F4
:102CD000680282F30988084A1168926989689268D3
:102CE00091428CBF054A064A43F8502C704700BFFA
:102CF00000ED00E030EF00E020D2002001030008EA
:102D000014030008000000000000000000000000A4
:102D100010B500F0A5FD00F0F3FF094B0948596814
:102D2000826F890D01F03D018C05DC600AB1C06F36
:102D3000904700F0CDFFBDE81040FFF7B1BF00BFE6
:102D40000064024028BC00200000000000000000D9
:102D500010B500F085FD00F0D3FF094B0948596814
:102D6000026F090C01F03D010C04DC600AB1406FF8
:102D7000904700F0ADFFBDE81040FFF791BF00BFE6
:102D80000064024028BC0020000000000000000099
:102D900010B500F065FD00F0B3FF094B0948596814
:102DA000826E890901F03D018C01DC600AB1C06EC0
:102DB000904700F08DFFBDE81040FFF771BF00BFE6
:102DC0000064024028BC0020000000000000000059
:102DD00008B500F045FD00F093FF084B084859681E
:102DE000026E01F03D01D9600AB1406E904700F0DB
:102DF0006FFFBDE80840FFF753BF00BF006402400B
:102E000028BC0020000000000000000000000000BE
:102E100010B500F025FD00F073FF094B0948196853
:102E2000826D890D01F03D018C059C600AB1C06D79
:102E3000904700F04DFFBDE81040FFF731BF00BFE5
:102E40000064024028BC00200000000000000000D8
:102E500010B500F005FD00F053FF094B0948196853
:102E6000026D090C01F03D010C049C600AB1406D3B
:102E7000904700F02DFFBDE81040FFF711BF00BFE5
:102E80000064024028BC0020000000000000000098
:102E900010B500F0E5FC00F033FF094B0948196854
:102EA000826C890901F03D018C019C600AB1C06C03
:102EB000904700F00DFFBDE81040FFF7F1BE00BFE6
:102EC0000064024028BC0020000000000000000058
:102ED00008B500F0C5FC00F013FF084B084819685E
:102EE000026C01F03D0199600AB1406C904700F01E
:102EF000EFFEBDE80840FFF7D3BE00BF006402400C
:102F000028BC0020000000000000000000000000BD
:102F100010B500F0A5FC00F0F3FE094B0948596814
:102F2000826B890D01F03D018C05DC600AB1C06B3C
:102F3000904700F0CDFEBDE81040FFF7B1BE00BFE6
:102F40000060024028BC00200000000000000000DB
:102F500010B500F085FC00F0D3FE094B0948596814
:102F6000026B090C01F03D010C04DC600AB1406BFE
:102F7000904700F0ADFEBDE81040FFF791BE00BFE6
:102F80000060024028BC002000000000000000009B
:102F900010B500F065FC00F0B3FE094B0948596814
:102FA000826A890901F03D018C01DC600AB1C06AC6
:102FB000904700F08DFEBDE81040FFF771BE00BFE6
:102FC0000060024028BC002000000000000000005B
:102FD00008B500F045FC00F093FE084B084859681E
:102FE000026A01F03D01D9600AB1406A904700F0E1
:102FF0006FFEBDE80840FFF753BE00BF006002400F
:1030000028BC0020000000000000000000000000BC
:1030100010B500F025FC00F073FE094B0948196853
:103020008269890D01F03D018C059C600AB1C0697F
:10303000904700F04DFEBDE81040FFF731BE00BFE5
:103040000060024028BC00200000000000000000DA
:1030500010B500F005FC00F053FE094B0948196853
:103060000269090C01F03D010C049C600AB1406941
:10307000904700F02DFEBDE81040FFF711BE00BFE5
:103080000060024028BC002000000000000000009A
:1030900010B500F0E5FB00F033FE094B0948196854
:1030A0008268890901F03D018C019C600AB1C06809
:1030B000904700F00DFEBDE81040FFF7F1BD00BFE6
:1030C0000060024028BC002000000000000000005A
:1030D00008B500F0C5FB00F013FE084B084A19685C
:1030E00001F03D01996013680BB15068984700F0FA
:1030F000EFFDBDE80840FFF7D3BD00BF0060024010
:1031000028BC0020000000000000000000000000BB
:103110002DE9F84380460E4600F092FCB8F1000F0E
:1031200039D0D8F80040A04526D0002702E0246816
:10313000A04521D0E3683343E36016B1226913420E
:10314000F5D06568D4F8089000F07AFCF5B1AB6B67
:1031500095F8202049EA03030A2AAB630ED00B2A14
:10316000E5D16A6A13409A42E1D16F62284600F0C5
:1031700047FD2468A045DDD1BDE8F8836A6A1342A3
:10318000D5D06F62284600F03BFDF2E772B6044BE3
:10319000044ADA62FEE772B6014B034ADA62FEE7DE
:1031A00020D2002090690008F069000800000000AB
:1031B000F8B528B321B304460D46202383F31188C4
:1031C00000F0A6FB00F02CFE23785A1E012A04D939
:1031D00072B6554B554ADA62FEE7012B656032D074
:1031E0002B46A0681968B0FBF1F2013A92B202FBDB
:1031F0000111884209D072B64B4B4D4ADA62FEE7A4
:1032000072B6494B494ADA62FEE7D868E1689E68BF
:10321000002520F0FF0302200D604E608A620D61E0
:10322000CB60207000F0ECFD00F05AFB3E4B1A68BA
:103230009A4204D0996992688968914211D3002317
:1032400083F31188F8BD3B4B9C4256D03A4B9C42CD
:103250003BD03A4B9C4220D0394B9C4205D063680E
:10326000BFE772B6374ADA62FEE7374B374A196C66
:10327000374841F004011964196A002641F004013D
:10328000702519621E624FF0804182F81E536368F8
:10329000C2F880111160A060A3E72B4B2B4A196C78
:1032A0002B4841F002011964196A002641F002011D
:1032B000702519621E624FF0005182F81D53636839
:1032C000C2F880111160A0608BE71F4B1F4A196C78
:1032D0001F4841F001011964196A002641F00101FB
:1032E000702519621E624FF0805182F81C5363688A
:1032F000C2F880111160A06073E7134B134A596C38
:10330000144D41F001015964596A4FF000700027D3
:1033100041F00101702659625F6282F81963C2F8B8
:1033200080011060A5609AE720D20020506A000852
:10333000A0690008A8BC002030DA002044D1002099
:10334000D0DB0020206A00080038024000E100E0E5
:1033500000BD0105007A030A000000000000000023
:1033600010B52023044683F3118800F0D1FA00F051
:1033700057FD00F065FB1248124B02681968E31D07
:1033800023F00703891A8B429DBF9B1803601446E4
:10339000002400F035FD00F0A3FA0B4B1A689A42A6
:1033A00004D0996992688968914204D3002383F319
:1033B0001188204610BD72B6044ADA62FEE700BFEB
:1033C000742D0020982D002020D20020106A0008C3
:1033D0002DE9F04F83B083460193D0F81C90174637
:1033E000002A6ED08846202686F3118800F090FAD5
:1033F000384C00F015FD0025A24600F021FBDBF85B
:1034000008305846002B3ED0DBF81420DBF808309B
:10341000511C013BCBF81410CBF8083098F8003061
:103420001370DBF81030DBF814209A4224BFDBF86D
:103430000C30CBF81430B9F1000F00D0C84700F0C1
:10344000DFFC00F04DFA2368224AA34205D0DAF8E7
:1034500018109B68896899422FD3002383F3118841
:10346000013F05F1010508F1010822D086F311881A
:1034700000F04EFA00F0D4FC00F0E2FADBF808307D
:103480005846002BC0D15846019900F0A1FB0028F6
:10349000B3D000F0B5FC00F023FA22680D4BA24235
:1034A00004D099699268896891420FD3002383F30D
:1034B0001188284603B0BDE8F08F72B6064BD36280
:1034C000FEE772B6034B054ADA62FEE772B6024ABD
:1034D000DA62FEE720D20020406A0008B0690008E6
:1034E0003030FFF775BF00BF000000000000000093
:1034F00030304FF0FF33FFF76BBF00BF000000001C
:10350000F8B504460F461646202383F3118800F0D1
:10351000FFF900F085FC03E000F05AFB051E28DBF4
:1035200000F08EFAA36820463146002BF4D0626981
:10353000A368511C013B6161A36017702369626934
:103540009A4224BFE3686361E3690BB12046984760
:1035500000F056FC00F0C4F9134B1A689A4204D0EC
:10356000996992688968914219D3002080F3118883
:10357000F8BD00F045FC00F0B3F90B4B1A689A4215
:1035800004D0996992688968914204D3002383F337
:1035900011882846F8BD72B6044ADA62FEE772B6B0
:1035A000024ADA62FEE700BF20D20020406A00082B
:1035B0003030FFF7A5BF00BF000000000000000092
:1035C00030304FF0FF32FFF79BBF00BF000000001C
:1035D0002DE9F04F83B09946C369019382461446A2
:1035E000002A65D00E464FF0200888F3118800F0BD
:1035F0008FF9364D00F014FC013C00273444AB46F3
:10360000019B33B15046984703E000F0E1FA0028EF
:103610003AD100F015FADAF8083050464946002B46
:10362000F3D0DAF81820DAF80830511C013BCAF858
:103630001810CAF8083013783370DAF81030DAF856
:1036400018209A4224BFDAF80C30CAF8183000F07B
:10365000D7FB00F045F92B681C4AAB4205D0DBF8DC
:1036600018109B688968994227D3002383F3118837
:10367000A64207F1010717D0013688F3118800F040
:1036800047F900F0CDFBBBE700F0BAFB00F028F9EA
:103690002A680E4BAA4204D09969926889689142BF
:1036A0000FD3002383F31188384603B0BDE8F08FB1
:1036B00072B6064B064ADA62FEE772B6054BD36273
:1036C000FEE772B6034ADA62FEE700BF20D20020AE
:1036D000306A0008406A0008000000000000000096
:1036E0000C30FFF775BF00BF0000000000000000B5
:1036F0000C304FF0FF33FFF76BBF00BF000000003E
:1037000070B5202304460E4683F3118800F000F9BB
:1037100000F086FBE36933B12046984703E000F0F0
:1037200057FA051E25DB00F08BF9A36820463146C9
:10373000002BF4D0A169A36820694A1C013B824296
:10374000A360A26128BFE3680D7828BFA36100F0E1
:1037500057FB00F0C5F8114B1A689A4204D09969DA
:1037600092688968914215D3002383F31188284613
:1037700070BD00F045FB00F0B3F8084B1A689A42A0
:10378000F2D09969926889689142EDD272B6044A82
:10379000DA62FEE772B6024ADA62FEE720D2002061
:1037A000406A000800000000000000000000000067
:1037B0000C30FFF7A5BF00BF0000000000000000B4
:1037C0000C304FF0FF31FFF79BBF00BF000000003F
:1037D0000D4B42685B6870B48B608668C168D0E945
:1037E00004459B1BE41845F100059342026888BF1D
:1037F000436001319342C0E90445C160836038BF32
:10380000036070BC704700BF001000E000000000C3
:103810000B4A0C49D36B10B44C6A916959601C6017
:10382000416A996090F820101973103302F588618D
:103830008B4228BF02F14003D3635DF8044B70470D
:1038400020D20020000C004000000000000000001A
:10385000FEE700BF000000000000000000000000C4
:10386000202383F31188054AD2F8A8340133C2F823
:10387000A834002383F31188704700BF20D20020B2
:103880000F4B10495A688368F0B4D1F8A0744168AE
:10389000C668D0E90445D31ADB1BE41802688360CC
:1038A00045F100058B4206F1010688BF4360934253
:1038B000C660C0E9044538BF0360F0BC704700BF74
:1038C000001000E020D200200000000000000000F6
:1038D0000148FFF7D5BF00BFE8D600200000000078
:1038E0000148FFF7CDBF00BFD0D600200000000088
:1038F000014B5B6883607047001000E0000000002F
:103900000148FFF7F5BF00BFE8D600200000000027
:103910000148FFF7EDBF00BFD0D600200000000037
:1039200070B51B4D2A68AC691368A1682B6001262D
:1039300000205D6082F82060AA6184F8200000E029
:103940001B689A688A42FBD85A68626023602046E6
:1039500014605C60FFF75CFFD5F8AC34A9690C4ECD
:103960000133483104F14800C5F8AC34FFF730FFAB
:10397000EFF30983E269643B9A4205D8B0692146B6
:10398000BDE87040FCF7A4BC72B6024BF362FEE7E0
:1039900020D20020A06A0008000000000000000003
:1039A000FFF7BEBF000000000000000000000000A4
:1039B000054B1A6B1AB95A6B002A00DD704772B6B4
:1039C000024ADA62FEE700BF20D20020B06A000897
:1039D00070B5164C0646FFF7EBFF2368A5691A6819
:1039E00085F8206001215460284683F82010226069
:1039F000A361FFF70DFFD4F8AC34A169013305F1E1
:103A000048004831C4F8AC34FFF7E2FEEFF3098315
:103A1000EA69643B9A4205D8A0692946BDE870402E
:103A2000FCF756BC72B6024BE362FEE720D20020E0
:103A3000A06A000800000000000000000000000074
:103A4000054B1A6B002A03DB5A6B002A00DD704716
:103A500072B6024ADA62FEE720D20020B86A000895
:103A60002DE9F0430C4687B00746FFF7A1FF631C22
:103A700055D0514ED6F81890FFF7E2FF1CB972B638
:103A80004E4BF362FEE7B046012C58F81C5F4C4ADF
:103A90004C49536ACDF8149008BF0224454504915F
:103AA00046D0B06A1B1AE418AB6855D32D68E41AE7
:103AB000AB689C4204D92D68E41AAB68A342FAD3E0
:103AC0006B6802930DF104090195C3F80090C5F8E5
:103AD00004900394AB684FF0FF321B1BAB60726223
:103AE0003846FFF775FFFFF7ABFF049BDBB1FFF72D
:103AF000A7FFF36930494B4535D0029A019B13600B
:103B0000019B002143455A6004910CD09968039AA7
:103B10000A449A60B369586A07B0BDE8F083384632
:103B2000FFF756FF244EB369586A07B0BDE8F0832B
:103B30000394B362D16801950DF1040911F00201FB
:103B400002951C44C6F81C90C6F8209029D1022387
:103B500054631161D360C3E79C42AAD22044FFF7AB
:103B600087F8AB68A5E7019ACA6100234245C2F80D
:103B70000480049319D09368039C1148896A2344F4
:103B80009360406A421A9342CDD99B1A012B98BF89
:103B900002231844FFF76CF8B369586A07B0BDE810
:103BA000F08372B6084BF362FEE7054AD360B3694F
:103BB000586A07B0BDE8F08320D20020706B00087F
:103BC000000C0040913D0008606A00080000000001
:103BD00069B1084B10B4024644689B69042083E82D
:103BE0001400236053605DF8044BFFF739BF4FF0BA
:103BF000FF30704720D200200000000000000000CD
:103C000010B50446FFF71CFFCCB194F820308BB1FF
:103C10000F2B0FD00022A1680B4B84F820201B68CB
:103C20009A688A42FBD25A68626023602046146018
:103C30005C6010BD72B6044B044ADA62FEE772B6ED
:103C4000014B024ADA62FEE720D20020706A0008C7
:103C5000036873B193F82020032A04D072B6054B91
:103C6000054ADA62FEE70022026018465962FFF751
:103C7000C7BF704720D20020C06B000800000000C2
:103C8000104DAC6908B5A36A606204F128069E4233
:103C900007D01A68A2621846FFF7B2FFA36AB342C0
:103CA000F7D194F821309B0704D1636922691A6126
:103CB000226953610F20FFF78BFE72B6024BEB6255
:103CC000FEE700BF20D20020806A0008000000004C
:103CD000202383F31188074B1A6B002A01DD596BEF
:103CE00019B172B6044ADA62FEE7013A1A6381F347
:103CF0001188704720D20020C06A00080000000030
:103D0000202383F31188074B1A6B002A01DB596BC0
:103D100019B172B6044ADA62FEE701321A6381F31E
:103D20001188704720D20020C86A000800000000F7
:103D3000064B1A6B002A05DD5A6B002A02DD0022B1
:103D40005A63704772B6024ADA62FEE720D2002058
:103D5000D06A000800000000000000000000000021
:103D6000064B1A6B002A01DD5A6B1AB172B6044A6F
:103D7000DA62FEE701225A63704700BF20D20020BA
:103D8000D86A0008000000000000000000000000E9
:103D900038B50446202383F31188FFF7B1FDFFF700
:103DA000DFFF94F82030072B10D8DFE803F0150F61
:103DB0000F1D0A040F0A656AFFF742FEAB68013364
:103DC000AB6094E80C001A60226853604FF0FF3338
:103DD00063622046FFF714FFFFF7AAFFFFF778FDA5
:103DE000002383F3118838BD636A00221A604FF004
:103DF000FF3363622046FFF703FFEDE7000000009A
:103E0000054B1A6B22B9596B002901DD5A637047C3
:103E100072B6024ADA62FEE720D20020E06A0008A9
:103E2000054B1A6B0AB95A6B1AB172B6034ADA62B9
:103E3000FEE701225A63704720D20020E86A00089A
:103E4000F8B50546202383F31188474EFFF760FD40
:103E5000FFF7E6FFB469FFF7ABFD002D46D0A86879
:103E600000284ED0A26883689A4207D990F8203083
:103E70008260062B5ED0072B24D0C3B12B4603E013
:103E80009968A268914202D31B689D42F8D15A6892
:103E900062602360062014605C606562FFF798FD35
:103EA000AB689C4226D072B6304BF362FEE790E8D6
:103EB0000C00012180F820101A6002685360FFF79F
:103EC0009FFEDBE790E80A0019600768416A7B60A3
:103ED0000B4602E09F68974202D31B689942F9D1D2
:103EE0005A684260036010605860C7E772B61F4BA3
:103EF000F362FEE7E36B9D4207D072B61B4BF362A1
:103F0000FEE7E36BEB60AC60E563FFF779FFFFF77B
:103F1000E7FC3268144BB24204D099699268896810
:103F2000914203D3002383F31188F8BD72B6104A7F
:103F3000DA62FEE790E80A0019600768416A7B6070
:103F40000B4602E09F68974202D31B689942F9D161
:103F50005A6842600360106058608868A26883688D
:103F60009A4283D88AE700BF20D20020806B0008E5
:103F7000E06D0008000000000000000000000000EC
:103F800008B50446202383F31188FFF7C1FCFFF72F
:103F900047FF2046FFF774FE00000000000000000D
:103FA00010B52023044683F31188FFF7B1FCFFF717
:103FB00037FF0E4B596A611A02D00820FFF750FDF7
:103FC000FFF71EFFFFF78CFC094B1A689A4204D0DA
:103FD000996992688968914203D3002383F3118819
:103FE00010BD72B6034ADA62FEE700BF000C004063
:103FF00020D20020906B00080000000000000000AC
:1040000010B52023044683F31188FFF781FCFFF7E6
:1040100007FFA4B121460820FFF722FDFFF7F0FEBD
:10402000FFF75EFC0A4B1A689A4204D099699268BD
:104030008968914208D3002383F3118810BD72B6BA
:10404000034B044ADA62FEE772B6034ADA62FEE71D
:1040500020D20020B06B0008906B00080000000028
:104060002DE9F04F1746984683B004468A4600F182
:1040700060050346FF2203F8012B9D42FBD104EBB0
:104080000A02954205D22B46552103F8011B9342A3
:10409000FBD1202383F31188FFF73AFCFFF7C0FE22
:1040A000FFF7CEFC002C00F08380BAF5B87F7FD3F9
:1040B0007F2F7DD8B8F1000F7AD0494EDFF83491C8
:1040C0007369AAF16401214404F12C0201920C9A53
:1040D000E1600020C1F840804A64C1F86090019A14
:1040E00063614FF0010C04F1280E4FF0020A4FF00B
:1040F000FF3B4FF000084FF00009A760266184F8ED
:104100002100E063A063A061276484F820A084F804
:1041100022C01C61E06420656065E561C4F828E0A8
:10412000E2622263C4F848B0C4E916897461FFF7FB
:104130003FFC3368B069B3424FD09A6883689342BA
:1041400047D300229F4262623FD9FFF759FD012306
:1041500084F820300546B461FFF75AFBD6F8AC343A
:104160001F4F013305F1480004F14801C6F8AC3493
:10417000FFF72EFBEFF30983EA69643B9A4220D8EC
:1041800029462046FCF7A4F8FFF73AFEFFF7A8FB04
:104190003268134BB24204D099699268896891429F
:1041A0000BD3002383F31188204603B0BDE8F08FC2
:1041B00072B60B4B0B4ADA62FEE772B60A4ADA6253
:1041C000FEE772B6094BFB62FEE72046FFF718FDDB
:1041D000DAE772B6064BF362FEE78368B1E700BF29
:1041E00020D20020906A0008906B0008A06A0008A6
:1041F000A06B0008E90200080000000000000000B9
:10420000FEE700BF0000000000000000000000000A
:10421000F0B4114E002506F1800796E81A00A3427B
:104220000DD204391A4651F8040F42F8040BA24289
:10423000F9D3DA43144424F0030404342344F26829
:10424000934203D243F8045B9342FBD31036BE4241
:10425000E3D3F0BC704700BFF06A00080000000024
:10426000FEE700BF000000000000000000000000AA
:10427000704700BF000000000000000000000000C8
:10428000704700BF000000000000000000000000B8
:1042900070B5104C2DED028B9FED0F8A064604F190
:1042A0000C05B4EC017A0D49D4ED027A27EE087AB8
:1042B00067EE887ABDEEC77AFDEEE77A17EE102A30
:1042C00017EE903A3046FDF733F9AC42E9D1BDEC38
:1042D000028B70BDECBC00200000C842806D00085D
:1042E00010B582B002AC074B04F8010D4FF4004248
:1042F0001A8301F00DF9204601F07AF901F040F936
:1043000002B010BD001002400000000000000000DC
:1043100010B582B002AC074B04F8010D4FF4004217
:104320005A8301F0F5F8204601F062F901F028F90E
:1043300002B010BD001002400000000000000000AC
:10434000D74BD84C1A694FF0FF3100222DE9804835
:1043500019611A61586959615A61186A60F0805090
:1043600018621A62586A59625A62196C41F0805197
:104370001964216841F480712160196F01F4407162
:10438000B1F5007F8BB003D04FF4803119671A6705
:10439000C448C54C4368C54EC54D002123F4007385
:1043A00043600A460B462160B058016045F833105F
:1043B0000133102B02F10C024FF00004F4D1DFF8AE
:1043C0001C83BC4AB64FDFF818C3DFF818B3DFF818
:1043D00018E3B948DFF814A3B849DFF81493B84DCF
:1043E0004FF0FF36C8F80860C8F80C609660D660D9
:1043F0003A6B6FEA52226FEA42223A633A6D6FEAF1
:1044000052226FEA42223A656FF4A842CCF8044087
:10441000CCF80820CCF80CB00BF1AA5B0BF5883B6C
:104420004FF6FF720BF5887BCCF81420CCF820B047
:10443000DFF8C0B2CCF824B0DFF8BCB2CCF800B0E2
:104440004FF4107CDFF8B4B2CEF804C0CEF80860A8
:10445000CEF80CB0DFF8A8B2CEF81420CEF820B019
:10446000DFF8A0B2CEF824B0DFF89CB2CEF800B0EE
:10447000DFF898B244608660C0F80CB04FF04C5B37
:104480004261C0F820B048F6330BC0F824B0DFF822
:1044900080B2C0F800B0DFF87CB2CAF80440CAF8B5
:1044A0000860CAF80CB040F6FF7BA8F59848DFF822
:1044B00068C2CAF814B00EF5C05E00F5C050DFF84F
:1044C0005CB2CAF82040CAF82440CAF800B0DFF84D
:1044D00050A2C9F80440C9F80860C9F80C40C9F8EE
:1044E0001420C9F82040C9F82430C9F800A0C8F841
:1044F0000440C8F80860C8F80C40C8F81420C8F890
:104500002040C8F82440C8F80040CCF80440CCF85B
:104510000860CCF80C40CCF81420CCF82040CCF843
:104520002440CCF80040CEF80440CEF80860CEF825
:104530000C40CEF81420CEF82040CEF82440CEF81F
:10454000004044608660C460426104624C60446222
:104550004C61046055485B4A4A63024648320A632C
:1045600001F10C02DFF8BCB1CA600A6101220A70D5
:10457000DFF8B491C862CC615349DFF8B0A1CBF841
:104580000C104FF08041C9F80C1001F58061DFF884
:10459000A0C1CAF80C104D484D49DFF898E18BF8DE
:1045A000002089F80020A846CBF80440C9F8044050
:1045B000DFF884B18AF800204FF006098CF800205B
:1045C000C8608CF81090CCF818B0CAF8044000F518
:1045D0009C304FF0020ACCF80440CCF80C40DFF8D5
:1045E0005C91DFF85CC10A708EF800208EF810A094
:1045F0004C60CEF804403749CEF80C4005F1740AFF
:10460000CEF8180048F8049B2848DFF83891ACF839
:104610000060DFF834E1C5F840A005F10C0C05F1AD
:10462000540AC5F84C9005F1640900F1300BC5F847
:1046300074E0C5F8048005F1300E00F12408C5F8D7
:104640000CC0C5F810C0C5F818A0DFF800C1C5F847
:1046500024A0C5F820A0C5F81C9001F10C0AC5F8EB
:104660003C90C5F84890C5F844901B48DFF8E090AE
:104670000A702A72C861C1F82080C1F824B0C1F85C
:1046800028C0C1F80CA0C1F810A06C61C5F830E0DA
:10469000AB63C5F834E04C608C604C615AE000BFFD
:1046A0000038024000700040B0CE0020606C00086E
:1046B00028BC00200064024000080240E8DB002023
:1046C0009C2D0020005400400000014000080040E4
:1046D000D0DB002044D000200038004000600240C1
:1046E000000002400000154000040240000C02409F
:1046F0000010024070A70A00A8AAA82A1540515528
:10470000000022224400555580AA0AAA54054054AC
:1047100001A0AA02555055AA0018024000010055F8
:1047200040280850A8BC002030DA002044D10020E6
:1047300014DA0020582D002000040140006C00080D
:10474000B8BC0020111F0008004C004016000100FA
:1047500046000100AC62ED622D65C1F82C90D7F8DF
:104760004080DFF884B3C349DFF880E3DFF880934B
:10477000DFF880A3C048DFF880C348F00808C7F816
:104780004080DBF8088048F00808CBF8088042F247
:10479000CF08C1F828804FF0800B4FF48028CE62FC
:1047A0008C614C63CC604C604A610A60039289F86A
:1047B00032B3C9F88481C9F80480CEF80840DEF825
:1047C0000CB0DFF8E8824FF6FF010BEA010141EA85
:1047D0000A0ACEF80CA0C168C8F8048041F08071C4
:1047E000C160DCF80000C8F808401043CCF80000B5
:1047F00008F11C018EF81F304FF0000A4FF0000B3B
:104800004FF0200304A88EF82230C8F81C10C8F816
:104810002460C8F81080C8F80080C8F81480C8F870
:104820002840C8F820100496C8F8A04405940694BF
:104830000794CDE908ABFFF75BF804A8FFF720F871
:1048400008F5986ECEE900AB08F59B6ECEE900AB9B
:104850008A488B498B4BD8F814C0039AC8F8B064C7
:1048600008F1400EC8F83CE0DFF890E2C8F8C864F0
:1048700020F0070021F007010291CEF80000069910
:104880008148C8F8A0140299016003F110007F4923
:10489000196018614021586108F5886088F8622421
:1048A0009C60DC609C6108F58D6E794BC8F8A8446B
:1048B000C8F8AC44C8F8B444C8F8B844C8F8BC4414
:1048C000C8F8CC44C8F8D044C8F8D44488F8614447
:1048D000C8F87C44C8F87844C8F85844C8F85084EC
:1048E000C8F83810C8F84814C8F88014C8F854C478
:1048F00008F59361CCF81000C8F8886408F26C469B
:10490000C8F81400C8F81800C8F85C3408F59160BD
:10491000C8F88C44C8F89044C8F8944488F86024D7
:10492000C8F868E4C1E900ABC8F86C64C8F8706402
:104930000292FEF7DDFFD8F830301BB9D8F83430DA
:10494000029A23B172B6534BC8F82C30FEE783F3BA
:10495000118862B6D8F818104F488861009308F59E
:104960009C604FF4C0714D4BFFF77AFB4C4B836159
:10497000202383F31188FEF7CBFFFFF751FA2B7A40
:104980005A1E012A04D972B6464BC8F82C30FEE7ED
:10499000012B0CD13B6C4FF48012C02143F4002357
:1049A0003B6489F83413C9F88421C9F804206B6F7B
:1049B0003D4A934256D002F58062934252D041F272
:1049C00017129A6042F22C1044F240020021012496
:1049D0001A615C610222D860196019685B682A72EA
:1049E000FFF70EFAFEF77CFFD8F800202F4B424568
:1049F00004D0996992688968914237D3002484F37E
:104A000011882B4A2B4B2C4900932C4811602C4BBE
:104A10004FF4AE614022FFF723FB2A4B00944FF482
:104A2000D87140222848FFF71BFB284B009448F21E
:104A3000701145222648FFF713FB264B009441F2E4
:104A400070113B222448FFF70BFB00942348244BB2
:104A500041F270114122FFF703FB41F28830FFF76A
:104A6000CFFAFAE742F22E229A60ABE772B61D4AFD
:104A7000DA62FEE7000C0040F0ED00E0BFDD002050
:104A800000000220782D0020982D002061330008BE
:104A900000040020986D0008306D000851380008AF
:104AA000A06D0008206D00080010014020D20020F9
:104AB00040B10020706D00082408002048B100209B
:104AC000E1280008D110000890AF0020511500081F
:104AD000182E0020C156000840BD0020E81B002011
:104AE000014B0008506D0008002004E000ED00E0DC
:104AF00000E100E00003FA05001000E0742D002042
:104B000080B54E4D4E49AB694E4A996182B0002442
:104B10004D4900944D4B11604D484FF4AE61452214
:104B2000FFF79EFA202383F31188FEF7F1FEFFF7CB
:104B300077F9484B1A78511E012903D972B6464BB2
:104B4000EB62FEE745495960012A4FF47A619960AA
:104B500019D09A69146054639463D46314645462E2
:104B600058693F4B3B4AA3FB00135B0E5C1EB4F538
:104B7000803F04D23B4901FB03F3984228D072B630
:104B8000394BEB62FEE73949394F486C9E695F61EA
:104B900040F002004864486A364A4FF0700C4FF407
:104BA00080584FF4804E46F6680740F00200486295
:104BB0004C6282F82CC3C2F88481C2F8048082F867
:104BC0002EC3C2F884E1C2F804E0B761F761C7E719
:104BD00091689369481E41F2111C00214FF0010EAB
:104BE0004FF4004785269C62D86202245960C3F8BE
:104BF00020C0C3F814E01961D9605F641E60D16001
:104C00001470FFF7FDF8FEF76BFE2A680B4BAA4203
:104C100004D099699268896891420AD3002383F38A
:104C2000118800F035FA00F033FAC820FFF7E8F9F0
:104C3000F9E772B6104ADA62FEE700BF20D2002020
:104C4000A86D000888AF002024080020614D0008EE
:104C5000B8B6002014DA0020D06B0008206C0008E1
:104C600029D9426600BD0105F06B000800380240FA
:104C7000007A030A00E100E0E06B00080000000099
:104C800003684279D9684B6A10B49BB28468A2B1B8
:104C900082899A1A22444FF22F54A3428260838160
:104CA0000ED840F6CE22934204D803F5EA433033BF
:104CB0004B6283815DF8044B70478289D21AE9E721
:104CC000A3F5EA43303B4B625DF8044B83817047A8
:104CD00008B5094B094A9B69094D0A4C9A61EB6872
:104CE0004FF4FA60596BDA6B1B6C21806280A380F1
:104CF000FFF786F9F3E700BF20D20020606E0008BE
:104D000030DA0020E0DB002000000000000000009E
:104D100038B50568114904462846FEF749FAEB689C
:104D20009A6942F001029A619A6942F480729A612A
:104D30009A6942F080029A619A6942F400429A614B
:104D40009A6847F6FF7142F003029A6059621A6846
:104D5000A18142F001021A6038BD00BF506E000808
:104D6000304B314A9B693148314E324D80B59A61A2
:104D7000FFF7CEFF3048FFF7CBFF776A736AC8377B
:104D8000BB4205F1260448D3776A2A682B6B274873
:104D9000B2F808A0B3F80890FFF772FF2648FFF7B3
:104DA0006FFF264A2B6B296898688968DFED246AB3
:104DB000244BA2FB08E2D20802EB8202A8EB4202DB
:104DC00005EB420ECAEB010AC9EB0009B0EE666AB8
:104DD000AEF814A0AEF8449033F8022F07EE102A74
:104DE0001A8E07EE902AB8EE477AF8EE677AA34259
:104DF00076EE876A36EE276AEED1F2EE047AC6EED8
:104E0000A76A736AC837BB4208F1010886EE276AB1
:104E1000C5ED0A6A85ED166AB6D23846FFF7C0F8C6
:104E2000B3E700BF20D20020706E00080408002005
:104E3000000C00402408002014080020CDCCCCCC6D
:104E40000000000036080020000000000000000004
:104E50000368984210D01A68026093F820105060DE
:104E6000042904D072B6054B054ADA62FEE7002237
:104E70005A621846FEF7C4BE704700BF20D2002019
:104E8000306E00080000000000000000000000007C
:104E900038B50D46044690B1286020460B4901F014
:104EA000F7F904442046094901F0CAF960B1421CEF
:104EB00000232A600370237823B1204638BD0C6894
:104EC000002CEAD1002038BD2860F4E77C6E000891
:104ED000F0B400F10B073C460D46B1FBF2F602FBC5
:104EE000161101F13003392BC8BF01F13703DBB2D2
:104EF00004F8013DB5FBF2F53146002DEDD13A1B2A
:104F0000024401E014F8013F00F8013B9042F9D15E
:104F1000F0BC70470000000000000000000000002E
:104F20000CB42DE9F047C6B04EAA06AC52F8043BCB
:104F3000364F009200260D4601A81946FF2301971F
:104F40000393029404960596FCF76AF9049B304992
:104F5000304ADFF8D0E0304FB1F80090B2F800806E
:104F6000FE2B98BFE6542D4B2D4EB3F800C02246C1
:104F70000521002413783BB35B2B2CD05D2B31D063
:104F80000D2B26D00A2B24D0142922D80A2D20D864
:104F90005C2B32D001EB810005EB4000002C14BFEC
:104FA000CA46C246142902F101020EF8003026F862
:104FB00010C027F810A01CD00131C9B213780A2DF7
:104FC00028BF0025002BD7D146B0BDE8F04702B07E
:104FD00070470132CEE712F8010C5C28D4D00132C0
:104FE0000124C7E712F8010C5C28CDD0013200245F
:104FF000C0E70135EDB20021E0E750785B2801D031
:105000005D28C7D101320346C4E700BF806E0008A7
:10501000E6DB00201CD2002040DA002010DA00205D
:10502000B4CE00207CD00020000000000000000072
:10503000124B30B41C69002C17DB104CE368DB0307
:10504000FCD4032A0AD9043A22F00302031D1A44AD
:1050500050F8043B41F8043B9042F9D1074A1369E8
:1050600043F00043136130BC7047054D054C5D6053
:105070005C601B69002BE0DAF5E700BF003C0240F2
:1050800023016745AB89EFCD000000000000000060
:10509000F0B5414B9A7993ED027A83B00AB1B1EE43
:1050A000477A3D4A93F8361083ED037AD2ED0E7AB3
:1050B00009B1F1EE677AB5EEC07AF1EE10FAC3ED00
:1050C0000F7A66DDDFED356A67EE266AFCEEE66A8A
:1050D000CDED016ABDF804201746B5EEC07AF1EEB9
:1050E00010FA1A8249D44FF0000E7246F5EEC07ADB
:1050F000F1EE10FA5A823DDD9FED287A27EE877A8D
:10510000BCEEC77A8DED017ABDF804201646F5EEA7
:10511000C07AF1EE10FAA3F840201FD400252A46E9
:105120001F4958791C798969A3F842200C3400F191
:105130000C0201EB820201EB84004760C2F804E03C
:1051400093F834200C3201EB8202566093F835302C
:105150000C3301EB83014D6003B0F0BD9FED0F7A7E
:1051600067EEC77AFCEEE77ACDED017ABDF8042050
:105170001546D5E700263246C9E7DFED086A27EE77
:10518000667ABCEEC77A8DED017ABDF804209646AA
:10519000ACE700273A46A0E72408002000007A4543
:1051A00014DA0020000000000000000000000000F1
:1051B0002DE9F0418600331801EB43030246184CF9
:1051C0001848C55CE05CA84213D0174F174837F861
:1051D00013E0DFF860C0164F30F81380012032442E
:1051E00001EB4201655427F811E02CF81180BDE86D
:1051F000F0810F4FDFF830E037F813003EF813E08E
:10520000DFF830C07045094830F8138001D0012024
:10521000E5E73CF81300B0EB080018BF0120DEE71B
:1052200054D100207CD0002040DA0020B4CE0020F1
:1052300080D8002020DC00200000000000000000DA
:10524000F8B507462A200D4616461C46FFF760F8BB
:105250000020FFF745F83846FFF742F80020FFF737
:105260003FF83046FFF73CF82B20FFF751F80020BD
:10527000FFF736F82846FFF733F80020FFF730F83D
:105280002046FFF72DF82C20BDE8F840FFF740B886
:105290002DE9F047354C2023D4F8188083F311888A
:1052A000FEF736FBFEF7BCFDD8F83C3033B19A6808
:1052B000904507D072B62E4BE362FEE772B62C4BD8
:1052C000E362FEE72B4D05F10C094B4503D072B6A6
:1052D000274BE362FEE7AE69C8F83C60FEF768FB67
:1052E000EF684F453AD0D8F840A05EB1FEF760FBBA
:1052F00033689E4203D09B689A4538BF9A46F66849
:10530000002EF3D13B68FA6BC8F808A03846EB6072
:10531000C3F80490AA61C7F83C906F61FEF770FC77
:10532000FEF746FBFEF78CFBA269236892689B6838
:105330009A4201D2FEF7F4FAFEF762FDFEF7D0FAC8
:1053400022680A4BA24204D0996992688968914206
:1053500007D3002383F31188BDE8F08700236B6136
:10536000EAE772B6044ADA62FEE700BF20D2002004
:10537000A06E0008E8DB0020E06D000800000000DF
:105380002DE9F04758B151B103B142B1574C2578DE
:10539000022D09D072B6564B564ADA62FEE772B653
:1053A000534B544ADA62FEE79846064691468A46CF
:1053B000202383F311884E4DFEF7AAFAFEF730FD45
:1053C00070000323002223702084A260666BFEF726
:1053D00017FDFEF785FA2B68AB4204D0AA699B68DB
:1053E00092689A4256D3002383F31188226BE36AB2
:1053F00011681B68606AA26ADFF80CE13E4F0A6020
:10540000C1F80CE0C1F804A01860C3F80C90C3F810
:105410000480D7F824A0DFF8D8904FF0200888F354
:105420001188FEF775FAFEF7FBFCB369990702D401
:1054300033689A0532D57B6ACAEB0303B3F5FA7F6A
:1054400011D2FEF7DDFCFEF74BFA2A682849AA4282
:1054500005D0D9F8183092689B6893423DD3002359
:1054600083F31188DBE7052323704FF0FF36FEF747
:10547000C7FCFEF735FA2A681D4BAA4204D0996989
:105480009268896891422CD3002383F311883046B7
:10549000BDE8F08772B6194BEB62FEE77368E0690E
:1054A000AA691349114F43F400737360336843F4DE
:1054B0008073336018B172B6114BCB62FEE73B4686
:1054C000032043F81C2F0A215362FEF7C9FA431C3C
:1054D0000646C8D002233B70C9E772B6074BCB62C1
:1054E000FEE772B6074ADA62FEE700BFE8DB00209B
:1054F00020D20020106E0008000C0040006E000852
:10550000B06E0008F06D000874D0002000000000AC
:1055100008B5202383F31188FEF7FAF9FEF780FC23
:10552000124B1A78022A04D072B6114B114ADA6271
:10553000FEE75B6819895A6801238B409BB253834D
:10554000FEF75EFCFEF7CCF9094B1A689A4204D0CC
:10555000996992688968914203D3002383F3118883
:1055600008BD72B6044ADA62FEE700BF44D00020EC
:1055700020D20020E06E0008D06E0008000000007D
:1055800008B5202383F31188FEF7C2F9FEF748FC23
:10559000124B1A78022A04D072B6114B114ADA6201
:1055A000FEE75B6819895A6801238B409BB213831D
:1055B000FEF726FCFEF794F9094B1A689A4204D0CC
:1055C000996992688968914203D3002383F3118813
:1055D00008BD72B6044ADA62FEE700BF44D000207C
:1055E00020D20020C06D0008D06E0008000000002E
:1055F000F8B5C0B10646202383F31188FEF788F979
:10560000FEF70EFC284B1A78022A04D072B6274BFC
:10561000274ADA62FEE75A6812684AB172B6234B2B
:10562000234ADA62FEE772B6204B214ADA62FEE7CD
:10563000196A5A6A0968DC6A12681E489F6AC8605B
:10564000012544F4806403204D6018700F60D6601B
:10565000556014600D68154C9F68A66945F00105FA
:105660000D60116841F0010111601FB172B6124B5B
:10567000E362FEE743F8086F7362FEF7A9F9FEF7ED
:10568000BFFBFEF72DF92368A34204D0A2699B68F3
:1056900092689A4203D3002383F31188F8BD72B64F
:1056A000064BE362FEE700BF44D0002020D200207A
:1056B000D06D000812DA0020906E0008D06E00084D
:1056C0002DE980480F4D104BAA691049104C91618B
:1056D0004FF480521A8389B02046FEF7B1FB202395
:1056E00083F31188FEF714F9FEF79AFB14F80C2CDB
:1056F000531E012BA4F10C040ED972B6054BEB62BC
:10570000FEE700BF20D2002000040240007F000816
:1057100050D00020407F0008E44B6360012A00F075
:1057200016825989E36AA26A080523F4F04348BF48
:1057300043F4205322F4F042E36248BF42F4205283
:10574000E369A26241F441710020072218601960E8
:105750005A601A6842F040021A6002232370FEF772
:105760004FFBFEF7BDF82A68D14BAA4205D09969D4
:10577000926889689142C0F00782002484F31188FE
:10578000CC4DCD4E6B694FF4804783F480536B61F1
:105790000A207783FEF734FC0A203783FEF730FCBB
:1057A0006B697B406B610120FEF7B2FD1120FEF7B3
:1057B000AFFD4FF49660FEF723FCB120FEF7A8FD85
:1057C0000120FEF78DFD2C20FEF78AFD2D20FEF72F
:1057D00087FDB220FEF79CFD0120FEF781FD2C2005
:1057E000FEF77EFD2D20FEF77BFDB320FEF790FD3A
:1057F0000120FEF775FD2C20FEF772FD2D20FEF72F
:105800006FFD0120FEF76CFD2C20FEF769FD2D20B9
:10581000FEF766FDB420FEF77BFD0720FEF760FD76
:10582000C020FEF775FDA220FEF75AFD0220FEF70C
:1058300057FD8420FEF754FDC120FEF769FDC52009
:10584000FEF74EFDC220FEF763FD0A20FEF748FD7D
:105850002046FEF745FDC320FEF75AFD8A20FEF7DD
:105860003FFD2A20FEF73CFDC420FEF751FD8A20B3
:10587000FEF736FDEE20FEF733FDC520FEF748FDAE
:105880000E20FEF72DFD3620FEF742FDC820FEF764
:1058900027FDE020FEF73CFD0220FEF721FD1C2045
:1058A000FEF71EFD0720FEF71BFD1220FEF718FD78
:1058B0003720FEF715FD3220FEF712FD2920FEF7F6
:1058C0000FFD2D20FEF70CFD2920FEF709FD2520F8
:1058D000FEF706FD2B20FEF703FD3920FEF700FD45
:1058E0002046FEF7FDFC0120FEF7FAFC0320FEF740
:1058F000F7FC1020FEF7F4FCE120FEF709FD032081
:10590000FEF7EEFC1D20FEF7EBFC0720FEF7E8FC9F
:105910000620FEF7E5FC2E20FEF7E2FC2C20FEF729
:10592000DFFC2920FEF7DCFC2D20FEF7D9FC2E2021
:10593000FEF7D6FC2E20FEF7D3FC3720FEF7D0FC76
:105940003F20FEF7CDFC2046FEF7CAFC2046FEF7BE
:10595000C7FC0220FEF7C4FC1020FEF7C1FC2A2081
:10596000FEF7D6FC2046FEF7BBFC2046FEF7B8FC4F
:105970002046FEF7B5FC7F20FEF7B2FC2B20FEF799
:10598000C7FC2046FEF7ACFC2046FEF7A9FC2046EB
:10599000FEF7A6FC9F20FEF7A3FC3A20FEF7B8FC1A
:1059A0000520FEF79DFC2920FEF7B2FC6420FEF7DF
:1059B00027FB6B6983F400436B612C20FEF7A8FC86
:1059C0003E4A3F493F4B14802A204FF651420C80FB
:1059D0001A80FEF79DFC2046FEF782FC2046FEF76B
:1059E0007FFC2046FEF77CFC7F20FEF779FC2B2015
:1059F000FEF78EFC2046FEF773FC2046FEF770FC97
:105A00002046FEF76DFC9F20FEF76AFC2C20FEF777
:105A10007FFC4FF4A044FC20013CFEF761FCA4B2E3
:105A20005120FEF75DFC002CF5D12749274DDFF80A
:105A3000BCB001222346204626460A704FF0200AB9
:105A40004FF65149224C411E05EB010C2144214CDB
:105A500001919A1E04EB020E1F49204CA7180BEB74
:105A600002040A4401994FF0000808F10108B8F156
:105A70000A0F0CF801AF2EF8026F27F8029F01F809
:105A800001AF24F8026F22F8029FEED10A30C82835
:105A900003F11403D6D1DFF858A09FED118A114B02
:105AA000114AD3ED1D7A67EE887A23E0307F000833
:105AB00020D20020000C0240001002401CD2002026
:105AC000E6DB002010DA0020B0DD00207CD00020D2
:105AD00054D1002040DA002020DC0020B4CE002089
