:020000040800F2
:1000000000040020C1010008211400082114000888
:1000100021140008211400082114000821140008EC
:1000200021140008211400082114000801250008EB
:1000300021140008211400082114000821140008CC
:1000400021140008211400082114000821140008BC
:1000500021140008211400082114000821140008AC
:10006000211400082114000821140008512E000852
:10007000112E0008D12D0008912D0008512D0008E7
:10008000112D0008D12C00082114000821140008AB
:10009000211400082114000821140008211400086C
:1000A000413300080134000821140008211400081D
:1000B000E1330008C1330008A133000871280008AB
:1000C00071270008211400082114000821140008D9
:1000D000211400082114000821140008211400082C
:1000E000211400082114000821140008211400081C
:1000F000813300082114000861330008912C0008A6
:100100002114000821140008912900082114000876
:1001100021340008211400082114000821140008CB
:10012000512C0008112C0008D12B0008912B00083D
:10013000512B000821140008211400082114000884
:1001400021140008211400082114000821140008BB
:10015000112B0008D12A0008912A00082114000858
:10016000211400082114000821140008211400089B
:10017000211400082114000821140008211400088B
:10018000211400082114000821140008211400087B
:10019000211400082114000821140008211400086B
:1001A000211400082114000821140008211400085B
:1001B000211400082114000821140008211400084B
:1001C00072B6344880F3098840F20000CCF2000097
:1001D0004EF63471CEF200010860BFF34F8FBFF3CB
:1001E0006F8F40F20000C0F2F0004EF68851CEF260
:1001F00000010860BFF34F8FBFF36F8F4FF0000017
:10020000E1EE100A4EF63C71CEF2000108600620C5
:1002100080F31488BFF36F8F01F042F903F050FCB4
:100220001D481E491E4A91423CBF41F8040BFAE7A3
:100230001C49184A91423CBF41F8040BFAE71A499D
:100240001A4A1B4B9A423EBF51F8040B42F8040B6A
:10025000F8E700201749184A91423CBF41F8040BC7
:10026000FAE701F0E5F801F013F9144C144DAC4233
:1002700003DA54F8041B8847F9E703F009FF114C2F
:10028000114DAC4203DA54F8041B8847F9E701F03A
:10029000F7B8000000080020555555550000002013
:1002A0000004002000040020106E00080008002058
:1002B000640800206808002068CB0020C001000806
:1002C000C0010008C0010008C001000800000000D3
:1002D0002DE9F04F2DED108AC1F80CD0C3689D4672
:1002E000BDEC108ABDE8F08F00F092FD00F0B0FA8E
:1002F000002383F311882846A047002000F080FFE8
:1003000000F0BEFA00F094FD00F002FB00F080FD6A
:1003100000F09EFA00DFFEE7000000000000000091
:10032000844641EA000313F003036DD1403A41D300
:1003300051F8043B40F8043B51F8043B40F8043BBF
:1003400051F8043B40F8043B51F8043B40F8043BAF
:1003500051F8043B40F8043B51F8043B40F8043B9F
:1003600051F8043B40F8043B51F8043B40F8043B8F
:1003700051F8043B40F8043B51F8043B40F8043B7F
:1003800051F8043B40F8043B51F8043B40F8043B6F
:1003900051F8043B40F8043B51F8043B40F8043B5F
:1003A00051F8043B40F8043B51F8043B40F8043B4F
:1003B000403ABDD2303211D351F8043B40F8043BEF
:1003C00051F8043B40F8043B51F8043B40F8043B2F
:1003D00051F8043B40F8043B103AEDD20C3205D3FF
:1003E00051F8043B40F8043B043AF9D2043208D0F7
:1003F000D2071CBF11F8013B00F8013B01D30B8869
:1004000003806046704700BF082A13D38B078DD046
:1004100010F003038AD0C3F10403D21ADB071CBF18
:1004200011F8013B00F8013B80D331F8023B20F882
:10043000023B7BE7043AD9D3013A11F8013B00F8BB
:10044000013BF9D20B7803704B7843708B78837043
:10045000604670470000000000000000000000003F
:10046000A2EB0300704700BF02780B78012A28BF77
:100470009A42F5D16DE9044540EA0104CDE90267ED
:100480006FF0000C4FEA447212B380EA010414F0DA
:10049000070F6AD100F0070420F0070004F00305FD
:1004A00021F007014FEAC505F0E8042314F0040F1A
:1004B000F1E804670CFA05F462EA040266EA04064D
:1004C0000AD063EA0403624667EA0407664603E06B
:1004D000F0E80423F1E8046782FA4CF582EA0604A6
:1004E000A4FA8CF46CBB83FA4CF583EA0705A5FAF1
:1004F0008CF595B950E9022351E9026782FA4CF56F
:1005000082EA0604A4FA8CF483FA4CF583EA070520
:10051000A5FA8CF52543DBD09CB92DBAB5FA85F444
:1005200024F0070427FA04F1DDE9026723FA04F353
:1005300003F0FF0001F0FF01FDE80445A0EB01001E
:10054000704724BAB4FA84F424F0070426FA04F1BC
:10055000DDE9026722FA04F202F0FF0001F0FF0178
:10056000FDE80445A0EB0100704714F0030F3CD1F7
:1005700010F0030428D150F8082B51F8083B82FAF8
:100580004CF582EA0305A5FA8CF55DB950F8042C08
:1005900051F8043C82FA4CF582EA0305A5FA8CF581
:1005A000002DE8D02DBAB5FA85F424F0070423FA1B
:1005B00004F122FA04F202F0FF0001F0FF01FDE86D
:1005C0000445A0EB010070474FEAC40420F003008B
:1005D00050F8082B21F0030151F8083B0CFA04F401
:1005E00062EA040263EA0403C9E710F003041AD0C4
:1005F000A1EB040120F00300E40750F8042B06D01F
:100600000FD28B785FFAA2F4E41A06D12BB1CB7823
:100610005FFAB2F4E41A00D11BB920465DF8104B22
:10062000704701F1040150F8042BCC0721F00301BD
:1006300051F8043B48D824D222F07F4482FA4CF58A
:1006400094EA1325A5FA8CF50AD165B951F8043B53
:1006500084EA0204B4EB036F0ED150F8042BEBE7ED
:100660004FEA132355E035F07F454DD10878FDE87A
:100670000445C0F1000070474FEA126203F0FF0327
:1006800047E002EA1C4482FA4CF594EA1345A5FAC5
:100690008CF50AD165B951F8043B84EA0204B4EB45
:1006A000034F0CD150F8042BEBE74FEA134330E033
:1006B00015EA1C4528D10B884FEA124229E04FEA7F
:1006C000124203EA1C4324E002F0FF0482FA4CF5D4
:1006D00094EA1365A5FA8CF50AD165B951F8043B83
:1006E00084EA0204B4EB032F09D150F8042BEBE7A2
:1006F0004FEA13630DE015F0FF0F05D10B684FEAC9
:10070000122223F07F4304E04FF00000FDE804458F
:10071000704712BA1BBA82FA4CF482EA0304A4FAB4
:100720008CF5B5FA85F402FA04F203FA04F34FEA01
:100730001260FDE80445A0EB136070470000000064
:100740000D4B42685B6870B48B608668C168D0E905
:1007500004459B1BE41845F100059342026888BFDD
:10076000436001319342C0E90445C160836038BFF2
:10077000036070BC704700BF001000E00000000084
:100780000B4A0C49D36B10B44C6A916959601C60D8
:10079000416A996090F820101973103302F588614E
:1007A0008B4228BF02F14003D3635DF8044B7047CE
:1007B000D8BF0020000C0040000000000000000036
:1007C000FEE700BF00000000000000000000000085
:1007D000202383F31188054AD2F8A8340133C2F8E4
:1007E000A834002383F31188704700BFD8BF0020CE
:1007F0000F4B10495A688368F0B4D1F8A07441686F
:10080000C668D0E90445D31ADB1BE418026883608C
:1008100045F100058B4206F1010688BF4360934213
:10082000C660C0E9044538BF0360F0BC704700BF34
:10083000001000E0D8BF0020000000000000000011
:100840000148FFF7D5BF00BFA0C400200000000092
:100850000148FFF7CDBF00BF88C4002000000000A2
:10086000014B5B6883607047001000E000000000EF
:100870000148FFF7F5BF00BFA0C400200000000042
:100880000148FFF7EDBF00BF88C400200000000052
:1008900070B51B4D2A68AC691368A1682B600126EE
:1008A00000205D6082F82060AA6184F8200000E0EA
:1008B0001B689A688A42FBD85A68626023602046A7
:1008C00014605C60FFF75CFFD5F8AC34A9690C4E8E
:1008D0000133483104F14800C5F8AC34FFF730FF6C
:1008E000EFF30983E269643B9A4205D8B069214677
:1008F000BDE87040FFF7ECBC72B6024BF362FEE756
:10090000D8BF0020E05400080000000000000000F4
:10091000FFF7BEBF00000000000000000000000064
:10092000054B1A6B1AB95A6B002A00DD704772B674
:10093000024ADA62FEE700BFD8BF0020F054000888
:1009400070B5164C0646FFF7EBFF2368A5691A68D9
:1009500085F8206001215460284683F82010226029
:10096000A361FFF70DFFD4F8AC34A169013305F1A1
:1009700048004831C4F8AC34FFF7E2FEEFF30983D6
:10098000EA69643B9A4205D8A0692946BDE87040EF
:10099000FFF79EBC72B6024BE362FEE7D8BF0020B1
:1009A000E05400080000000000000000000000000B
:1009B000054B1A6B002A03DB5A6B002A00DD7047D7
:1009C00072B6024ADA62FEE7D8BF0020F854000887
:1009D0002DE9F0430C4687B00746FFF7A1FF631CE3
:1009E00055D0514ED6F81890FFF7E2FF1CB972B6F9
:1009F0004E4BF362FEE7B046012C58F81C5F4C4AA0
:100A00004C49536ACDF8149008BF0224454504911F
:100A100046D0B06A1B1AE418AB6855D32D68E41AA7
:100A2000AB689C4204D92D68E41AAB68A342FAD3A0
:100A30006B6802930DF104090195C3F80090C5F8A5
:100A400004900394AB684FF0FF321B1BAB607262E3
:100A50003846FFF775FFFFF7ABFF049BDBB1FFF7ED
:100A6000A7FFF36930494B4535D0029A019B1360CB
:100A7000019B002143455A6004910CD09968039A68
:100A80000A449A60B369586A07B0BDE8F0833846F3
:100A9000FFF756FF244EB369586A07B0BDE8F083EC
:100AA0000394B362D16801950DF1040911F00201BC
:100AB00002951C44C6F81C90C6F8209029D1022348
:100AC00054631161D360C3E79C42AAD2204401F071
:100AD000FFFDAB68A5E7019ACA6100234245C2F851
:100AE0000480049319D09368039C1148896A2344B5
:100AF0009360406A421A9342CDD99B1A012B98BF4A
:100B00000223184401F0E4FDB369586A07B0BDE858
:100B1000F08372B6084BF362FEE7054AD360B3690F
:100B2000586A07B0BDE8F083D8BF0020D055000850
:100B3000000C0040A10D00088054000800000000D7
:100B400069B1084B10B4024644689B69042083E8ED
:100B50001400236053605DF8044BFFF739BF4FF07A
:100B6000FF307047D8BF00200000000000000000E8
:100B700010B50446FFF71CFFCCB194F820308BB1C0
:100B80000F2B0FD00022A1680B4B84F820201B688C
:100B90009A688A42FBD25A686260236020461460D9
:100BA0005C6010BD72B6044B044ADA62FEE772B6AE
:100BB000014B024ADA62FEE7D8BF0020B0540008B9
:100BC0002DE9F84380460E46FFF7F2FEB8F1000F1C
:100BD00039D0D8F80040A04526D0002702E024688C
:100BE000A04521D0E3683343E36016B12269134284
:100BF000F5D06568D4F80890FFF7DAFEF5B1AB6B75
:100C000095F8202049EA03030A2AAB630ED00B2A89
:100C1000E5D16A6A13409A42E1D16F622846FFF734
:100C2000A7FF2468A045DDD1BDE8F8836A6A1342B6
:100C3000D5D06F622846FFF79BFFF2E772B6044BF0
:100C4000044ADA62FEE772B6014B034ADA62FEE753
:100C5000D8BF002090540008305500080000000064
:100C6000036873B193F82020032A04D072B6054BB1
:100C7000054ADA62FEE70022026018465962FFF771
:100C800077BF7047D8BF0020005600080000000062
:100C9000104DAC6908B5A36A606204F128069E4253
:100CA00007D01A68A2621846FFF762FFA36AB34230
:100CB000F7D194F821309B0704D1636922691A6146
:100CC000226953610F20FFF73BFE72B6024BEB62C5
:100CD000FEE700BFD8BF0020C0540008000000009D
:100CE000202383F31188074B1A6B002A01DD596B0F
:100CF00019B172B6044ADA62FEE7013A1A6381F367
:100D000011887047D8BF002000550008000000007F
:100D1000202383F31188074B1A6B002A01DB596BE0
:100D200019B172B6044ADA62FEE701321A6381F33E
:100D300011887047D8BF0020085500080000000047
:100D4000064B1A6B002A05DD5A6B002A02DD0022D1
:100D50005A63704772B6024ADA62FEE7D8BF0020D3
:100D60001055000800000000000000000000000016
:100D7000064B1A6B002A01DD5A6B1AB172B6044A8F
:100D8000DA62FEE701225A63704700BFD8BF002035
:100D900018550008000000000000000000000000DE
:100DA00038B50446202383F31188FFF761FDFFF770
:100DB000DFFF94F82030072B10D8DFE803F0150F81
:100DC0000F1D0A040F0A656AFFF7F2FDAB680133D5
:100DD000AB6094E80C001A60226853604FF0FF3358
:100DE00063622046FFF7C4FEFFF7AAFFFFF728FD66
:100DF000002383F3118838BD636A00221A604FF024
:100E0000FF3363622046FFF7B3FEEDE7000000000A
:100E1000054B1A6B22B9596B002901DD5A637047E3
:100E200072B6024ADA62FEE7D8BF002020550008F9
:100E3000054B1A6B0AB95A6B1AB172B6034ADA62D9
:100E4000FEE701225A637047D8BF002028550008EA
:100E5000F8B504460F461646202383F31188FFF7A2
:100E60000FFDFFF7E5FF03E0FFF76AFE051E28DB35
:100E7000FFF79EFDA36820463146002BF4D062693F
:100E8000A368511C013B6161A3601770236962690B
:100E90009A4224BFE3686361E3690BB12046984737
:100EA000FFF7B6FFFFF7D4FC134B1A689A4204D041
:100EB000996992688968914219D3002080F311885A
:100EC000F8BDFFF7A5FFFFF7C3FC0B4B1A689A426A
:100ED00004D0996992688968914204D3002383F30E
:100EE00011882846F8BD72B6044ADA62FEE772B687
:100EF000024ADA62FEE700BFD8BF00208067000820
:100F00002DE9F04F83B09946C36901938246144698
:100F1000002A65D00E464FF0200888F31188FFF7AD
:100F2000AFFC364DFFF784FF013C00273444AB464D
:100F3000019B33B15046984703E0FFF701FE0028BC
:100F40003AD1FFF735FDDAF8083050464946002B14
:100F5000F3D0DAF81820DAF80830511C013BCAF84F
:100F60001810CAF8083013783370DAF81030DAF84D
:100F700018209A4224BFDAF80C30CAF81830FFF76C
:100F800047FFFFF765FC2B681C4AAB4205D0DBF836
:100F900018109B688968994227D3002383F311882E
:100FA000A64207F1010717D0013688F31188FFF731
:100FB00067FCFFF73DFFBBE7FFF72AFFFFF748FCA1
:100FC0002A680E4BAA4204D09969926889689142B6
:100FD0000FD3002383F31188384603B0BDE8F08FA8
:100FE00072B6064B064ADA62FEE772B6054BD3626A
:100FF000FEE772B6034ADA62FEE700BFD8BF002000
:10100000E0550008806700080000000000000000B4
:1010100070B5202304460E4683F31188FFF730FC99
:10102000FFF706FFE36933B12046984703E0FFF777
:1010300087FD051E25DBFFF7BBFCA3682046314674
:10104000002BF4D0A169A36820694A1C013B8242AD
:10105000A360A26128BFE3680D7828BFA361FFF7F2
:10106000D7FEFFF7F5FB114B1A689A4204D0996935
:1010700092688968914215D3002383F3118828462A
:1010800070BDFFF7C5FEFFF7E3FB084B1A689A42F5
:10109000F2D09969926889689142EDD272B6044A99
:1010A000DA62FEE772B6024ADA62FEE7D8BF0020D3
:1010B0008067000800000000000000000000000041
:1010C000F8B50546202383F31188474EFFF7D8FB78
:1010D000FFF7AEFEB469FFF723FC002D46D0A868E9
:1010E00000284ED0A26883689A4207D990F8203031
:1010F0008260062B5ED0072B24D0C3B12B4603E0C1
:101100009968A268914202D31B689D42F8D15A683F
:1011100062602360062014605C606562FFF710FC6B
:10112000AB689C4226D072B6304BF362FEE790E883
:101130000C00012180F820101A6002685360FFF74C
:1011400017FDDBE790E80A0019600768416A7B60D9
:101150000B4602E09F68974202D31B689942F9D17F
:101160005A684260036010605860C7E772B61F4B50
:10117000F362FEE7E36B9D4207D072B61B4BF3624E
:10118000FEE7E36BEB60AC60E563FFF741FEFFF762
:101190005FFB3268144BB24204D099699268896847
:1011A000914203D3002383F31188F8BD72B6104A2D
:1011B000DA62FEE790E80A0019600768416A7B601E
:1011C0000B4602E09F68974202D31B689942F9D10F
:1011D0005A6842600360106058608868A26883683B
:1011E0009A4283D88AE700BFD8BF0020A0540008E5
:1011F000E06C00080000000000000000000000009B
:1012000008B50446202383F31188FFF739FBFFF765
:101210000FFE2046FFF73CFD00000000000000002C
:1012200010B52023044683F31188FFF729FBFFF74D
:10123000FFFDA4B121460820FFF7CAFBFFF7E8FD38
:10124000FFF706FB0A4B1A689A4204D09969926824
:101250008968914208D3002383F3118810BD72B6C8
:10126000034B044ADA62FEE772B6034ADA62FEE72B
:10127000D8BF0020806D0008C06D0008000000008D
:101280002DE9F04F1746984683B004468A4600F190
:1012900060050346FF2203F8012B9D42FBD104EBBE
:1012A0000A02954205D22B46552103F8011B9342B1
:1012B000FBD1202383F31188FFF7E2FAFFF7B8FD93
:1012C000FFF776FB002C00F08380BAF5B87F7FD360
:1012D0007F2F7DD8B8F1000F7AD0494EDFF83491D6
:1012E0007369AAF16401214404F12C0201920C9A61
:1012F000E1600020C1F840804A64C1F86090019A22
:1013000063614FF0010C04F1280E4FF0020A4FF018
:10131000FF3B4FF000084FF00009A760266184F8FA
:101320002100E063A063A061276484F820A084F812
:1013300022C01C61E06420656065E561C4F828E0B6
:10134000E2622263C4F848B0C4E916897461FFF709
:10135000E7FA3368B069B3424FD09A688368934222
:1013600047D300229F4262623FD9FFF701FC01236D
:1013700084F820300546B461FFF702FAD6F8AC34A1
:101380001F4F013305F1480004F14801C6F8AC34A1
:10139000FFF7D6F9EFF30983EA69643B9A4220D854
:1013A00029462046FEF794FFFFF732FDFFF750FA7B
:1013B0003268134BB24204D09969926889689142AD
:1013C0000BD3002383F31188204603B0BDE8F08FD0
:1013D00072B60B4B0B4ADA62FEE772B60A4ADA6261
:1013E000FEE772B6094BFB62FEE72046FFF7C0FB43
:1013F000DAE772B6064BF362FEE78368B1E700BF37
:10140000D8BF0020D0540008C06D0008E054000888
:10141000F0550008E902000800000000000000008C
:10142000FEE700BF00000000000000000000000018
:10143000F0B4114E002506F1800796E81A00A34289
:101440000DD204391A4651F8040F42F8040BA24297
:10145000F9D3DA43144424F0030404342344F26837
:10146000934203D243F8045B9342FBD31036BE424F
:10147000E3D3F0BC704700BF5055000800000000E7
:10148000FEE700BF000000000000000000000000B8
:10149000704700BF000000000000000000000000D6
:1014A000704700BF000000000000000000000000C6
:1014B00000B5234B234C9B69234D244A9A614FF47A
:1014C00080514FF480424FF40053218383B028466B
:1014D00022831F49638301F0DBFCEA681D4B1E4831
:1014E0000025156055639563D56315645562916950
:1014F00041F4824141F042019161D16941F482415C
:1015000041F0410143F21336D1611662916841F016
:1015100064019160116841F0010111603B224FF4B8
:10152000D8710095FFF7ACFE0C4B0D4A1A60636949
:1015300083F4004363614FF4FA60FFF771FEF6E74E
:10154000D8BF0020000C0240E8C700205066000809
:10155000C0660008214A0008680800201C0A002014
:1015600098C90020000000000000000000000000FA
:101570002DE980480F4D104BAA691049104C91611C
:101580004FF480521A8389B02046FFF799FD20233B
:1015900083F31188FFF774F9FFF74AFC14F80C2C59
:1015A000531E012BA4F10C040ED972B6054BEB624D
:1015B000FEE700BFD8BF00200004024058660008C4
:1015C0000CBE002030660008E34B6360012A00F087
:1015D0003B825989E36AA26A080523F4F04348BFB5
:1015E00043F4205322F4F042E36248BF42F4205215
:1015F000E369A26241F4417100200722186019607A
:101600005A601A6842F040021A6002232370FFF702
:10161000FFFBFFF71DF92A68D04BAA4205D0996954
:10162000926889689142C0F02C82002484F311886A
:10163000CB4DCC4E6B694FF4804783F480536B6184
:101640000A207783FFF7ECFD0A203783FFF7E8FDD8
:101650006B697B406B61012002F002FD112002F0FA
:10166000FFFC4FF49660FFF7DBFDB12002F0F8FCC1
:10167000012002F0DDFC2C2002F0DAFC2D2002F02B
:10168000D7FCB22002F0ECFC012002F0D1FC2C20AF
:1016900002F0CEFC2D2002F0CBFCB32002F0E0FCE7
:1016A000012002F0C5FC2C2002F0C2FC2D2002F02B
:1016B000BFFC012002F0BCFC2C2002F0B9FC2D2064
:1016C00002F0B6FCB42002F0CBFC072002F0B0FC24
:1016D000C02002F0C5FCA22002F0AAFC022002F009
:1016E000A7FC842002F0A4FCC12002F0B9FCC520B4
:1016F00002F09EFCC22002F0B3FC0A2002F098FC2B
:10170000204602F095FCC32002F0AAFC8A2002F0D9
:101710008FFC2A2002F08CFCC42002F0A1FC8A205D
:1017200002F086FCEE2002F083FCC52002F098FC5B
:101730000E2002F07DFC362002F092FCC82002F060
:1017400077FCE02002F08CFC022002F071FC1C20EF
:1017500002F06EFC072002F06BFC122002F068FC25
:10176000372002F065FC322002F062FC292002F0F2
:101770005FFC2D2002F05CFC292002F059FC2520A2
:1017800002F056FC2B2002F053FC392002F050FCF2
:10179000204602F04DFC012002F04AFC032002F03A
:1017A00047FC102002F044FCE12002F059FC032029
:1017B00002F03EFC1D2002F03BFC072002F038FC4A
:1017C000062002F035FC2E2002F032FC2C2002F024
:1017D0002FFC292002F02CFC2D2002F029FC2E20C9
:1017E00002F026FC2E2002F023FC372002F020FC21
:1017F0003F2002F01DFC204602F01AFC204602F0B9
:1018000017FC022002F014FC102002F011FC2A2028
:1018100002F026FC204602F00BFC204602F008FCF9
:10182000204602F005FC7F2002F002FC2B2002F093
:1018300017FC204602F0FCFB204602F0F9FB204694
:1018400002F0F6FB9F2002F0F3FB3A2002F008FCC6
:10185000052002F0EDFB292002F002FC6420FFF7D6
:10186000DFFC6B6983F400436B612C2002F0F8FB12
:101870003D4A3E493E4B14802A204FF651420C808F
:101880001A8002F0EDFB204602F0D2FB204602F067
:10189000CFFB204602F0CCFB7F2002F0C9FB2B20BF
:1018A00002F0DEFB204602F0C3FB204602F0C0FB44
:1018B000204602F0BDFB9F2002F0BAFB2C2002F074
:1018C000CFFB4FF4A044FC20013C02F0B1FBA4B2DA
:1018D000512002F0ADFB002CF5D12649264DDFF852
:1018E000B8B001222346204626460A704FF0200A4F
:1018F0004FF65149214C411E05EB010C2144204C6F
:1019000001919A1E04EB020E1E491F4CA7180BEB07
:1019100002040A4401994FF0000808F10108B8F1E7
:101920000A0F0CF801AF2EF8026F27F8029F01F89A
:1019300001AF24F8026F22F8029FEED10A30C828C6
:1019400003F11403D6D1DFF854A09FED108A104B99
:10195000104A1B68052023E0B0660008D8BF0020AD
:10196000000C024000100240D0BF00209EC90020A1
:10197000C8C70020180A002030BE002008BF002081
:10198000F8C70020D8C9002070BC00200000C84261
:10199000200A00206466000838C60020205600088F
:1019A0001B78012103F0ECF8AD4BAE4A1B68D3F86D
:1019B0000D3007EE903A67EE887A0520FDEEE77A63
:1019C000022117EE903A03F0DBF8A54BA64A1B68FC
:1019D000D3F8113007EE903A67EE887A0520FDEED5
:1019E000E77A032117EE903A03F0CAF89C4B9F4A1E
:1019F0001B68D3F8153007EE903A67EE887A052019
:101A0000FDEEE77A042117EE903A03F0B9F8944B13
:101A1000974A1B6805200146B3F9013003F0B0F87E
:101A20008F4B944A1B680520B3F90730062103F059
:101A3000A7F8914B1B78032B00F2A582DFE813F087
:101A4000FA016D01BE002D00206A8C4A0A2123464E
:101A500000F0D6FDE8B9606A894A0A21234600F001
:101A6000CFFD90B98748266A636A016CE2693768DE
:101A70001E6863680C3241F480410164BA60B26050
:101A8000A7E572B6804ADA62FEE772B67F4BEB6278
:101A9000FEE772B67D4BEB62FEE71323079300234C
:101AA0000493049B07990733DBB20693CBB201EB97
:101AB000810C039300234FEA4C0601939DF80470B8
:101AC0000398394603F074F9002800F0B482BDF998
:101AD000049009F1010BBBF1070F00F3C58201244B
:101AE000A046029626464C46DDF80C9008E01FFA08
:101AF00083F80FFA88F606EB040BBBF1070F09DC3D
:101B000007EB0801C9B2484603F052F908F1010396
:101B10000028ECD134461FFA88F3029E0593240175
:101B2000019F069B04994FEA0B123801013AD2B289
:101B300000F0F000BFB2019703F082F9072302938F
:101B4000B346002C40F36982029B802700261F4188
:101B500030464FF010081AE01BB218FB0033013674
:101B60001AF803303B4215BF494B4A4B33F81190EA
:101B700033F812904FEA192002F05AFAB6B25FFA1F
:101B800089F002F055FA30B2A04280F24682002875
:101B90000199414B0246B8BF00F10F0201EB22123E
:101BA00012B203400BEB02000146002B285C0A46F0
:101BB000D2DA013B63F00F030133CDE700234FF08E
:101BC000090B0393039B0F33DBB205935FFA8BF38F
:101BD00002930F26F7B23846029903F0E9F800287D
:101BE00000F0078234B2002C40F347824FF0010925
:101BF0000196C8462646029C07E01FFA83F80FFAB2
:101C000088F9C9EB0603002B09DBC8EB0700C0B25B
:101C1000214603F0CDF808F101030028EDD1344648
:101C20001FFA88F3019E04934FEAC907C4F10F0419
:101C300004EB0902D200E000013AB4B2D2B200F0E3
:101C4000F8000399059B019403F0FAF80F24002F84
:101C500040F3C6814FF00009802649463EE000BFB0
:101C6000200A002070660008786600088066000878
:101C70008866000894660008180A002031360008BB
:101C8000C132000800380240006D000810560008FC
:101C9000F8C7002070BC00200F00008012B21AF8B4
:101CA0000000C2F1070246FA02F2024215BFB84B29
:101CB000B84A33F8118032F8138009F101094FEA6C
:101CC000182002F0B5F91FFA89F95FFA88F002F0DE
:101CD000AFF90FFA89F1B94280F28281AE4A002948
:101CE0000B4602EA0102B8BFCB1D0199A1EBE30349
:101CF0001BB24FEA830E0EEB03000BEB40000146D4
:101D0000285C4FF0100E002A1EFB00400B46C5DA7F
:101D1000013A62F007020132C0E70723059300236E
:101D200003939DF80C300293DB00DBB2069307248B
:101D3000E6B23146029803F03BF8002800F03C81FF
:101D400027B2002F40F394814FF0010BD846DDF805
:101D5000089007E01FFA83F80FFA88FBCBEB070324
:101D6000002B09DBC8EB0601C9B2484603F020F896
:101D700008F101030028EDD11FFA88F304934FEA1C
:101D80000B16C7F1070707EB0B021201013A3801E6
:101D90000699059BD2B200F0F00003F051F8039BC6
:101DA00003EB83010023A4B24FEA410B0193002E01
:101DB00040F3F880019B4FF000098022494642FA27
:101DC00003F71FE01BB2C3EB00137448034409F18F
:101DD000010913F8013C3B4215BF6D4B6D4B33F8C5
:101DE000118033F812804FEA182002F021F91FFA0F
:101DF00089F95FFA88F002F01BF90FFA89F1B14214
:101E000080F2D08000290A46B8BF01F10F02A4EB8E
:101E1000221212B20BEB0200614B0B400146285C10
:101E2000002B00F101000A46CCDA013B63F00F03FE
:101E30000133C7E70F2303934FF0000B5FFA8BF3D7
:101E400002931B01DBB20593002301939DF804402C
:101E50000299204602F0ACFF002800F08280BDF914
:101E6000048008F10109B9F10F0F00F30B8101267D
:101E70003746CDF810B0B3464646DDF8088007E097
:101E80009FB20FFA87FB0BEB0609B9F10F0F07DCC6
:101E9000E019C0B2414602F08BFF7B1C0028EFD155
:101EA0005E46BBB2DDF810B00493F600019C0599C4
:101EB000039B4FEAC902E000013AA4B2D2B200F09B
:101EC000F800019402F0BCFF0024002E40DD4FF02A
:101ED0000009802749461CE01AF8000012B247FAB0
:101EE00002F2024215BF2A4B2A4A33F8118032F817
:101EF000138009F101094FEA182002F099F81FFA3E
:101F000089F95FFA88F002F093F80FFA89F1B1428B
:101F10001EDA214A00290B4602EA0102B8BFCB1D96
:101F2000019901EBE3031BB24FEA830E0EEB0300B2
:101F30000BEB40000146285C4FF0100E002A1EFB00
:101F400000400B46C8DA013A62F007020132C3E7EB
:101F50000134102CB9D1019B5F1E049B3B449BB202
:101F60000193019F0137BBB201931BB20F2B7FF787
:101F70006DAF039B0BF1010B1033DBB2BBF10A0F0A
:101F800003937FF45BAF4FF4FA70FFF749F9DEE497
:101F9000F8C7002070BC0020070000802056000811
:101FA0000F000080019B0133082B01937FF4FFAEEB
:101FB000049B0134E41AA4B2013CA4B222047FF5CC
:101FC000B7AE059B039A08330132DBB2142A0392A1
:101FD00005937FF4A6AE4FF4FA70FFF721F9B6E44B
:101FE00014F1FF34BFF433AE019E049B0136F61AA0
:101FF000B6B2013EB6B233047FF5ECAD039B0BF1F4
:10200000FF3B1033DBB2BBF1FF3F03937FF4DAAD4C
:102010004FF4FA70FFF704F999E4029B013B029335
:1020200001337FF48EAD019B03F1FF38059B4344E0
:102030009BB25E460193019B03F101081FFA88F3EE
:1020400001931BB2072B7FF739AD049B079A083326
:10205000013A0792DBB2013204937FF422AD4FF4D0
:10206000FA70FFF7DDF872E401231024059357E5B9
:10207000012304939B46102683E60123049399468B
:102080000827D3E50123082604930FE7000000008A
:10209000C14EC24D3378AA69C148C249C24C2DE92C
:1020A000804890615A1E012A85B00C6005D9052B25
:1020B00003D072B6BD4BEB62FEE7202383F3118899
:1020C000FEF7DEFBFEF7B4FE96F80090B8497160AB
:1020D00040F2564240F21643B9F1010FB262736208
:1020E000776BDFF8B4823ED03A46F06A336BD0F8B3
:1020F00000A0D1F804E0D3F800B0DFF8DC8291F85A
:1021000008C007F11000CAF808000EF1FF3ACBF83A
:1021100008004FF4004900234FF41060C245C7F88F
:1021200000903B6078601AD8D2F80490DFF8AC8257
:102130004FF6C07009EA000050605068C64540F094
:102140002A00506040F2E7809A48864574DCACF182
:102150000203012B54D972B6974BEB62FEE772B6BD
:10216000954BEB62FEE7DFF878A2D8F82C00DAF89E
:102170002030924A43F400134FF0000ECAF820308A
:102180000521CAF820E0434600F03AFA002840F062
:102190002B81D8F830008A4A0521434600F030FAF6
:1021A000002840F0AE80DAF840C0D8F82400D8F813
:1021B0002830DFF830E2D8F83420D8F804104CF496
:1021C000001C40F0007043F00073CAF840C04FF0AC
:1021D000500B4FF0004C40F4403043F440338EF845
:1021E0001FB3C8F82400CEF880C1C8F82830CEF854
:1021F00000C08EF820B3CEF88491CEF8049074E736
:10220000BCF1020F00F0BA80192303FB0EFE6D48EB
:10221000B0FBFEF30EFB03FECEEB0000002840F007
:10222000A98098B24FF4804303436FEA43436FEAB7
:1022300053430D209BB21062D361097813680229C1
:102240009BB262D0032900F08E80012902D123F0D5
:102250000A039BB213603B6843F001033B60022317
:102260003370FEF7D5FDFEF7F3FA2A684B4BAA420E
:1022700004D0996992688968914277D3002585F3E3
:10228000118880216B2002F063FF4FF47A70FEF713
:10229000C7FF29466B2002F05BFF18211B2002F0CC
:1022A00057FF29461C2002F053FF02F071FF294618
:1022B0006A2002F04DFF2946232002F049FF8021C9
:1022C000372002F045FF04AD3F48FEF7F9FE7523C5
:1022D00005F8083D012128460DF107020B4602F0E2
:1022E0004FFE0646002800F0838002F0D1FD374CF7
:1022F000636983F4005363614FF4FA60FEF790FF63
:10230000F6E772B6324BEB62FEE723F008039BB2AE
:1023100043F002039EE7BCF1010F03D072B6264BD7
:10232000EB62FEE74FEA4E0E264BB3FBFEF00EFBD0
:1023300000FECEEB030393B980B203280BD92B2305
:10234000B0F5805F1362C0F30B03FFF475AF72B694
:10235000194BEB62FEE772B6174BEB62FEE772B603
:10236000154BEB62FEE743F00A0373E772B6194AB6
:10237000DA62FEE772B6104BEB62FEE70EEB4E0E32
:10238000104BB3FBFEF00EFB00FECEEB0303002B65
:1023900040F0828080B247E7A0C90020D8BF00206B
:1023A000A0660008200A002000080020206600081F
:1023B000D0660008801A0600E066000821250008A3
:1023C000B124000880DE8002ACC90020000C02406D
:1023D00040660008F06C0008FF083D00A086010080
:1023E0000038024000E100E072B62D4BEB62FEE7E0
:1023F00002F04EFD9DF80730682B7FF478AF012185
:102400006B2002F0A5FE31466C2002F0A1FE02F026
:10241000BFFE42F21070FEF703FF29463B2002F098
:1024200077FE2946B8B99DF808E09DF809009DF8A7
:102430000A709DF80B209DF80C609DF80D3040EA65
:102440000E2042EA072243EA0623A4F80100A4F87A
:102450000320A4F80530432002F05AFEB8B99DF8D5
:1024600008709DF809109DF80A609DF80B209DF8F2
:102470000C009DF80D3041EA072142EA062243EAAA
:102480000023A4F80710A4F80920A4F80B3040F6A4
:10249000C410FEF7C5FEC0E772B6024BEB62FEE762
:1024A00040660008E0660008000000000000000030
:1024B00011F00C0F10B4446B14D1026B136819683F
:1024C00021F01F0119601968C907FCD4117A5268FC
:1024D0003D238B401360636843F4007363605DF8D1
:1024E000044B704772B6024B024ADA62FEE700BF45
:1024F000D8BF002070670008000000000000000046
:10250000064A536823F001035360EFF309836833ED
:1025100083F30988002383F31188704730EF00E0CC
:1025200011F00C0F436B2FD170B5C56A29680A688A
:1025300022F01F020A600A6812F00104FBD106466D
:10254000287A69683D2282400A605A6822F48052E3
:102550005A601A6822F480621A601A6842F40072A3
:102560001A60202383F31188FEF782F9FEF700FC3E
:1025700006F11C002146FEF773FBFEF7E1FBFEF7B8
:102580005FF984F3118870BD72B6024B024ADA62B9
:10259000FEE700BFD8BF0020706700080000000001
:1025A0000C30FEF7ADBC00BF0000000000000000D2
:1025B0000C304FF0FF33FEF7A3BC00BF000000005B
:1025C0000C30FEF725BD00BF000000000000000039
:1025D0000C304FF0FF31FEF71BBD00BF00000000C4
:1025E0003030FEF735BC00BF0000000000000000E6
:1025F00030304FF0FF32FEF72BBC00BF0000000070
:10260000002854D02DE9F0412B4F457A3C6898467C
:10261000012303FA05FE1EEA040F3DD1274E4EEAC0
:10262000040406EBC50C14F0FF0F3C6046F835209F
:10263000CCF8048004D0224D2B6B43F400132B63A1
:1026400014F47F4F2BD10468236823F01F03236009
:10265000236813F00103FBD1077A46683D25BD408E
:102660002127356023606761FAB1807A42099200C0
:1026700000F1604502F1604202F56142090105F591
:10268000614500F01F00012404FA00F0C9B285F88A
:102690000013C2F8800110601846BDE8F081084CB4
:1026A000236B43F480032363CDE71346F4E772B64C
:1026B000044B054ADA62FEE748BC002090A80020DF
:1026C00000380240D8BF002050670008000000001A
:1026D000054BDA68920701D55863704772B6034B11
:1026E000034ADA62FEE700BF000C0040D8BF0020BA
:1026F000006700080000000000000000000000006B
:10270000202383F31188124B5B6813F4006302D11A
:1027100083F311887047F1EE103AEFF309830D4A05
:102720004FF08071D26843F8082C43F84C1CA3F199
:10273000680282F30988084A116892698968926878
:1027400091428CBF054A064A43F8502C704700BF9F
:1027500000ED00E030EF00E0D8BF002001030008EA
:10276000140300080000000000000000000000004A
:10277000F8B53D4C636B5E69FEF72AF8B5B2FEF71B
:10278000C7FA276B616B3A6805F45F43DB434B6123
:10279000136823F01F0313601368D807FCD497F85D
:1027A00008E0E06A7F6802683D2303FA0EF33B60AD
:1027B000136823F01F031360136813F00103FBD1A8
:1027C000077A40683D22BA400260EA0548BF01230B
:1027D000AF05A36044BF43F00203A36068050AD5B8
:1027E0004A6822F400724A600A6843F0040342F423
:1027F00000720A60A3602A0544BF43F00803A36087
:102800006F0444BF43F02003A360E8041DD543F0E8
:1028100010033104A36022D4202383F31188FEF730
:1028200027F8FEF7A5FA11486FF00101FEF718FA34
:10283000FEF786FAFEF704F8002383F31188FEF70B
:102840004FFABDE8F840FFF75BBF320407D4002B16
:10285000E2D1FEF745FABDE8F840FFF751BF43F07B
:102860004003A360D8E700BFA0C90020BCC9002076
:10287000F8B5424DFDF7ACFFFEF74AFA6C6B404AE3
:10288000A369666946EA034323F07F43934250D02D
:1028900020D8073A934240D00132934210D1626867
:1028A000EB6A22F400721B6862601A6842F001024F
:1028B0001A60626842F4805262605B68012B58D9EA
:1028C00016F00A0F18BFA369FEF70AFABDE8F84030
:1028D000FFF716BF2B4A934214D002329342EFD136
:1028E000EB6A1B685F684FB32A8C236842F00102D1
:1028F00043F4A0632A842360FEF7F2F9BDE8F840B0
:10290000FFF7FEBE63682A6B23F4007312686360EE
:10291000136843F001031360D2E72B8C1A0A0BD023
:1029200003F0010343F0F00302F0060213432361B6
:10293000C6E72B8CC3F347032361C1E7636823F425
:1029400000736360236843F400732360202383F3E0
:102950001188FDF78DFFFEF70BFA05F11C003946D3
:10296000FEF77EF9FEF7ECF9FDF76AFF87F31188B1
:10297000A6E7236823F480632360A1E7A0C90020B1
:1029800008000300820007000000000000000000B3
:102990002DE9F047384EFDF71BFFFEF7B9F9336913
:1029A0009B0705D4FEF79CF9BDE8F047FFF7A8BEEA
:1029B000002737614FF0200989F311882F4DFDF76B
:1029C00057FFFEF7D5F9FDF7F3FFFDF7F1FFEC69CF
:1029D000726AA96AA368501A984238BF05F11C06AA
:1029E00025D3B846374605F11C062268D4F80CA05A
:1029F0000B44B242AB625660EA61C4F80C8008BF77
:102A0000C7F80C80FEF79CF9FDF71AFF88F31188D0
:102A10002069D04789F31188FDF72AFFFEF7A8F94E
:102A2000EC697A6AA96AA368501A8342DDD9B44274
:102A300014D00B449B1A012B98BF02239C182046EC
:102A4000FFF746FE0C4BA96A5A6A0C48631A521AE1
:102A50009A4203D972B60A4BC362FEE7FEF770F9D9
:102A6000FDF7EEFE002383F31188FEF739F9BDE888
:102A7000F047FFF745BE00BF000C0040D8BF002064
:102A800020670008000000000000000000000000B7
:102A900010B5FDF79DFEFEF73BF9094B0948596853
:102AA000826F890D01F03D018C05DC600AB1C06FB9
:102AB0009047FEF715F9BDE81040FFF721BE00BFB3
:102AC0000064024090A80020000000000000000008
:102AD00010B5FDF77DFEFEF71BF9094B0948596853
:102AE000026F090C01F03D010C04DC600AB1406F7B
:102AF0009047FEF7F5F8BDE81040FFF701BE00BFB4
:102B00000064024090A800200000000000000000C7
:102B100010B5FDF75DFEFEF7FBF8094B0948596853
:102B2000826E890901F03D018C01DC600AB1C06E42
:102B30009047FEF7D5F8BDE81040FFF7E1BD00BFB4
:102B40000064024090A80020000000000000000087
:102B500008B5FDF73DFEFEF7DBF8084B084859685D
:102B6000026E01F03D01D9600AB1406E9047FEF758
:102B7000B7F8BDE80840FFF7C3BD00BF00640240DE
:102B800090A80020000000000000000000000000ED
:102B900010B5FDF71DFEFEF7BBF8094B0948196893
:102BA000826D890D01F03D018C059C600AB1C06DFC
:102BB0009047FEF795F8BDE81040FFF7A1BD00BFB4
:102BC0000064024090A80020000000000000000007
:102BD00010B5FDF7FDFDFEF79BF8094B0948196894
:102BE000026D090C01F03D010C049C600AB1406DBE
:102BF0009047FEF775F8BDE81040FFF781BD00BFB4
:102C00000064024090A800200000000000000000C6
:102C100010B5FDF7DDFDFEF77BF8094B0948196893
:102C2000826C890901F03D018C019C600AB1C06C85
:102C30009047FEF755F8BDE81040FFF761BD00BFB3
:102C40000064024090A80020000000000000000086
:102C500008B5FDF7BDFDFEF75BF8084B084819689D
:102C6000026C01F03D0199600AB1406C9047FEF79B
:102C700037F8BDE80840FFF743BD00BF00640240DD
:102C800090A80020000000000000000000000000EC
:102C900010B5FDF79DFDFEF73BF8094B0948596853
:102CA000826B890D01F03D018C05DC600AB1C06BBF
:102CB0009047FEF715F8BDE81040FFF721BD00BFB3
:102CC0000060024090A8002000000000000000000A
:102CD00010B5FDF77DFDFEF71BF8094B0948596853
:102CE000026B090C01F03D010C04DC600AB1406B81
:102CF0009047FDF7F5FFBDE81040FFF701BD00BFAD
:102D00000060024090A800200000000000000000C9
:102D100010B5FDF75DFDFDF7FBFF094B094859684C
:102D2000826A890901F03D018C01DC600AB1C06A48
:102D30009047FDF7D5FFBDE81040FFF7E1BC00BFAD
:102D40000060024090A80020000000000000000089
:102D500008B5FDF73DFDFDF7DBFF084B0848596856
:102D6000026A01F03D01D9600AB1406A9047FDF75F
:102D7000B7FFBDE80840FFF7C3BC00BF00600240DA
:102D800090A80020000000000000000000000000EB
:102D900010B5FDF71DFDFDF7BBFF094B094819688C
:102DA0008269890D01F03D018C059C600AB1C06902
:102DB0009047FDF795FFBDE81040FFF7A1BC00BFAD
:102DC0000060024090A80020000000000000000009
:102DD00010B5FDF7FDFCFDF79BFF094B094819688D
:102DE0000269090C01F03D010C049C600AB14069C4
:102DF0009047FDF775FFBDE81040FFF781BC00BFAD
:102E00000060024090A800200000000000000000C8
:102E100010B5FDF7DDFCFDF77BFF094B094819688C
:102E20008268890901F03D018C019C600AB1C0688B
:102E30009047FDF755FFBDE81040FFF761BC00BFAC
:102E40000060024090A80020000000000000000088
:102E500008B5FDF7BDFCFDF75BFF084B084A196894
:102E600001F03D01996013680BB150689847FDF778
:102E700037FFBDE80840FFF743BC00BF00600240D9
:102E800090A80020000000000000000000000000EA
:102E9000F8B528B321B304460D46202383F31188E7
:102EA000FDF7EEFCFDF7C4FF23785A1E012A04D972
:102EB00072B6554B554ADA62FEE7012B656032D097
:102EC0002B46A0681968B0FBF1F2013A92B202FBFE
:102ED0000111884209D072B64B4B4D4ADA62FEE7C7
:102EE00072B6494B494ADA62FEE7D868E1689E68E3
:102EF000002520F0FF0302200D604E608A620D6104
:102F0000CB602070FDF784FFFDF7A2FC3E4B1A68F2
:102F10009A4204D0996992688968914211D300233A
:102F200083F31188F8BD3B4B9C4256D03A4B9C42F0
:102F30003BD03A4B9C4220D0394B9C4205D0636831
:102F4000BFE772B6374ADA62FEE7374B374A196C89
:102F5000374841F004011964196A002641F0040160
:102F6000702519621E624FF0804182F81E5363681B
:102F7000C2F880111160A060A3E72B4B2B4A196C9B
:102F80002B4841F002011964196A002641F0020140
:102F9000702519621E624FF0005182F81D5363685C
:102FA000C2F880111160A0608BE71F4B1F4A196C9B
:102FB0001F4841F001011964196A002641F001011E
:102FC000702519621E624FF0805182F81C536368AD
:102FD000C2F880111160A06073E7134B134A596C5B
:102FE000144D41F001015964596A4FF000700027F7
:102FF00041F00101702659625F6282F81963C2F8DC
:1030000080011060A5609AE7D8BF0020B067000873
:103010001067000810A90020E8C70020F8BE0020B3
:1030200088C90020A06700080038024000E100E0E5
:1030300000BD0105007A030A000000000000000046
:1030400010B52023044683F31188FDF719FCFDF722
:10305000EFFEFDF7ADFC1248124B02681968E31D44
:1030600023F00703891A8B429DBF9B180360144607
:103070000024FDF7CDFEFDF7EBFB0B4B1A689A42DF
:1030800004D0996992688968914204D3002383F33C
:103090001188204610BD72B6044ADA62FEE700BF0E
:1030A000B41B0020B81B0020D8BF00209067000888
:1030B0002DE9F04F83B083460193D0F81C9017465A
:1030C000002A6ED08846202686F31188FDF7D8FBAB
:1030D000384CFDF7ADFE0025A246FDF769FCDBF894
:1030E00008305846002B3ED0DBF81420DBF80830BF
:1030F000511C013BCBF81410CBF8083098F8003085
:103100001370DBF81030DBF814209A4224BFDBF890
:103110000C30CBF81430B9F1000F00D0C847FDF7E0
:1031200077FEFDF795FB2368224AA34205D0DAF823
:1031300018109B68896899422FD3002383F3118864
:10314000013F05F1010508F1010822D086F311883D
:10315000FDF796FBFDF76CFEFDF72AFCDBF8083067
:103160005846002BC0D158460199FDF7E9FC0028CC
:10317000B3D0FDF74DFEFDF76BFB22680D4BA2426D
:1031800004D099699268896891420FD3002383F330
:103190001188284603B0BDE8F08F72B6064BD362A3
:1031A000FEE772B6034B054ADA62FEE772B6024AE0
:1031B000DA62FEE7D8BF00208067000830670008A9
:1031C0003030FFF775BF00BF0000000000000000B6
:1031D00030304FF0FF33FFF76BBF00BF000000003F
:1031E0000369C1689942024604D04168C85C013352
:1031F000136170476FF00100704700BF00000000CE
:10320000C36882689A4206D04268D154C3680133C9
:10321000C360002070476FF001007047000000009D
:10322000024AD36843F08003D3607047004C0040EB
:10323000836970B51A69DC681440E2B2D243A6070C
:1032400005461A6103D543681B6903B198476007B7
:1032500004D56B689B690BB128469847210704D5B4
:103260006B681B6A0BB128469847E20604D56B6869
:103270009B6A0BB128469847E30706D56B689B68A5
:103280001BB12846BDE87040184770BD0000000023
:103290000178C368002204291A6107D10221017054
:1032A0001A601A61DA6822F0FF02DA6043685B682C
:1032B000184700BF000000000000000000000000F0
:1032C00011F00C0F00D1704772B6024B024ADA625D
:1032D000FEE700BFD8BF00207067000800000000B4
:1032E00038B5054608462B69EC686968E41A9442CB
:1032F00028BF144619442246FDF712F82B692344CF
:103300002B61204638BD00BF000000000000000017
:1033100038B5C3688468E41A05469442406828BFFB
:10332000144618442246FCF7FBFFEB682344EB608D
:10333000204638BD00000000000000000000000032
:1033400008B5FDF745FAFDF7E3FC0448FFF770FF09
:10335000FDF7C6FCBDE80840FFF7D2B9981B002076
:1033600008B5FDF735FAFDF7D3FC0448FFF760FF19
:10337000FDF7B6FCBDE80840FFF7C2B9CCC7002096
:1033800008B5FDF725FAFDF7C3FC0448FFF750FF29
:10339000FDF7A6FCBDE80840FFF7B2B9CCC7002096
:1033A00008B5FDF715FAFDF7B3FC0448FFF770FF09
:1033B000FDF796FCBDE80840FFF7A2B988C90020D8
:1033C00008B5FDF705FAFDF7A3FC0448FFF760FF19
:1033D000FDF786FCBDE80840FFF792B9F8BE002073
:1033E00008B5FDF7F5F9FDF793FC0448FFF750FF2A
:1033F000FDF776FCBDE80840FFF782B9E8C700207A
:1034000008B5FDF7E5F9FDF783FC0448FFF740FF39
:10341000FDF766FCBDE80840FFF772B910A900206F
:103420002DE9F8437C4DFDF7D3F9FDF771FC6E6F84
:10343000D6F80C903368DF059CB200F1978020230A
:1034400083F31188FDF714FAFDF792FC14F02F0FA7
:1034500047D0DFF8C48107E0A00677681DD4346840
:10346000A4B214F02F0F3CD02007F5D014F0080FB1
:103470000CBF00218021E20748BF41F02001A307D3
:1034800048BF41F04001670748BF41F4807163487D
:10349000FDF796FBA0067768E1D5FDF789FAFDF701
:1034A00087FA6B698BB3FDF783FAFDF781FA2B6A14
:1034B0006A6A93422ED06A69591C01326A61296294
:1034C0001F702A6AEB699A4203D3D8F81830C8F8FB
:1034D0002030534801F0ECFA3468A4B214F02F0FF6
:1034E000C2D1FDF72DFCFDF7ABF9002383F3118862
:1034F00019F0800F01D022064FD4630613D4FDF7D4
:10350000EFFBBDE8F843FFF7FBB844480421FDF7A3
:1035100057FBC8E7D8F81420002ACCD03F488021B8
:10352000FDF74EFB9BE7202383F31188FDF7A0F9FD
:10353000FDF71EFCFDF73CFA6A6CAB6C36489A420C
:1035400053D04FF6BF7309EA03036FF04002F360F4
:103550003260FDF7F5FBFDF773F9002383F3118863
:10356000FDF7BEFBBDE8F843FFF7CAB8202383F39D
:103570001188FDF77DF9FDF7FBFB281D4FF4007165
:10358000FDF71EFB6FF480733360FDF7D9FBFDF789
:1035900057F9002383F3118851E7202383F311881F
:1035A000FDF766F9FDF7E4FBFDF702FAFDF700FA17
:1035B000AB6C6A6C18489A421FD0AA6B1649581C0B
:1035C0000132AA63A8641F782B6C984201D3CB6B9D
:1035D0008B64144801F06CFA7760FDF7B1FBFDF7DE
:1035E0002FF9002383F3118887E7836B002BA8D082
:1035F00004301021FDF7E4FAA3E7826B002ADCD047
:1036000004300821FDF7DCFA4FF63F7309EA0303A3
:1036100043F04003F360E0E7BC1B0020C01B002028
:10362000C81B0020EC1B0020000000000000000070
:1036300011F00C0F38B53AD1416A0B681A6822F0C4
:103640001F021A601A68D407FCD40D7A026A4C680B
:1036500013683D21A9402160196821F01F011960FC
:103660001968C907FCD4436851680446107A1A687F
:103670003D2383400B60FAB104232370204690471A
:103680002378042B18D0202383F31188FDF7F0F85A
:10369000FDF76EFB04F108000021FDF7E1FAFDF7EC
:1036A0004FFBFDF7CDF8002383F3118838BD72B6C8
:1036B000034B044ADA62FEE702232370E3E700BF0C
:1036C000D8BF002070670008000000000000000064
:1036D0002DE9F04F87B015460DF10D0303AA9B1A93
:1036E00081468A4601934FF000088B469BF80010F4
:1036F0000BF1010379B1252911D0D9F800209B469F
:103700009268484690479BF8001008F101080BF1B9
:1037100001030029EFD1404607B0BDE8F08F9BF8C8
:1037200001202D2A03BF9BF802200BF102034FF06A
:10373000010A4FF0000A302A03BF5A7801333027BC
:103740002027591C002606E02B7804359BF8002022
:1037500003EB40060131A2F13003DBB2092B8B46AB
:1037600006EB8600F2D92A2AEED02E2A4FF000016D
:1037700043D002F0DF034C2B4ED0A2F1440034289A
:1037800000F2F780DFE810F0EA00F500F500F50040
:10379000F500EA00F500F500F500F500F500E80099
:1037A000F500F500F500F500F500DD00F500F50089
:1037B000F200F500F500F500F500F500F500F50064
:1037C000F500F500F500A100EA00F500F500F500B0
:1037D000F500EA00F500F500F500F500F500E80059
:1037E000F500F500F5007100F500DD00F500F500CD
:1037F000F2002B78043503EB40011BF8012BA2F1FA
:103800003003DBB2092B01EB8100F4D92A2AF0D076
:1038100002F0DF034C2BB0D19BF80030002B00F0FE
:10382000A880A3F144020BF1010B342A00F2A0801E
:10383000DFE802F0949E9E9E9E949E9E9E9E9E9287
:103840009E9E9E9E9E879E9E9C9E9E9E9E9E9E9EB1
:103850009E9E9E4B949E9E9E9E949E9E9E9E9E92FB
:103860009E9E9E1B9E879E9E9C002C685A4B002C01
:1038700008BF1C4604352378002900F09480002BF3
:1038800000F096800139204601E0013903D410F898
:10389000013F002BF9D1001B361A431E202726EAD0
:1038A000E676BAF1000F1FD0002B009334DA002E19
:1038B0003FF41CAF3446D9F8003048469B6839467F
:1038C0009847013CF7D1B04410E72B688DF80C30D5
:1038D000019B043518462027013B03AC361A26EA23
:1038E000E676BAF1000FDFD10093C6F1000ABAF113
:1038F000000F45D021782D2947D05646D9F8003001
:1039000048469B68394698470136F7D1009B002B03
:10391000CAEB0808FFF6EAAEDDF800A0D9F80030DF
:1039200014F8011B9B680AF1FF3A48469847BAF120
:10393000FF3FF3D1009B08F10108002BA8BF98447A
:10394000B5E70A22296803A8043501F0F1F803ABB2
:10395000C01A431E03ACC1E70822F3E72968002917
:1039600005F104052EDB03A80A22EEE71022E9E7A1
:103970001A46019B8DF80C20184603AC013BADE7BD
:10398000009B002B5646C7DAB0E6302FB5D1D9F8E8
:10399000003048469B689847009B013B013408F182
:1039A00001080093A9E747F6FE71002B7FF46BAF87
:1039B00026EAE676BAF1000F0BD14FF0FF33009301
:1039C000202792E72D2349428DF80C300DF10D0090
:1039D000CAE720276BE700BFD0670008000000009F
:1039E0000EB400B582B003AA52F8041B0192FFF78F
:1039F0006FFE02B05DF804EB03B0704700000000FA
:103A0000002903DD19491A4AFFF7EABF10B5194921
:103A1000194A82B00446FFF7E3FF20461749184AC7
:103A2000FFF7DEFF20461749174AFFF7D9FF204668
:103A30001649174AFFF7D4FF20461649164AFFF7E2
:103A4000CFFF20461549164AFFF7CAFF2046154901
:103A5000154AFFF7C5FF154B009320461449154A38
:103A6000154BFFF7BDFF02B010BD00BFD8670008BF
:103A7000E4670008EC6700080068000808680008B0
:103A80001C680008646800087868000884680008FA
:103A900098680008A4680008B8680008D0680008A2
:103AA000E4680008106900082469000874690008C7
:103AB0004C69000864690008706900080000000093
:103AC0002C492D4B4FF080504FF4404208641A604F
:103AD0000B6843F001030B600A68264B9007FBD587
:103AE0009A6822F003029A609A689A6019468B6875
:103AF000204A13F00C03FAD1116801F0F9011160AA
:103B00009360136843F4803313601168194B890381
:103B1000FBD55A6F42F001025A675A6F1549900758
:103B2000FBD5164B4B600B68134A43F080730B6058
:103B300053685904FCD50F490A680E4B9201FBD516
:103B40000F4A1049996040F2057111609A6842F07D
:103B500002029A601A469368064903F00C03082B88
:103B6000F9D14B6C43F480434B644B6E43F4804378
:103B70004B66704700380240007000400854400710
:103B8000003C024000948838000000000000000063
:103B90002DE9F043764B04689B69764A476876497D
:103BA0009A6199B02046FFF71BFF08AE2046734983
:103BB000FFF716FF3546236820465B680DF10701C5
:103BC0000122984780B39DF80710042928D00829BE
:103BD00012D07F2910D00D290DF15F0339D01F2994
:103BE000E9D99D42E7D2236820469B6898479DF813
:103BF00007302B700135DEE7B5424FF00801204653
:103C0000D9D023689B689847236820469B68202169
:103C10009847236820469B680821013D9847CAE7DA
:103C200020465749FFF7DCFE20465649FFF7D8FEED
:103C3000202383F31188FCF723FEFDF7F9F8002118
:103C40005148FCF7BDFF0020FDF722F819B0BDE890
:103C5000F0834E492046FFF7C3FE002302A92B70D4
:103C600030461D4600F044FF02A9814600200DF1B8
:103C70000C0800F03DFF50B1042D1DD048F8040B96
:103C800002A90020013500F033FF0028F4D118AB61
:103C900003EB850343F8540CB9F1000F86D0484676
:103CA0003B49FCF7E1FB70B9002DC1D020463949F2
:103CB000374AFFF795FE79E720463749FFF790FE30
:103CC0000023079372E748463449FCF7CDFB30B92F
:103CD0002046BDB12F49314AFFF782FE66E7DFF883
:103CE000C8802F4802E058F8080F48B34946FCF74F
:103CF000BBFB0028F7D1D8F80430294603AA204698
:103D0000984753E72749284DFFF76AFE244A274979
:103D10002046FFF765FE55F8082F002AF7D157B166
:103D20003A6842B13D4620462049FFF759FE55F812
:103D3000082F002AF7D120461449FFF751FE35E736
:103D400067B1386850B1B84602E058F8080F28B19A
:103D50004946FCF789FB0028F7D1CCE74A462046C4
:103D60001349FFF73DFE20461249FFF739FE1DE7D4
:103D7000D8BF00208069000888690008A069000891
:103D8000A8690008FC690008240A0020EC6B000800
:103D9000C4690008D8670008AC690008CC6900084D
:103DA000E4670008D4690008206A0008EC6900088C
:103DB000F0690008F469000800000000000000003D
:103DC000002903DD1449154AFFF70ABE38B5044639
:103DD000202383F31188FCF753FDFDF729F8104BDE
:103DE0005D6AFDF715F8FCF733FD0E4B1968994233
:103DF00004D098698A688168914209D3002383F3CB
:103E00001188094920462A46BDE83840FFF7E8BD39
:103E100072B6064ADA62FEE7D8670008086A000848
:103E2000000C0040D8BF0020106A0008C0670008DE
:103E300011680A789AB3002303EB830302EB430370
:103E400011F8012F303B9BB2002AF5D107EE903AD2
:103E50009FED147AF8EE677A67EE877A124BDFED02
:103E6000136A1B6893ED027A77EE677AF4EEE67ACE
:103E7000F1EE10FA00DA70479FED0D7AC3ED027A89
:103E800027EE877AC3ED077AFDEEC77A82B0CDEDD3
:103E9000017A9DF90420074902B0FFF7A1BDDFEDCB
:103EA000067ADBE70AD7233CAC9D0020666666BF36
:103EB0000000C842D06B00080000000000000000B5
:103EC00011680A789AB3002303EB830302EB4303E0
:103ED00011F8012F303B9BB2002AF5D107EE903A42
:103EE0009FED147AF8EE677A67EE877A124B9FEDB2
:103EF000137A1B68D3ED026A77EEA67AF4EEC77ADE
:103F0000F1EE10FA00D970479FED0D7AC3ED027AF9
:103F100027EE877AC3ED077AFDEEC77A82B0CDED42
:103F2000017A9DF90420074902B0FFF759BDDFED82
:103F3000067ADBE70AD7233CAC9D00206666663F25
:103F40000000C842D06B0008000000000000000024
:103F50000149FFF745BD00BFE46B00080000000009
:103F6000F8B5284B284D2949DFF8BCE0DFF8BCC084
:103F7000274E044618461A6955F8047F002A38DB94
:103F80001A6842F480621A601A6922F480721A6117
:103F90001A6942F400721A61DA68D203FCD4026929
:103FA00042F0010202610F60DA68D203FCD40269B8
:103FB00022F001020261026942F000420261043112
:103FC000B142D8D11349144D144E2046FFF708FDD5
:103FD00042F21070FDF724F920461149FFF700FD69
:103FE00055F8042F0F492046FFF7FAFCB542F7D1E8
:103FF000F8BDC3F804E0C3F804C01A69002ABFDAA8
:10400000DDE700BF003C02409C6C00080000010896
:1040100020000108F06B0008FCFF00081C000108EC
:10402000046C00081C6C000823016745AB89EFCDC8
:1040300010B582B002AC074B04F8010D4FF40042FA
:104040001A8301F0B5F8204601F022F901F0E8F8F2
:1040500002B010BD0010024000000000000000008F
:1040600010B582B002AC074B04F8010D4FF40042CA
:104070005A8301F09DF8204601F00AF901F0D0F8CA
:1040800002B010BD0010024000000000000000005F
:10409000D74BD84C1A694FF0FF3100222DE98048E8
:1040A00019611A61586959615A61186A60F0805043
:1040B00018621A62586A59625A62196C41F080514A
:1040C0001964216841F480712160196F01F4407115
:1040D000B1F5007F8BB003D04FF4803119671A67B8
:1040E000C448C54C4368C54EC54D002123F4007338
:1040F00043600A460B462160B058016045F8331012
:104100000133102B02F10C024FF00004F4D1DFF860
:104110001C83BC4AB64FDFF818C3DFF818B3DFF8CA
:1041200018E3B948DFF814A3B849DFF81493B84D81
:104130004FF0FF36C8F80860C8F80C609660D6608B
:104140003A6B6FEA52226FEA42223A633A6D6FEAA3
:1041500052226FEA42223A656FF4A842CCF804403A
:10416000CCF80820CCF80CB00BF1AA5B0BF5883B1F
:104170004FF6FF720BF5887BCCF81420CCF820B0FA
:10418000DFF8C0B2CCF824B0DFF8BCB2CCF800B095
:104190004FF4107CDFF8B4B2CEF804C0CEF808605B
:1041A000CEF80CB0DFF8A8B2CEF81420CEF820B0CC
:1041B000DFF8A0B2CEF824B0DFF89CB2CEF800B0A1
:1041C000DFF898B244608660C0F80CB04FF04C5BEA
:1041D0004261C0F820B048F6330BC0F824B0DFF8D5
:1041E00080B2C0F800B0DFF87CB2CAF80440CAF868
:1041F0000860CAF80CB040F6FF7BA8F59848DFF8D5
:1042000068C2CAF814B00EF5C05E00F5C050DFF801
:104210005CB2CAF82040CAF82440CAF800B0DFF8FF
:1042200050A2C9F80440C9F80860C9F80C40C9F8A0
:104230001420C9F82040C9F82430C9F800A0C8F8F3
:104240000440C8F80860C8F80C40C8F81420C8F842
:104250002040C8F82440C8F80040CCF80440CCF80E
:104260000860CCF80C40CCF81420CCF82040CCF8F6
:104270002440CCF80040CEF80440CEF80860CEF8D8
:104280000C40CEF81420CEF82040CEF82440CEF8D2
:10429000004044608660C460426104624C604462D5
:1042A0004C61046055485B4A4A63024648320A63DF
:1042B00001F10C02DFF8BCB1CA600A6101220A7088
:1042C000DFF8B491C862CC615349DFF8B0A1CBF8F4
:1042D0000C104FF08041C9F80C1001F58061DFF837
:1042E000A0C1CAF80C104D484D49DFF898E18BF891
:1042F000002089F80020A846CBF80440C9F8044003
:10430000DFF884B18AF800204FF006098CF800200D
:10431000C8608CF81090CCF818B0CAF8044000F5CA
:104320009C304FF0020ACCF80440CCF80C40DFF887
:104330005C91DFF85CC10A708EF800208EF810A046
:104340004C60CEF804403749CEF80C4005F1740AB1
:10435000CEF8180048F8049B2848DFF83891ACF8EC
:104360000060DFF834E1C5F840A005F10C0C05F160
:10437000540AC5F84C9005F1640900F1300BC5F8FA
:1043800074E0C5F8048005F1300E00F12408C5F88A
:104390000CC0C5F810C0C5F818A0DFF800C1C5F8FA
:1043A00024A0C5F820A0C5F81C9001F10C0AC5F89E
:1043B0003C90C5F84890C5F844901B48DFF8E09061
:1043C0000A702A72C861C1F82080C1F824B0C1F80F
:1043D00028C0C1F80CA0C1F810A06C61C5F830E08D
:1043E000AB63C5F834E04C608C604C615AE000BFB0
:1043F000003802400070004048BC0020E06A00081D
:1044000090A800200064024000080240A0C90020DB
:10441000BC1B002000540040000001400008004088
:1044200088C9002000BE0020003800400060024023
:10443000000002400000154000040240000C024051
:104440000010024070A70A00A8AAA82A15405155DA
:10445000000022224400555580AA0AAA540540545F
:1044600001A0AA02555055AA0018024000010055AB
:104470004028085010A90020E8C70020F8BE0020FE
:10448000CCC70020981B002000040140706A00087F
:10449000D0AA002021320008004C00401600010084
:1044A00046000100AC62ED622D65C1F82C90D7F892
:1044B0004080DFF884B3C349DFF880E3DFF88093FE
:1044C000DFF880A3C048DFF880C348F00808C7F8C9
:1044D0004080DBF8088048F00808CBF8088042F2FA
:1044E000CF08C1F828804FF0800B4FF48028CE62AF
:1044F0008C614C63CC604C604A610A60039289F81D
:1045000032B3C9F88481C9F80480CEF80840DEF8D7
:104510000CB0DFF8E8824FF6FF010BEA010141EA37
:104520000A0ACEF80CA0C168C8F8048041F0807176
:10453000C160DCF80000C8F808401043CCF8000067
:1045400008F11C018EF81F304FF0000A4FF0000BED
:104550004FF0200304A88EF82230C8F81C10C8F8C9
:104560002460C8F81080C8F80080C8F81480C8F823
:104570002840C8F820100496C8F8A0440594069472
:104580000794CDE908ABFCF76BF904A8FCF730F908
:1045900008F5986ECEE900AB08F59B6ECEE900AB4E
:1045A0008A488B498B4BD8F814C0039AC8F8B0647A
:1045B00008F1400EC8F83CE0DFF890E2C8F8C864A3
:1045C00020F0070021F007010291CEF800000699C3
:1045D0008148C8F8A0140299016003F110007F49D6
:1045E000196018614021586108F5886088F86224D4
:1045F0009C60DC609C6108F58D6E794BC8F8A8441E
:10460000C8F8AC44C8F8B444C8F8B844C8F8BC44C6
:10461000C8F8CC44C8F8D044C8F8D44488F86144F9
:10462000C8F87C44C8F87844C8F85844C8F850849E
:10463000C8F83810C8F84814C8F88014C8F854C42A
:1046400008F59361CCF81000C8F8886408F26C464D
:10465000C8F81400C8F81800C8F85C3408F5916070
:10466000C8F88C44C8F89044C8F8944488F860248A
:10467000C8F868E4C1E900ABC8F86C64C8F87064B5
:104680000292FCF7EDF8D8F830301BB9D8F8343086
:10469000029A23B172B6534BC8F82C30FEE783F36D
:1046A000118862B6D8F818104F488861009308F551
:1046B0009C604FF4C0714D4BFCF7E2FD4C4B8361A5
:1046C000202383F31188FCF7DBF8FCF7B1FB2B7A8E
:1046D0005A1E012A04D972B6464BC8F82C30FEE7A0
:1046E000012B0CD13B6C4FF48012C02143F400230A
:1046F0003B6489F83413C9F88421C9F804206B6F2E
:104700003D4A934256D002F58062934252D041F224
:1047100017129A6042F22C1044F240020021012448
:104720001A615C610222D860196019685B682A729C
:10473000FCF76EFBFCF78CF8D8F800202F4B4245B5
:1047400004D0996992688968914237D3002484F330
:1047500011882B4A2B4B2C4900932C4811602C4B71
:104760004FF4AE614022FCF78BFD2A4B00944FF4CE
:10477000D87140222848FCF783FD284B009448F26A
:10478000701145222648FCF77BFD264B009441F230
:1047900070113B222448FCF773FD00942348244BFE
:1047A00041F270114122FCF76BFD41F28830FCF7B9
:1047B00037FDFAE742F22E229A60ABE772B61D4A45
:1047C000DA62FEE7000C0040F0ED00E06FCB002065
:1047D0000000022050BC0020B81B0020413000081F
:1047E00000040020286C0008B06B0008C107000816
:1047F000306C0008A06B000800100140D8BF0020FA
:10480000AC9D0020906C00083C080020B09D00206A
:10481000913B0008B114000820A900209120000855
:10482000381C002071150008D8AA0020280A002092
:1048300051480008906A0008002004E000ED00E004
:1048400000E100E00003FA05001000E0B41B0020C6
:1048500080B54E4D4E49AB694E4A996182B00024F5
:104860004D4900944D4B11604D484FF4AE614522C7
:10487000FCF706FD202383F31188FCF701F8FCF711
:10488000D7FA484B1A78511E012903D972B6464B04
:10489000EB62FEE745495960012A4FF47A6199605D
:1048A00019D09A69146054639463D4631464546295
:1048B00058693F4B3B4AA3FB00135B0E5C1EB4F5EB
:1048C000803F04D23B4901FB03F3984228D072B6E3
:1048D000394BEB62FEE73949394F486C9E695F619D
:1048E00040F002004864486A364A4FF0700C4FF4BA
:1048F00080584FF4804E46F6680740F00200486248
:104900004C6282F82CC3C2F88481C2F8048082F819
:104910002EC3C2F884E1C2F804E0B761F761C7E7CB
:1049200091689369481E41F2111C00214FF0010E5D
:104930004FF4004785269C62D86202245960C3F870
:1049400020C0C3F814E01961D9605F641E60D160B3
:104950001470FCF75DFAFBF77BFF2A680B4BAA4249
:1049600004D099699268896891420AD3002383F33D
:10497000118800F08DF900F08BF9C820FCF750FC8D
:10498000F9E772B6104ADA62FEE700BFD8BF00202E
:10499000386C0008A89D00203C08002061530008E6
:1049A00020A30020CCC70020406A0008A06A0008AD
:1049B00029D9426600BD0105606A0008003802403E
:1049C000007A030A00E100E0506A000800000000DD
:1049D00003684279D9684B6A10B49BB28468A2B16B
:1049E00082899A1A22444FF22F54A3428260838113
:1049F0000ED840F6CE22934204D803F5EA43303372
:104A00004B6283815DF8044B70478289D21AE9E7D3
:104A1000A3F5EA43303B4B625DF8044B838170475A
:104A200008B5094B094A9B69094D0A4C9A61EB6824
:104A30004FF4FA60596BDA6B1B6C21806280A380A3
:104A4000FCF7EEFBF3E700BFD8BF0020906D000835
:104A5000E8C7002098C90020000000000000000006
:104A600038B50568114904462846FEF711FAEB6887
:104A70009A6942F001029A619A6942F480729A61DD
:104A80009A6942F080029A619A6942F400429A61FE
:104A90009A6847F6FF7142F003029A6059621A68F9
:104AA000A18142F001021A6038BD00BF706D00089C
:104AB0000368984210D01A68026093F82010506082
:104AC000042904D072B6054B054ADA62FEE70022DB
:104AD0005A621846FCF74CB8704700BFD8BF002098
:104AE000506D000800000000000000000000000001
:104AF00038B50D46044690B1286020460B4900F0B9
:104B00009FFC04442046094900F072FC60B1421C3D
:104B100000232A600370237823B1204638BD0C6837
:104B2000002CEAD1002038BD2860F4E7A06D000811
:104B3000F0B400F10B073C460D46B1FBF2F602FB68
:104B4000161101F13003392BC8BF01F13703DBB275
:104B500004F8013DB5FBF2F53146002DEDD13A1BCD
:104B6000024401E014F8013F00F8013B9042F9D102
:104B7000F0BC7047000000000000000000000000D2
:104B80000CB42DE9F047C6B04EAA06AC52F8043B6F
:104B9000364F009200260D4601A81946FF230197C3
:104BA0000393029404960596FEF792FD049B304908
:104BB000304ADFF8D0E0304FB1F80090B2F8008012
:104BC000FE2B98BFE6542D4B2D4EB3F800C0224665
:104BD0000521002413783BB35B2B2CD05D2B31D007
:104BE0000D2B26D00A2B24D0142922D80A2D20D808
:104BF0005C2B32D001EB810005EB4000002C14BF90
:104C0000CA46C246142902F101020EF8003026F805
:104C100010C027F810A01CD00131C9B213780A2D9A
:104C200028BF0025002BD7D146B0BDE8F04702B021
:104C300070470132CEE712F8010C5C28D4D0013263
:104C40000124C7E712F8010C5C28CDD00132002402
:104C5000C0E70135EDB20021E0E750785B2801D0D4
:104C60005D28C7D101320346C4E700BF006E0008CB
:104C70009EC90020D0BF0020F8C70020C8C7002070
:104C800070BC002030BE00200000000000000000CA
:104C90002DE9F041414B9A7993ED027A82B00AB145
:104CA000B1EE477A3D4A997E83ED037AD2ED077AD9
:104CB00009B1F1EE677AB5EEC07AF1EE10FAC3ED04
:104CC000087A68DDDFED366A67EE266AFCEEE66A92
:104CD000CDED016ABDF804201546B5EEC07AF1EEBF
:104CE00010FA1A824BD400263246F5EEC07AF1EE65
:104CF00010FA5A8240DD9FED2A7A27EE877ABCEEC1
:104D0000C77A8DED017ABDF804201746F5EEC07A1A
:104D1000F1EE10FA9A8423D44FF0000E7246214926
:104D20005C7993F804C0187E93F819808969DA8455
:104D30000CF10C0C04F10C0200F10C0308F10C0452
:104D400001EB8C0001EB820201EB830301EB840198
:104D5000456056605F60C1F804E002B0BDE8F081D4
:104D60009FED0F7A67EEC77AFCEEE77ACDED017A18
:104D7000BDF804209646D2E700273A46C6E7DFEDA5
:104D8000086A27EE667ABCEEC77A8DED017ABDF827
:104D900004201646A9E700252A469EE73C08002085
:104DA00000007A45CCC70020000000000000000091
:104DB0002DE9F0418600331801EB43030246184CFD
:104DC0001848C55CE05CA84213D0174F174837F865
:104DD00013E0DFF860C0164F30F813800120324432
:104DE00001EB4201655427F811E02CF81180BDE871
:104DF000F0810F4FDFF830E037F813003EF813E092
:104E0000DFF830C07045094830F8138001D0012028
:104E1000E5E73CF81300B0EB080018BF0120DEE71F
:104E200008BF002030BE0020F8C7002070BC002062
:104E300038C60020D8C90020000000000000000093
:104E4000F8B507462A200D4616461C46FFF708F916
:104E50000020FFF7EDF83846FFF7EAF80020FFF7EB
:104E6000E7F83046FFF7E4F82B20FFF7F9F80020C9
:104E7000FFF7DEF82846FFF7DBF80020FFF7D8F849
:104E80002046FFF7D5F82C20BDE8F840FFF7E8B83A
:104E90002DE9F047354C2023D4F8188083F311888E
:104EA000FBF7EEFCFBF7C4FFD8F83C3033B19A684F
:104EB000904507D072B62E4BE362FEE772B62C4BDC
:104EC000E362FEE72B4D05F10C094B4503D072B6AA
:104ED000274BE362FEE7AE69C8F83C60FBF720FDB4
:104EE000EF684F453AD0D8F840A05EB1FBF718FD07
:104EF00033689E4203D09B689A4538BF9A46F6684D
:104F0000002EF3D13B68FA6BC8F808A03846EB6076
:104F1000C3F80490AA61C7F83C906F61FBF728FEC4
:104F2000FBF7FEFCFBF744FDA269236892689B68CF
:104F30009A4201D2FBF7ACFCFBF76AFFFBF788FC57
:104F400022680A4BA24204D099699268896891420A
:104F500007D3002383F31188BDE8F08700236B613A
:104F6000EAE772B6044ADA62FEE700BFD8BF002063
:104F7000D06D0008A0C90020E06C0008000000000F
:104F80002DE9F04759B150B103B142B1594C2578E0
:104F9000022D09D072B6584B584ADA62FEE772B653
:104FA000554B564ADA62FEE71E468846174681464A
:104FB000202383F31188504DFBF762FCFBF738FF89
:104FC00003220021D0232270A1602384D4F834A0CE
:104FD000FBF71EFFFBF73CFC2A68AA4204D0AB6932
:104FE00092689B68934256D3002383F31188226B07
:104FF000E36A11681A68D4F824E0A36A40480B6099
:10500000C1F80C90C1F80480C2F800E0D760566087
:10501000D0F82490DFF8E0800646202787F3118837
:10502000FBF72EFCFBF704FFDAF81830990703D4DE
:10503000DAF800309A0532D5736AC9EB0303B3F589
:10504000FA7F11D2FBF7E4FEFBF702FC2A682A493B
:10505000AA4205D0D8F8183092689B68934241D391
:10506000002383F31188D9E7052323704FF0FF361F
:10507000FBF7CEFEFBF7ECFB2A681F4BAA4204D0DD
:10508000996992688968914230D3002383F311882B
:105090003046BDE8F08772B61A4BEB62FEE7DAF8ED
:1050A0000430E069AA691449124F43F40073CAF846
:1050B0000430DAF8003043F48073CAF8003018B1D5
:1050C00072B6114BCB62FEE73B46032043F81C2F20
:1050D0000A215362FBF77CFC431C0646C4D0022322
:1050E0003B70C5E772B6074BCB62FEE772B6074A64
:1050F000DA62FEE7A0C90020D8BF0020306D0008AA
:10510000000C0040106D0008E06D0008F06C000815
:1051100030B5044683B00C480D46FBF7D1FF02A81A
:105120002A4600F8014D01210623FFF729FF044616
:1051300020B9FFF7ADFE204603B030BDFFF7A8FE53
:10514000012003B030BD00BFACC90020000000004A
:1051500010B582B08DF804000A488DF80510FBF7F1
:10516000AFFF0022134601A80221FFF709FF044602
:1051700020B9FFF78DFE204602B010BDFFF788FE74
:105180000120F9E7ACC90020000000000000000089
:1051900008B509211920FFF7DBFF1A200321BDE81C
:1051A0000840FFF7D5BF00BF00000000000000006E
:1051B00008B5202383F31188FBF762FBFBF738FE69
:1051C000124B1A78022A04D072B6114B114ADA62D5
:1051D000FEE75B6819895A6801238B409BB25383B1
:1051E000FBF716FEFBF734FB094B1A689A4204D012
:1051F000996992688968914203D3002383F31188E7
:1052000008BD72B6044ADA62FEE700BF00BE0020A5
:10521000D8BF0020C06C0008006D0008000000002E
:1052200008B5202383F31188FBF72AFBFBF700FE68
:10523000124B1A78022A04D072B6114B114ADA6264
:10524000FEE75B6819895A6801238B409BB2138380
:10525000FBF7DEFDFBF7FCFA094B1A689A4204D013
:10526000996992688968914203D3002383F3118876
:1052700008BD72B6044ADA62FEE700BF00BE002035
:10528000D8BF0020D06C0008006D000800000000AE
:10529000F8B5C0B10646202383F31188FBF7F0FA76
:1052A000FBF7C6FD284B1A78022A04D072B6274BAA
:1052B000274ADA62FEE75A6812684AB172B6234B8F
:1052C000234ADA62FEE772B6204B214ADA62FEE731
:1052D000196A5A6A0968DC6A12681E489F6AC860BF
:1052E000012544F4806403204D6018700F60D6607F
:1052F000556014600D68154C9F68A66945F001055E
:105300000D60116841F0010111601FB172B6124BBE
:10531000E362FEE743F8086F7362FBF711FBFBF7EC
:1053200077FDFBF795FA2368A34204D0A2699B6836
:1053300092689A4203D3002383F31188F8BD72B6B2
:10534000064BE362FEE700BF00BE0020D8BF00208E
:10535000B06D0008CAC70020206D0008006D00086D
:105360001D4E1E4AB3691E481E4C80B59A61FFF758
:1053700077FB1D48FFF774FB3746656A06E0656AF0
:105380001748FFF725FB1848FFF722FB636AC8356B
:10539000AB42F4D2202383F31188FBF771FAFBF7B9
:1053A00047FD636AE91A02D00820FBF711FBFBF7FF
:1053B0002FFDFBF74DFA3368074AB34204D0B969B1
:1053C0009B688968994203D3002383F31188D7E748
:1053D00072B6064BD362FEE7D8BF0020A46D00086A
:1053E0001C080020000C00402C080020C06D0008A4
:1053F00030B40478ECB10D78ADB1AC420ED00A46B1
:1054000001E09C4209D012F8013F002BF9D110F8BD
:10541000014F002CF0D1157800E02546002D08BF83
:10542000002030BC704710F8014F0A46002CE3D131
:10543000F1E7204630BC704700000000000000008B
:1054400070B40478A4B10E7805464EB1B4420AD0C7
:105450000A4601E09C4206D012F8013F002BF9D128
:10546000281A70BC704715F8014F002CEDD1F7E7F2
:105470002046F6E7000000000000000000000000E9
:1054800073745374617274416C61726D000000003A
:1054900063684576745369676E616C49000000006B
:1054A00063684D74784C6F636B530000000000001C
:1054B00063685363685265616479490000000000C5
:1054C0006368546864457869745300000000000004
:1054D0006368546864437265617465490000000044
:1054E000737461636B206F766572666C6F77000012
:1054F0005356233131000000535623313000000051
:105500005356233900000000535623380000000092
:105510005356233700000000535623360000000086
:10552000535623350000000053562334000000007A
:10553000636845767442726F616463617374466C2C
:1055400061677349000000000000000000000000D7
:10555000746E000868CB002068CB002068CB002068
:10556000746E0008000000200000002000000020F1
:10557000746E000800C0012000C0012000C001209E
:10558000746E000800000000000000000000000031
:10559000746E0008000000100000001000000010F1
:1055A000746E00080040024000400240004002408B
:1055B000746E000800000000000000000000000001
:1055C000746E0008000000000000000000000000F1
:1055D00063685654446F536574490000000000002E
:1055E000636849515265616454696D656F757400F3
:1055F000636853636857616B657570530000000002
:105600006368546864526573756D654900000000F5
:105610007370695F6C6C645F737461727400000016
:10562000000000000000000000000000000000007A
:1056300000007E81A58181BD9981817E00000000EE
:1056400000007EFFDBFFFFC3E7FFFF7E00000000DE
:10565000000000006CFEFEFEFE7C38100000000022
:105660000000000010387CFE7C38100000000000B4
:10567000000000183C3CE7E7E718183C0000000079
:10568000000000183C7EFFFF7E18183C0000000060
:10569000000000000000183C3C1800000000000062
:1056A000FFFFFFFFFFFFE7C3C3E7FFFFFFFFFFFFB2
:1056B00000000000003C664242663C000000000022
:1056C000FFFFFFFFFFC399BDBD99C3FFFFFFFFFFB2
:1056D00000001E0E1A3278CCCCCCCC780000000032
:1056E00000003C666666663C187E181800000000E4
:1056F00000003F333F3030303070F0E000000000F9
:1057000000007F637F6363636367E7E6C0000000B8
:105710000000001818DB3CE73CDB18180000000014
:105720000080C0E0F0F8FEF8F0E0C080000000006B
:105730000002060E1E3EFE3E1E0E06020000000087
:105740000000183C7E1818187E3C1800000000006D
:1057500000006666666666666600666600000000B3
:1057600000007FDBDBDB7B1B1B1B1B1B0000000027
:10577000007CC660386CC6C66C380CC67C00000065
:105780000000000000000000FEFEFEFE0000000021
:105790000000183C7E1818187E3C187E000000009F
:1057A0000000183C7E18181818181818000000007F
:1057B0000000181818181818187E3C18000000006F
:1057C0000000000000180CFE0C1800000000000093
:1057D00000000000003060FE6030000000000000AB
:1057E000000000000000C0C0C0FE0000000000007B
:1057F0000000000000286CFE6C2800000000000083
:10580000000000001038387C7CFEFE000000000024
:1058100000000000FEFE7C7C383810000000000014
:105820000000000000000000000000000000000078
:105830000000183C3C3C1818180018180000000024
:105840000066666624000000000000000000000002
:105850000000006C6CFE6C6C6CFE6C6C0000000058
:1058600018187CC6C2C07C060686C67C18180000C4
:1058700000000000C2C60C183060C68600000000A0
:105880000000386C6C3876DCCCCCCC7600000000A4
:105890000030303060000000000000000000000018
:1058A00000000C18303030303030180C0000000090
:1058B000000030180C0C0C0C0C0C18300000000010
:1058C0000000000000663CFF3C6600000000000095
:1058D000000000000018187E1818000000000000EA
:1058E0000000000000000000001818183000000040
:1058F00000000000000000FE0000000000000000AA
:105900000000000000000000000018180000000067
:105910000000000002060C183060C080000000008B
:105920000000386CC6C6D6D6C6C66C38000000006B
:1059300000001838781818181818187E0000000091
:1059400000007CC6060C183060C0C6FE00000000D7
:1059500000007CC606063C060606C67C0000000069
:1059600000000C1C3C6CCCFE0C0C0C1E000000005B
:105970000000FEC0C0C0FC060606C67C0000000099
:1059800000003860C0C0FCC6C6C6C67C000000006F
:105990000000FEC606060C18303030300000000053
:1059A00000007CC6C6C67CC6C6C6C67C0000000019
:1059B00000007CC6C6C67E0606060C780000000005
:1059C0000000000018180000001818000000000077
:1059D0000000000018180000001818300000000037
:1059E000000000060C18306030180C0600000000A3
:1059F00000000000007E00007E00000000000000AB
:105A00000000006030180C060C1830600000000028
:105A100000007CC6C60C18181800181800000000FA
:105A20000000007CC6C6DEDEDEDCC07C00000000BC
:105A3000000010386CC6C6FEC6C6C6C60000000010
:105A40000000FC6666667C66666666FC0000000018
:105A500000003C66C2C0C0C0C0C2663C000000007E
:105A60000000F86C6666666666666CF8000000000A
:105A70000000FE6662687868606266FE00000000F2
:105A80000000FE6662687868606060F000000000F8
:105A900000003C66C2C0C0DEC6C6663A0000000018
:105AA0000000C6C6C6C6FEC6C6C6C6C60000000002
:105AB00000003C18181818181818183C00000000AE
:105AC00000001E0C0C0C0C0CCCCCCC7800000000A0
:105AD0000000E666666C78786C6666E6000000009A
