:020000040800F2
:1000000000040020C10100082159000821590008FE
:1000100021590008215900082159000821590008D8
:10002000215900082159000821590008012B000816
:1000300021590008215900082159000821590008B8
:1000400021590008215900082159000821590008A8
:100050002159000821590008215900082159000898
:100060002159000821590008215900085130000881
:1000700011300008D12F0008912F0008512F0008DF
:10008000112F0008D12E000821590008215900081D
:100090002159000821590008215900082159000858
:1000A0007112000831130008215900082159000875
:1000B00011130008F1120008D112000811170008EE
:1000C000111600082159000821590008215900087B
:1000D000215900082159000851150008215900082C
:1000E0002159000821590008215900082159000808
:1000F000B11200082159000891120008912E000841
:100100002159000821590008B11800082159000898
:10011000311500082159000821590008215900080B
:10012000512E0008112E0008D12D0008912D000835
:10013000512D0008215900082159000821590008B3
:1001400021590008215900082159000821590008A7
:10015000112D0008D12C0008912C0008215900080D
:100160002159000821590008215900082159000887
:100170002159000821590008215900082159000877
:100180002159000821590008215900082159000867
:100190002159000821590008215900082159000857
:1001A0002159000821590008215900082159000847
:1001B0002159000821590008215900082159000837
:1001C00072B6344880F3098840F20000CCF2000097
:1001D0004EF63471CEF200010860BFF34F8FBFF3CB
:1001E0006F8F40F20000C0F2F0004EF68851CEF260
:1001F00000010860BFF34F8FBFF36F8F4FF0000017
:10020000E1EE100A4EF63C71CEF2000108600620C5
:1002100080F31488BFF36F8F05F0C2FB01F0C8FBB9
:100220001D481E491E4A91423CBF41F8040BFAE7A3
:100230001C49184A91423CBF41F8040BFAE71A499D
:100240001A4A1B4B9A423EBF51F8040B42F8040B6A
:10025000F8E700201749184A91423CBF41F8040BC7
:10026000FAE705F065FB05F093FB144C144DAC4226
:1002700003DA54F8041B8847F9E701F0F9FF114C41
:10028000114DAC4203DA54F8041B8847F9E705F036
:1002900077BB000000080020555555550000002090
:1002A0000004002000040020208E00080008002028
:1002B0008C08002090080020B0F00020C001000849
:1002C000C0010008C0010008C001000800000000D3
:1002D0002DE9F04F2DED108AC1F80CD0C3689D4672
:1002E000BDEC108ABDE8F08F05F01AF904F088FE25
:1002F000002383F311882846A047002005F0D0F999
:1003000004F096FE05F01CF904F0DAFE05F008F999
:1003100004F076FE00DFFEE70000000000000000B1
:1003200081F0004102E000BF83F0004330B54FEAA6
:1003300041044FEA430594EA050F08BF90EA020F13
:100340001FBF54EA000C55EA020C7FEA645C7FEAA6
:10035000655C00F0E2804FEA5454D4EB5555B8BFC9
:100360006D420CDD2C4480EA020281EA030382EA3A
:10037000000083EA010180EA020281EA0303362DCC
:1003800088BF30BD11F0004F4FEA01314FF4801C9F
:100390004CEA113102D0404261EB410113F0004FB1
:1003A0004FEA03334CEA133302D0524263EB430368
:1003B00094EA050F00F0A780A4F10104D5F1200E06
:1003C0000DDB02FA0EFC22FA05F2801841F1000161
:1003D00003FA0EF2801843FA05F359410EE0A5F135
:1003E00020050EF1200E012A03FA0EFC28BF4CF066
:1003F000020C43FA05F3C01851EBE37101F000451C
:1004000007D54FF0000EDCF1000C7EEB00006EEB28
:100410000101B1F5801F1BD3B1F5001F0CD34908B2
:100420005FEA30004FEA3C0C04F101044FEA445209
:1004300012F5800F80F09A80BCF1004F08BF5FEA90
:10044000500C50F1000041EB045141EA050130BD70
:100450005FEA4C0C404141EB010111F4801FA4F113
:100460000104E9D191F0000F04BF01460020B1FA68
:1004700081F308BF2033A3F10B03B3F120020CDAA0
:100480000C3208DD02F1140CC2F10C0201FA0CF07E
:1004900021FA02F10CE002F11402D8BFC2F1200CE3
:1004A00001FA02F120FA0CFCDCBF41EA0C01904099
:1004B000E41AA2BF01EB0451294330BD6FEA0404E2
:1004C0001F3C1CDA0C340EDC04F11404C4F12002CD
:1004D00020FA04F001FA02F340EA030021FA04F3DF
:1004E00045EA030130BDC4F10C04C4F1200220FA36
:1004F00002F001FA04F340EA0300294630BD21FA74
:1005000004F0294630BD94F0000F83F4801306BF39
:1005100081F480110134013D4EE77FEA645C18BF2D
:100520007FEA655C29D094EA050F08BF90EA020FC4
:1005300005D054EA000C04BF1946104630BD91EABC
:10054000030F1EBF0021002030BD5FEA545C05D1BF
:100550004000494128BF41F0004130BD14F58004FE
:100560003CBF01F5801130BD01F0004545F0FE4172
:1005700041F470014FF0000030BD7FEA645C1ABFA7
:10058000194610467FEA655C1CBF0B46024650EADE
:10059000013406BF52EA033591EA030F41F400210A
:1005A00030BD00BF90F0000F04BF0021704730B590
:1005B0004FF4806404F132044FF000054FF0000165
:1005C00050E700BF90F0000F04BF0021704730B526
:1005D0004FF4806404F1320410F0004548BF4042FB
:1005E0004FF000013EE700BF42004FEAE2014FEA50
:1005F00031014FEA02701FBF12F07F4393F07F4F2B
:1006000081F06051704792F0000F14BF93F07F4F5C
:10061000704730B54FF4607401F0004521F000419F
:1006200020E700BF50EA010208BF704730B54FF025
:1006300000050AE050EA010208BF704730B511F02A
:10064000004502D5404261EB41014FF4806404F162
:1006500032045FEA915C3FF4DCAE4FF003025FEAE4
:10066000DC0C18BF03325FEADC0C18BF033202EB6C
:10067000DC02C2F1200300FA03FC20FA02F001FAC6
:1006800003FE40EA0E0021FA02F11444C1E600BF65
:1006900070B54FF0FF0C4CF4E06C1CEA11541DBF18
:1006A0001CEA135594EA0C0F95EA0C0F00F0DEF8E3
:1006B0002C4481EA030621EA4C5123EA4C5350EAC8
:1006C000013518BF52EA033541F4801143F4801319
:1006D00038D0A0FB02CE4FF00005E1FB02E506F0AA
:1006E0000042E0FB03E54FF00006E1FB03569CF0FF
:1006F000000F18BF4EF0010EA4F1FF04B6F5007F05
:1007000064F5407404D25FEA4E0E6D4146EB060676
:1007100042EAC62141EA55514FEAC52040EA5E50FF
:100720004FEACE2EB4F1FD0C88BFBCF5E06F1ED8A9
:10073000BEF1004F08BF5FEA500E50F1000041EBE0
:10074000045170BD06F0004646EA010140EA02008D
:1007500081EA0301B4EB5C04C2BFD4EB0C0541EAAF
:10076000045170BD41F480114FF0000E013C00F3C4
:10077000AB8014F1360FDEBF002001F0004170BDE8
:10078000C4F10004203C35DA0C341BDC04F1140401
:10079000C4F1200500FA05F320FA04F001FA05F28D
:1007A00040EA020001F0004221F0004110EBD3705A
:1007B00021FA04F642EB06015EEA430E08BF20EA86
:1007C000D37070BDC4F10C04C4F1200500FA04F329
:1007D00020FA05F001FA04F240EA020001F00041BB
:1007E00010EBD37041F100015EEA430E08BF20EA2E
:1007F000D37070BDC4F1200500FA05F24EEA020E76
:1008000020FA04F301FA05F243EA020321FA04F0A4
:1008100001F0004121FA04F220EA020000EBD3705B
:100820005EEA430E08BF20EAD37070BD94F0000F5B
:100830000FD101F00046400041EB010111F4801F8F
:1008400008BF013CF7D041EA060195F0000F18BF40
:10085000704703F00046520043EB030313F4801F7C
:1008600008BF013DF7D043EA0603704794EA0C0F36
:100870000CEA135518BF95EA0C0F0CD050EA41064C
:1008800018BF52EA4306D1D181EA030101F00041C9
:100890004FF0000070BD50EA410606BF10461946F1
:1008A00052EA430619D094EA0C0F02D150EA0136FD
:1008B00013D195EA0C0F05D152EA03361CBF10463E
:1008C00019460AD181EA030101F0004141F0FE41DD
:1008D00041F470014FF0000070BD41F0FE4141F461
:1008E000780170BD70B54FF0FF0C4CF4E06C1CEA61
:1008F00011541DBF1CEA135594EA0C0F95EA0C0F16
:1009000000F0A7F8A4EB050481EA030E52EA0335D0
:100910004FEA013100F088804FEA03334FF08055F1
:1009200045EA131343EA12634FEA022245EA11151E
:1009300045EA10654FEA00260EF000419D4208BFCF
:10094000964244F1FD0404F5407402D25B084FEA7C
:100950003202B61A65EB03055B084FEA32024FF428
:1009600080104FF4002CB6EB020E75EB030E22BF85
:10097000B61A754640EA0C005B084FEA3202B6EB45
:10098000020E75EB030E22BFB61A754640EA5C00F4
:100990005B084FEA3202B6EB020E75EB030E22BF84
:1009A000B61A754640EA9C005B084FEA3202B6EB85
:1009B000020E75EB030E22BFB61A754640EADC0044
:1009C00055EA060E18D04FEA051545EA16754FEAA6
:1009D00006164FEAC30343EA52734FEAC2025FEAC4
:1009E0001C1CC0D111F4801F0BD141EA00014FF053
:1009F00000004FF0004CB6E711F4801F04BF014324
:100A00000020B4F1FD0C88BFBCF5E06F3FF6AFAE3F
:100A1000B5EB030C04BFB6EB020C5FEA500C50F1CF
:100A2000000041EB045170BD0EF0004E4EEA113152
:100A300014EB5C04C2BFD4EB0C0541EA045170BD59
:100A400041F480114FF0000E013C90E645EA060E9D
:100A50008DE60CEA135594EA0C0F08BF95EA0C0FCB
:100A60003FF43BAF94EA0C0F0AD150EA01347FF413
:100A700034AF95EA0C0F7FF425AF104619462CE7EA
:100A800095EA0C0F06D152EA03353FF4FDAE10464D
:100A9000194622E750EA410618BF52EA43067FF49E
:100AA000C5AE50EA41047FF40DAF52EA43057FF42E
:100AB000EBAE12E7000000000000000000000000A4
:100AC0004FEA4102B2F1E04324BFB3F5001CDCF170
:100AD000FE5C0DD901F0004C4FEAC0024CEA5070A8
:100AE000B2F1004F40EB830008BF20F001007047D7
:100AF00011F0804F21D113F13872BCBF01F00040DA
:100B0000704741F480114FEA5252C2F11802C2F10B
:100B1000200C10FA0CF320FA02F018BF40F001008C
:100B20004FEAC1234FEAD32303FA0CFC40EA0C003E
:100B300023FA02F34FEA4303CCE77FEA625307D17B
:100B400050EA01331EBF4FF0FE4040F440007047B2
:100B500001F0004040F0FE4040F40000704700BF4C
:100B6000844641EA000313F003036DD1403A41D3B8
:100B700051F8043B40F8043B51F8043B40F8043B77
:100B800051F8043B40F8043B51F8043B40F8043B67
:100B900051F8043B40F8043B51F8043B40F8043B57
:100BA00051F8043B40F8043B51F8043B40F8043B47
:100BB00051F8043B40F8043B51F8043B40F8043B37
:100BC00051F8043B40F8043B51F8043B40F8043B27
:100BD00051F8043B40F8043B51F8043B40F8043B17
:100BE00051F8043B40F8043B51F8043B40F8043B07
:100BF000403ABDD2303211D351F8043B40F8043BA7
:100C000051F8043B40F8043B51F8043B40F8043BE6
:100C100051F8043B40F8043B103AEDD20C3205D3B6
:100C200051F8043B40F8043B043AF9D2043208D0AE
:100C3000D2071CBF11F8013B00F8013B01D30B8820
:100C400003806046704700BF082A13D38B078DD0FE
:100C500010F003038AD0C3F10403D21ADB071CBFD0
:100C600011F8013B00F8013B80D331F8023B20F83A
:100C7000023B7BE7043AD9D3013A11F8013B00F873
:100C8000013BF9D20B7803704B7843708B788370FB
:100C900060467047000000000000000000000000F7
:100CA000A2EB0300704700BF02780B78012A28BF2F
:100CB0009A42F5D16DE9044540EA0104CDE90267A5
:100CC0006FF0000C4FEA447212B380EA010414F092
:100CD000070F6AD100F0070420F0070004F00305B5
:100CE00021F007014FEAC505F0E8042314F0040FD2
:100CF000F1E804670CFA05F462EA040266EA040605
:100D00000AD063EA0403624667EA0407664603E022
:100D1000F0E80423F1E8046782FA4CF582EA06045D
:100D2000A4FA8CF46CBB83FA4CF583EA0705A5FAA8
:100D30008CF595B950E9022351E9026782FA4CF526
:100D400082EA0604A4FA8CF483FA4CF583EA0705D8
:100D5000A5FA8CF52543DBD09CB92DBAB5FA85F4FC
:100D600024F0070427FA04F1DDE9026723FA04F30B
:100D700003F0FF0001F0FF01FDE80445A0EB0100D6
:100D8000704724BAB4FA84F424F0070426FA04F174
:100D9000DDE9026722FA04F202F0FF0001F0FF0130
:100DA000FDE80445A0EB0100704714F0030F3CD1AF
:100DB00010F0030428D150F8082B51F8083B82FAB0
:100DC0004CF582EA0305A5FA8CF55DB950F8042CC0
:100DD00051F8043C82FA4CF582EA0305A5FA8CF539
:100DE000002DE8D02DBAB5FA85F424F0070423FAD3
:100DF00004F122FA04F202F0FF0001F0FF01FDE825
:100E00000445A0EB010070474FEAC40420F0030042
:100E100050F8082B21F0030151F8083B0CFA04F4B8
:100E200062EA040263EA0403C9E710F003041AD07B
:100E3000A1EB040120F00300E40750F8042B06D0D6
:100E40000FD28B785FFAA2F4E41A06D12BB1CB78DB
:100E50005FFAB2F4E41A00D11BB920465DF8104BDA
:100E6000704701F1040150F8042BCC0721F0030175
:100E700051F8043B48D824D222F07F4482FA4CF542
:100E800094EA1325A5FA8CF50AD165B951F8043B0B
:100E900084EA0204B4EB036F0ED150F8042BEBE7A5
:100EA0004FEA132355E035F07F454DD10878FDE832
:100EB0000445C0F1000070474FEA126203F0FF03DF
:100EC00047E002EA1C4482FA4CF594EA1345A5FA7D
:100ED0008CF50AD165B951F8043B84EA0204B4EBFD
:100EE000034F0CD150F8042BEBE74FEA134330E0EB
:100EF00015EA1C4528D10B884FEA124229E04FEA37
:100F0000124203EA1C4324E002F0FF0482FA4CF58B
:100F100094EA1365A5FA8CF50AD165B951F8043B3A
:100F200084EA0204B4EB032F09D150F8042BEBE759
:100F30004FEA13630DE015F0FF0F05D10B684FEA80
:100F4000122223F07F4304E04FF00000FDE8044547
:100F5000704712BA1BBA82FA4CF482EA0304A4FA6C
:100F60008CF5B5FA85F402FA04F203FA04F34FEAB9
:100F70001260FDE80445A0EB13607047000000001C
:100F80004FF0FF3C06E000BF4FF0010C02E000BF55
:100F90004FF0010C4DF804CD4FEA410C7FEA6C5C38
:100FA0004FEA430C18BF7FEA6C5C1BD001B050EADB
:100FB000410C0CBF52EA430C91EA030F02BF90EAC6
:100FC000020F0020704710F1000F91EA030F58BF85
:100FD000994208BF90422CBFD8176FEAE37040F0E7
:100FE000010070474FEA410C7FEA6C5C02D150EA85
:100FF000013C07D14FEA430C7FEA6C5CD6D152EA40
:10100000033CD3D05DF8040B704700BF8446104604
:1010100062468C461946634600E000BF01B5FFF703
:10102000B7FF002848BF10F1000F01BD4DF808EDD3
:10103000FFF7F4FF0CBF012000205DF808FB00BFA4
:101040004DF808EDFFF7EAFF34BF012000205DF8FE
:1010500008FB00BF4DF808EDFFF7E0FF94BF01204B
:1010600000205DF808FB00BF4DF808EDFFF7CEFF4C
:1010700094BF012000205DF808FB00BF4DF808ED8B
:10108000FFF7C4FF34BF012000205DF808FB00BF5C
:10109000024AD36843F08003D3607047004C00409D
:1010A000024AD36843F08003D36070470044004095
:1010B000836970B51A69DC681440E2B2D243A607AE
:1010C00005461A6103D543681B6903B19847600759
:1010D00004D56B689B690BB128469847210704D556
:1010E0006B681B6A0BB128469847E20604D56B680B
:1010F0009B6A0BB128469847E30706D56B689B6847
:101100001BB12846BDE87040184770BD00000000C4
:101110000178C368002204291A6107D102210170F5
:101120001A601A61DA6822F0FF02DA6043685B68CD
:10113000184700BF00000000000000000000000091
:1011400011F00C0F00D1704772B6024B024ADA62FE
:10115000FEE700BF90BE00206073000800000000A2
:1011600011F00C0F10B4446B14D1026B13681968A2
:1011700021F01F0119601968C907FCD4117A52685F
:101180003D238B401360636843F4007363605DF834
:10119000044B704772B6024B024ADA62FEE700BFA8
:1011A00090BE0020607300080000000000000000F6
:1011B000002903DD19491A4A03F082BA10B519490A
:1011C000194A82B0044603F07BFA20461749184AB0
:1011D00003F076FA20461749174A03F071FA2046C1
:1011E0001649174A03F06CFA20461649164A03F0CE
:1011F00067FA20461549164A03F062FA2046154957
:10120000154A03F05DFA154B009320461449154A20
:10121000154B03F055FA02B010BD00BF6C73000807
:101220007873000880730008947300089C730008AA
:10123000B0730008F87300080C74000818740008F4
:101240002C740008387400084C740008647400089A
:1012500078740008A4740008B874000808750008C1
:10126000E0740008F874000804750008000000002D
:1012700008B503F085FE04F0D3F80448FFF718FF23
:1012800004F0B6F8BDE8084001F0CABC2CC6002046
:1012900008B503F075FE04F0C3F80448FFF708FF33
:1012A00004F0A6F8BDE8084001F0BABC74C50020FF
:1012B00008B503F065FE04F0B3F80448FFF7F8FE44
:1012C00004F096F8BDE8084001F0AABC74C50020FF
:1012D00008B503F055FE04F0A3F80448FFF718FF23
:1012E00004F086F8BDE8084001F09ABCA0C50020D3
:1012F00008B503F045FE04F093F80448FFF708FF33
:1013000004F076F8BDE8084001F08ABC78BE002001
:1013100008B503F035FE04F083F80448FFF7F8FE43
:1013200004F066F8BDE8084001F07ABC90C50020E2
:1013300008B503F025FE04F073F80448FFF7E8FE53
:1013400004F056F8BDE8084001F06ABC10A800207F
:101350002DE9F047466FF7683368DA0505469CB219
:1013600015D5202383F3118803F05AFE04F088F882
:10137000281D4FF4007101F08BFE6FF48073336011
:1013800004F066F803F034FE002383F31188202371
:1013900083F3118803F044FE04F072F814F02F0F69
:1013A0004ED005F1040805F10C0908E0A306D6F8B3
:1013B00004A01ED43468A4B214F02F0F40D0230729
:1013C000F4D014F0080F0CBF00218021E00748BFC3
:1013D00041F02001A20748BF41F04001630748BF28
:1013E00041F48071404601F053FEA306D6F804A0F4
:1013F000E0D503F0B5FE03F0B3FE6B691BB94046C0
:10140000042101F045FE03F0ABFE03F0A9FE2B6AB8
:101410006A6A934278D06A69591C01326A6129620A
:1014200083F800A02A6AEB699A4201D3AB692B6268
:10143000484602F055FA3468A4B214F02F0FBED11A
:1014400004F006F803F0D4FD002383F31188380676
:1014500001D5210603D462062BD4BDE8F0872023F2
:1014600083F3118803F0DCFD04F00AF803F078FE42
:1014700003F076FEAB6C6A6C9A4237D0AA6B296C8B
:10148000581C0132AA63A864884293F8008001D3F3
:10149000EB6BAB6405F1300002F022FAC6F8048071
:1014A00003F0D6FF03F0A4FD002383F31188620646
:1014B000D3D5202383F3118803F0B2FD03F0E0FFBE
:1014C00003F04EFEAA6C6B6C9A4225D04FF6BF73A8
:1014D0003B406FF04002F360326003F0B9FF03F06D
:1014E00087FD002383F31188BDE8F087AA6B002AEB
:1014F000C4D0281D082101F0CBFD4FF63F733B40BF
:1015000043F04003F360CBE76A69002A83D040468A
:10151000802101F0BDFD4DE7AB6B002BD6D0281D1F
:10152000102101F0B5FDD1E700000000000000002F
:1015300008B503F025FD03F073FF0448FFF708FF2B
:1015400003F056FFBDE8084001F06ABBF8C4002074
:1015500008B503F015FD03F063FF0448FFF7F8FE3C
:1015600003F046FFBDE8084001F05ABBB0C50020BB
:1015700011F00C0F38B53AD1416A0B681A6822F0A5
:101580001F021A601A68D407FCD40D7A026A4C68EC
:1015900013683D21A9402160196821F01F011960DD
:1015A0001968C907FCD4436851680446107A1A6860
:1015B0003D2383400B60FAB10423237020469047FB
:1015C0002378042B18D0202383F3118803F028FDFF
:1015D00003F056FF04F10800002103F0C9FE03F0F8
:1015E00037FF03F005FD002383F3118838BD72B681
:1015F000034B044ADA62FEE702232370E3E700BFED
:1016000090BE002060730008000000000000000091
:10161000F8B53D4C636B5E6903F0B2FCB5B203F004
:10162000FFFE276B616B3A6805F45F43DB434B6158
:10163000136823F01F0313601368D807FCD497F8CE
:1016400008E0E06A7F6802683D2303FA0EF33B601E
:10165000136823F01F031360136813F00103FBD119
:10166000077A40683D22BA400260EA0548BF01237C
:10167000AF05A36044BF43F00203A36068050AD529
:101680004A6822F400724A600A6843F0040342F494
:1016900000720A60A3602A0544BF43F00803A360F8
:1016A0006F0444BF43F02003A360E8041DD543F05A
:1016B00010033104A36022D4202383F3118803F0A4
:1016C000AFFC03F0DDFE11486FF0010103F050FEA6
:1016D00003F0BEFE03F08CFC002383F3118803F0BB
:1016E00087FEBDE8F84001F09BBA320407D4002B16
:1016F000E2D103F07DFEBDE8F84001F091BA43F07D
:101700004003A360D8E700BF48C6002064C600209D
:10171000F8B5424D03F034FC03F082FE6C6B404A96
:10172000A369666946EA034323F07F43934250D09E
:1017300020D8073A934240D00132934210D16268D8
:10174000EB6A22F400721B6862601A6842F00102C0
:101750001A60626842F4805262605B68012B58D95B
:1017600016F00A0F18BFA36903F042FEBDE8F84067
:1017700001F056BA2B4A934214D002329342EFD171
:10178000EB6A1B685F684FB32A8C236842F0010242
:1017900043F4A0632A84236003F02AFEBDE8F840E6
:1017A00001F03EBA63682A6B23F400731268636029
:1017B000136843F001031360D2E72B8C1A0A0BD095
:1017C00003F0010343F0F00302F006021343236128
:1017D000C6E72B8CC3F347032361C1E7636823F497
:1017E00000736360236843F400732360202383F352
:1017F000118803F015FC03F043FE05F11C00394687
:1018000003F0B6FD03F024FE03F0F2FB87F311882A
:10181000A6E7236823F480632360A1E748C600207D
:101820000800030082000700000000000000000024
:1018300011F00C0F436B2FD170B5C56A29680A6887
:1018400022F01F020A600A6812F00104FBD106466A
:10185000287A69683D2282400A605A6822F48052E0
:101860005A601A6822F480621A601A6842F40072A0
:101870001A60202383F3118803F0D2FB03F000FEEB
:1018800006F11C00214603F073FD03F0E1FD03F0B7
:10189000AFFB84F3118870BD72B6024B024ADA6264
:1018A000FEE700BF90BE002060730008000000004B
:1018B0002DE9F047384E03F063FB03F0B1FD3369C7
:1018C0009B0705D403F094FDBDE8F04701F0A8B9EB
:1018D000002737614FF0200989F311882F4D03F05D
:1018E0009FFB03F0CDFD03F03BFC03F039FCEC69FA
:1018F000726AA96AA368501A984238BF05F11C069B
:1019000025D3B846374605F11C062268D4F80CA04A
:101910000B44B242AB625660EA61C4F80C8008BF67
:10192000C7F80C8003F094FD03F062FB88F3118884
:101930002069D04789F3118803F072FB03F0A0FD02
:10194000EC697A6AA96AA368501A8342DDD9B44265
:1019500014D00B449B1A012B98BF02239C182046DD
:1019600001F046F90C4BA96A5A6A0C48631A521ADC
:101970009A4203D972B60A4BC362FEE703F068FDD0
:1019800003F036FB002383F3118803F031FDBDE83B
:10199000F04701F045B900BF000C004090BE0020A8
:1019A000507300080000000000000000000000006C
:1019B0002C492D4B4FF080504FF4404208641A6080
:1019C0000B6843F001030B600A68264B9007FBD5B8
:1019D0009A6822F003029A609A689A6019468B68A6
:1019E000204A13F00C03FAD1116801F0F9011160DB
:1019F0009360136843F4803313601168194B8903B3
:101A0000FBD55A6F42F001025A675A6F1549900789
:101A1000FBD5164B4B600B68134A43F080730B6089
:101A200053685904FCD50F490A680E4B9201FBD547
:101A30000F4A1049996040F2057111609A6842F0AE
:101A400002029A601A469368064903F00C03082BB9
:101A5000F9D14B6C43F480434B644B6E43F48043A9
:101A60004B66704700380240007000400854400741
:101A7000003C024000948838000000000000000094
:101A80002DE9F043764B04689B69764A47687649AE
:101A90009A6199B0204602F013FE08AE20467349C1
:101AA00002F00EFE3546236820465B680DF1070103
:101AB0000122984780B39DF80710042928D00829EF
:101AC00012D07F2910D00D290DF15F0339D01F29C5
:101AD000E9D99D42E7D2236820469B6898479DF844
:101AE00007302B700135DEE7B5424FF00801204684
:101AF000D9D023689B689847236820469B6820219B
:101B00009847236820469B680821013D9847CAE70B
:101B10002046574902F0D4FD2046564902F0D0FD38
:101B2000202383F3118803F083FA03F009FD0021D9
:101B3000514801F0ADFA002003F032FC19B0BDE8C5
:101B4000F0834E49204602F0BBFD002302A92B7012
:101B500030461D4601F0ACFF02A9814600200DF180
:101B60000C0801F0A5FF50B1042D1DD048F8040B5E
:101B700002A90020013501F09BFF0028F4D118AB29
:101B800003EB850343F8540CB9F1000F86D04846A7
:101B90003B49FFF789F870B9002DC1D0204639497B
:101BA000374A02F08DFD79E72046374902F088FD7B
:101BB0000023079372E748463449FFF775F830B9B8
:101BC0002046BDB12F49314A02F07AFD66E7DFF8C1
:101BD000C8802F4802E058F8080F48B34946FFF77D
:101BE00063F80028F7D1D8F80430294603AA204624
:101BF000984753E72749284D02F062FD244A2749B8
:101C0000204602F05DFD55F8082F002AF7D157B1A4
:101C10003A6842B13D462046204902F051FD55F850
:101C2000082F002AF7D12046144902F049FD35E774
:101C300067B1386850B1B84602E058F8080F28B1CB
:101C40004946FFF731F80028F7D1CCE74A4620464D
:101C5000134902F035FD2046124902F031FD1DE71F
:101C600090BE0020147500081C750008347500082B
:101C70003C7500089075000890080020B4740008B6
:101C8000587500086C7300084075000860750008FE
:101C90007873000868750008B07500088075000842
:101CA000847500088875000800000000000000002E
:101CB000002903DD1449154A02F002BD38B5044677
:101CC000202383F3118803F0B3F903F039FC104BA0
:101CD0005D6A03F025FC03F093F90E4B19689942F5
:101CE00004D098698A688168914209D3002383F3FC
:101CF0001188094920462A46BDE8384002F0E0BC78
:101D000072B6064ADA62FEE76C7300089C7500083A
:101D1000000C004090BE0020A4750008407300082D
:101D200011680B78BBB1002202EB820203EB420286
:101D300011F8013F303A002BF6D107EE902A9FEDC3
:101D4000087AF8EE677AC7EE877A064B0649C3ED44
:101D50000B7A02F0B5BCDFED057A1A46F5E700BF55
:101D600000401C46C0CA00200077000800000000A8
:101D700011680B78BBB1002202EB820203EB420236
:101D800011F8013F303A002BF6D107EE902A9FED73
:101D9000087AF8EE677AC7EE877A064B0649C3EDF4
:101DA0000A7A02F08DBCDFED057A1A46F5E700BF2E
:101DB00000401C46C0CA00200C770008000000004C
:101DC00011680B78BBB1002202EB820203EB4202E6
:101DD00011F8013F303A002BF6D107EE902A9FED23
:101DE000087AF8EE677AC7EE877A064B0649C3EDA4
:101DF000087A02F065BCDFED057A1A46F5E700BF08
:101E000000401C46C0CA00201877000800000000EF
:101E100011680B78BBB1002202EB820203EB420295
:101E200011F8013F303A002BF6D107EE902A9FEDD2
:101E3000087AF8EE677AC7EE877A064B0649C3ED53
:101E4000077A02F03DBCDFED057A1A46F5E700BFE0
:101E500000401C46C0CA0020247700080000000093
:101E600011680B78BBB1002202EB820203EB420245
:101E700011F8013F303A002BF6D107EE902A9FED82
:101E8000087AF8EE677AC7EE877A064B0649C3ED03
:101E9000057A02F015BCDFED057A1A46F5E700BFBA
:101EA00000401C46C0CA0020307700080000000037
:101EB00011680B78BBB1002202EB820203EB4202F5
:101EC00011F8013F303A002BF6D107EE902A9FED32
:101ED000087AF8EE677AC7EE877A064B0649C3EDB3
:101EE000047A02F0EDBBDFED057A1A46F5E700BF94
:101EF00000401C46C0CA00203C77000800000000DB
:101F000011680B78BBB1002202EB820203EB4202A4
:101F100011F8013F303A002BF6D107EE902A9FEDE1
:101F2000087AF8EE677AC7EE877A064B0649C3ED62
:101F3000037A02F0C5BBDFED057A1A46F5E700BF6C
:101F400000401C46C0CA002048770008000000007E
:101F500011680B78BBB1002202EB820203EB420254
:101F600011F8013F303A002BF6D107EE902A9FED91
:101F7000087AF8EE677AC7EE877A064B0649C3ED12
:101F8000027A02F09DBBDFED057A1A46F5E700BF45
:101F900000401C46C0CA0020507700080000000026
:101FA00010B50C4C0C4A63794BB153690B4983F45F
:101FB0008053536102F084FB0023637110BD5369A9
:101FC000074983F48053536102F07AFB0123637164
:101FD00010BD00BFC0CA0020000C0240647700089A
:101FE000587700080000000000000000000000001A
:101FF000F0B5954DDFED957AD5ED023A95ED034AB2
:10200000D5ED044A95ED055AD5ED075A95ED086AC8
:10201000D5ED0A6A95ED0B7A95ED062AD5ED092ADC
:1020200095ED0C3A8A4B2DED028B63EEA73A24EE28
:10203000274A64EEA74A25EE275A65EEA75A26EEF0
:10204000276A66EEA76A67EE277AFCEEE33ABCEEF3
:10205000C44AFCEEE44ABCEEC55ABCEEC22AFCEE11
:10206000E55ABCEEC66AFCEEE22AFCEEE66AFCEE3D
:10207000E77ABCEEC33A8DB0CDED013A8DED024A60
:10208000CDED034A8DED045A8DED052ACDED065AAE
:102090008DED076ACDED082ACDED096ACDED0A7AFE
:1020A0008DED0B3A1B69002B0446C0F2C1806849D4
:1020B000CA68674BD203FBD41A6822F480621A60A4
:1020C0001A6922F480721A611A6942F400721A6164
:1020D0001A46D1685E4BCF03FBD41A6922F078020E
:1020E0001A611A6942F020021A611A6942F002026A
:1020F0001A611A6942F480321A61DA685449D603C7
:10210000FBD40B6923F002030B610B6923F0780306
:102110000B610B6843F480630B600B6943F0004371
:102120000B614B4B1B69002BC0F28880484AD36877
:102130004749D803FBD40B694648DFF82CE123F468
:1021400080730B610B6943F400730A460B610F4601
:1021500001AE136956F8041B43F00103136140F804
:10216000041BD3683A49DB03FBD43B69704523F079
:1021700001033B61EDD10B6943F000430B6104F0B7
:1021800007FE9FED328A95ED027AD5ED037A32494A
:1021900027EE087A67EE887ABCEEC77AFCEEE77A1B
:1021A00017EE102A17EE903A204602F089FA95EDC4
:1021B000047AD5ED057A294927EE087A67EE887A00
:1021C000BCEEC77AFCEEE77A17EE102A17EE903ACB
:1021D000204602F075FA95ED077AD5ED087A204988
:1021E00027EE087A67EE887ABCEEC77AFCEEE77ACB
:1021F00017EE102A17EE903A204602F061FA95ED9C
:102200000A7AD5ED0B7A174927EE087A27EE888AE5
:10221000FCEEC77A204617EE902AFCEEC87A17EE3D
:10222000903A0DB0BDEC028BBDE8F04002F048BA28
:1022300001F02EFD00287FF43AAF72E701F028FD8F
:1022400000287FF473AF9AE7C0CA002000401C4604
:10225000003C024000000108747700088C770008F9
:10226000A4770008BC7700082C00010800000000DB
:10227000C34BC44C1A694FF0FF3100222DE980484E
:1022800019611A61586959615A61186A60F0805081
:1022900018621A62586A59625A62196C41F0805188
:1022A0001964216841F480712160196F01F4407153
:1022B000B1F5007F8BB003D04FF4803119671A67F6
:1022C000B048B14C4268B14EB14D002122F40072C9
:1022D00042600B460F4621600A46F1580A6045F8F5
:1022E00037200137102F03F10C034FF00004F4D115
:1022F000A848A94A02974FF0FF358560C5609560F0
:10230000D560A2F53052A0F52050126B9C4FA34926
:10231000DFF8D8B2DFF8D8A2DFF8D892DFF8D88299
:102320009F4BA04EDFF8D4C2DFF8D4E26FEA52220E
:102330006FEA42220263026D6FEA52226FEA422282
:102340003A656FF4A8424C608A60C1F80CB00BF19A
:10235000AA5B0BF5883B4FF6FF720BF5887B4A6151
:10236000C1F820B0DFF89CB2C1F824B0DFF898B211
:10237000C1F800B04FF41071DFF890B2CAF8041041
:10238000CAF80850CAF80CB0DFF884B2CAF81420B2
:10239000CAF820B0DFF87CB2CAF824B0DFF878B20F
:1023A000CAF800B0DFF874A2C9F80440C9F80850B0
:1023B000C9F80CA04FF04C5AC9F81420C9F820A055
:1023C00048F6330AC9F824A0DFF854A2C9F800A0DF
:1023D000DFF85092C8F80440C8F80850C8F80C90CC
:1023E00040F6FF79C8F814904FF0EE69C8F82090D5
:1023F000A0F5E0506C49DFF83092C8F82440029F05
:10240000C8F80090DFF824827460B560F4607261EF
:1024100034627762C6F80080CCF80440CCF80850EB
:10242000CCF80C40CCF81420CCF82040CCF8244058
:10243000CCF80040CEF80440CEF80850CEF80C405E
:10244000CEF81420CEF82040CEF82440CEF800403C
:1024500044608560C46042610462446204604C6010
:102460008D60CC604A610C62504A5C604C625C6179
:102470000C6046495A6303F10C024FF00108DFF883
:10248000B0B1DFF8B0A1DA6008461A614831484AB5
:10249000484EDFF8A491D86219634748DC6183F89D
:1024A00000804FF08043DFF894C1CBF80C20434903
:1024B000CAF80C30A2F57C420623AEF5584EC9F896
:1024C0000C20C16002F5803280F8008044603374D3
:1024D0003B483C498CF800804FF00203CCF80440A4
:1024E000B2618BF80080CBF8044089F80080C9F80D
:1024F00004408AF80080CAF8044086F800807460BE
:10250000F460CCF80C408CF81030CCF818E001F0F6
:1025100007FA2B4A2C4B2D492D48536701F000FA3E
:102520002C4A2D4B1580164A154F126CDFF810E11E
:1025300083F8008042F008025C603A64DEF808C06C
:1025400026499C604CF0080CCEF808C0244A254867
:10255000DFF8F0B0244F42F2CF0EC1F828E04FF080
:10256000800C4FF4802ECD628C614C63CC604C604B
:10257000C1F81480C1F8008080F832C364E000BF65
:102580000038024000700040C8BB002020760008E0
:1025900020A80020006002400064024000000240C9
:1025A00048C60020001002400020024000540040B5
:1025B0000000014074C50020A0C5002000080040B4
:1025C000B0C50020A1100008004400409110000890
:1025D000F8C40020A0A8002080BD0020000C00400E
:1025E00000ED00E000E100E00000022000001540E6
:1025F0000004024000080240000C024000140240A7
:102600000018024070A70A00A8AAA82A1540515530
:10261000000022224400555580AA0AAA54054054BD
:1026200001A0AA02555055AA00290055402808507B
:1026300010A8002090C5002078BE00202CC60020E5
:10264000002004E0004C0040C0F884E1C0F804E041
:102650009460D2F80C90B749DFF848C35C614FF63C
:10266000FF0009EA00000143D160DCF80C10B24819
:10267000DFF834E3C0F874B041F08071CCF80C108E
:10268000AE49DFF82893AE48C3F81C9001F1240C42
:1026900001F1300BAB49986203F10C09D962C3F820
:1026A00020C0C3F824B0C3F80C90C3F81090DEF833
:1026B0000030DFF8FC9243EA0803CEF800304FF018
:1026C000200B9DF80830D37709F11C0182F822B065
:1026D0000023002204A8C9F80090C9F80490CDE9AD
:1026E0000823CDE90223C9F81C10C9F8201004956D
:1026F000C9F82450059406940794C9F80840C9F80D
:102700001090C9F81490C9F82840C9F8A04402F004
:102710007FFC04A802F044FC069BC9F8A034DDE964
:10272000022327F0070E09F59867C7E9002309F58A
:102730009B67C7E9002384488449D9F814C0C9F8C5
:10274000B05409F14007C9F83C70814FC9F8C8542A
:1027500020F0070038607F487F4FC0F800E001F1AB
:1027600010000F6008614027486109F588608C609F
:10277000CC608C61C9F83870C9F8487409F58D6E61
:102780007649C9F8A844C9F8AC44C9F8B444C9F8B2
:10279000B844C9F8BC44C9F8CC44C9F8D044C9F815
:1027A000D44489F86144C9F87C44C9F8784489F86C
:1027B0006284C9F85844C9F85094C9F88074C9F8BB
:1027C00054C409F59367CCF81000C9F8885409F28D
:1027D0006C45C9F81400C9F81800C7E9002309F5C9
:1027E0009160C9F88C44C9F89044C9F8944489F8B8
:1027F0006084C9F868E4C9F85C14C9F86C54C9F875
:10280000705402F005FCD9F8303013B9D9F83450BF
:1028100025B172B6524BC9F82C30FEE785F311880A
:1028200062B6D9F818304F4A9A614FF4C0714246E7
:1028300009F59C6000954C4B4C4C02F0A1FF4C4BB1
:1028400083613D4801F0CCFB4A4B4B4A4B4983F82E
:10285000058050461D71146000F08AFCDAF80C20E7
:10286000474B156055639563D5631564556291694F
:10287000444841F4824141F042019161D16941F4FF
:10288000824141F0410143F21337D16117629168EF
:1028900041F064019160116841F0010111604FF451
:1028A000D87100953B2202F06BFF374B374A1A6014
:1028B00004F06EFA0095364B36484FF4AE6145226F
:1028C00002F05EFF344B186859681A8904AB03C3E1
:1028D00042F210701A8002F023FF8BF3118802F08D
:1028E000A7FB02F02DFE3378013B012B04D972B611
:1028F0002A4BC9F82C30FEE7294B73604FF47A63FA
:10290000B36001F03DF84FF002033370F56000F062
:102910000FFCB369DFF89C801A6842F080021A60ED
:102920001A68A72142F060021A6004AFAA469962B1
:10293000A34654E00003FA05F8C4002020760008FE
:102940001600010046000100B7F00020D0BB0020B7
:102950000C1A0020081A002021330008000400206F
:10296000D4770008E0760008714F0008280800209E
:10297000DC770008C0CA002080EC00202078000826
:1029800091370008A8A8002008CB002020080020CC
:10299000F1370008A0A2002030730008D0750008AD
:1029A00090780008F0ED00E0001000E000380040F2
:1029B00090BE002080841E009BF835209BF83400D8
:1029C0000C320C3003EB820203EB80035160596040
:1029D00040F6C410013502F0A3FE052D25D094F871
:1029E00005E02079B36937F8022BB8FBF2F20EF15B
:1029F0000C0E92B20C30510803EB8E0E03EB8000EC
:102A00000539022DDA62CEF804104160D4D99BF862
:102A100034100C3103EB81014A609BF835200C32F5
:102A200003EB8203C3F804A0D2E701F081FA20236C
:102A300083F3118802F0FCFA02F082FD3378224D14
:102A4000013B012B04D972B6204BC9F82C30FEE7AC
:102A50001F4B6B604FF47A630024AB6000F090FF73
:102A600002232B70EC6000F063FB1A4B009441F2E0
:102A700070114122184802F083FE184B00934FF466
:102A8000AE61174B1748402202F07AFE164B0094B5
:102A90004FF4D8714022154802F072FE144B009496
:102AA00048F270114522134802F06AFE0094124861
:102AB000124B41F270113B2202F062FE41F288306B
:102AC00002F02EFEFAE700BF74C50020D0750008A2
:102AD000E07500088164000898080020D07800089C
:102AE000811A0008309D0020D1420008809B002000
:102AF000E1460008101A002058AA0020B159000829
:102B0000064A536823F001035360EFF309836833E7
:102B100083F30988002383F31188704730EF00E0C6
:102B2000002854D02DE9F0412B4F457A3C68984657
:102B3000012303FA05FE1EEA040F3DD1274E4EEA9B
:102B4000040406EBC50C14F0FF0F3C6046F835207A
:102B5000CCF8048004D0224D2B6B43F400132B637C
:102B600014F47F4F2BD10468236823F01F032360E4
:102B7000236813F00103FBD1077A46683D25BD4069
:102B80002127356023606761FAB1807A420992009B
:102B900000F1604502F1604202F56142090105F56C
:102BA000614500F01F00012404FA00F0C9B285F865
:102BB0000013C2F8800110601846BDE8F081084C8F
:102BC000236B43F480032363CDE71346F4E772B627
:102BD000044B054ADA62FEE7C8BB002020A80020AB
:102BE0000038024090BE002050790008000000002C
:102BF000054BDA68920701D55863704772B6034BEC
:102C0000034ADA62FEE700BF000C004090BE0020DD
:102C1000F078000800000000000000000000000044
:102C2000202383F31188124B5B6813F4006302D1F5
:102C300083F311887047F1EE103AEFF309830D4AE0
:102C40004FF08071D26843F8082C43F84C1CA3F174
:102C5000680282F30988084A116892698968926853
:102C600091428CBF054A064A43F8502C704700BF7A
:102C700000ED00E030EF00E090BE0020010300080E
:102C80001403000800000000000000000000000025
:102C900010B502F075F902F0C3FB094B09485968F9
:102CA000826F890D01F03D018C05DC600AB1C06FB7
:102CB000904702F09DFBBDE81040FFF7B1BF00BF99
:102CC0000064024020A80020000000000000000076
:102CD00010B502F055F902F0A3FB094B09485968F9
:102CE000026F090C01F03D010C04DC600AB1406F79
:102CF000904702F07DFBBDE81040FFF791BF00BF99
:102D00000064024020A80020000000000000000035
:102D100010B502F035F902F083FB094B09485968F8
:102D2000826E890901F03D018C01DC600AB1C06E40
:102D3000904702F05DFBBDE81040FFF771BF00BF98
:102D40000064024020A800200000000000000000F5
:102D500008B502F015F902F063FB084B0848596802
:102D6000026E01F03D01D9600AB1406E904702F059
:102D70003FFBBDE80840FFF753BF00BF00640240BF
:102D800020A800200000000000000000000000005B
:102D900010B502F0F5F802F043FB094B0948196839
:102DA000826D890D01F03D018C059C600AB1C06DFA
:102DB000904702F01DFBBDE81040FFF731BF00BF98
:102DC0000064024020A80020000000000000000075
:102DD00010B502F0D5F802F023FB094B0948196839
:102DE000026D090C01F03D010C049C600AB1406DBC
:102DF000904702F0FDFABDE81040FFF711BF00BF99
:102E00000064024020A80020000000000000000034
:102E100010B502F0B5F802F003FB094B0948196838
:102E2000826C890901F03D018C019C600AB1C06C83
:102E3000904702F0DDFABDE81040FFF7F1BE00BF99
:102E40000064024020A800200000000000000000F4
:102E500008B502F095F802F0E3FA084B0848196843
:102E6000026C01F03D0199600AB1406C904702F09C
:102E7000BFFABDE80840FFF7D3BE00BF00640240C0
:102E800020A800200000000000000000000000005A
:102E900010B502F075F802F0C3FA094B09485968F9
:102EA000826B890D01F03D018C05DC600AB1C06BBD
:102EB000904702F09DFABDE81040FFF7B1BE00BF99
:102EC0000060024020A80020000000000000000078
:102ED00010B502F055F802F0A3FA094B09485968F9
:102EE000026B090C01F03D010C04DC600AB1406B7F
:102EF000904702F07DFABDE81040FFF791BE00BF99
:102F00000060024020A80020000000000000000037
:102F100010B502F035F802F083FA094B09485968F8
:102F2000826A890901F03D018C01DC600AB1C06A46
:102F3000904702F05DFABDE81040FFF771BE00BF98
:102F40000060024020A800200000000000000000F7
:102F500008B502F015F802F063FA084B0848596802
:102F6000026A01F03D01D9600AB1406A904702F05F
:102F70003FFABDE80840FFF753BE00BF00600240C3
:102F800020A8002000000000000000000000000059
:102F900010B501F0F5FF02F043FA094B0948196832
:102FA0008269890D01F03D018C059C600AB1C06900
:102FB000904702F01DFABDE81040FFF731BE00BF98
:102FC0000060024020A80020000000000000000077
:102FD00010B501F0D5FF02F023FA094B0948196832
:102FE0000269090C01F03D010C049C600AB14069C2
:102FF000904702F0FDF9BDE81040FFF711BE00BF99
:103000000060024020A80020000000000000000036
:1030100010B501F0B5FF02F003FA094B0948196831
:103020008268890901F03D018C019C600AB1C06889
:10303000904702F0DDF9BDE81040FFF7F1BD00BF99
:103040000060024020A800200000000000000000F6
:1030500008B501F095FF02F0E3F9084B084A19683A
:1030600001F03D01996013680BB15068984702F078
:10307000BFF9BDE80840FFF7D3BD00BF00600240C4
:1030800020A8002000000000000000000000000058
:103090002DE9F84380460E4602F062F8B8F1000FC1
:1030A00039D0D8F80040A04526D0002702E0246897
:1030B000A04521D0E3683343E36016B1226913428F
:1030C000F5D06568D4F8089002F04AF8F5B1AB6B1A
:1030D00095F8202049EA03030A2AAB630ED00B2A95
:1030E000E5D16A6A13409A42E1D16F62284602F044
:1030F00017F92468A045DDD1BDE8F8836A6A134258
:10310000D5D06F62284602F00BF9F2E772B6044B95
:10311000044ADA62FEE772B6014B034ADA62FEE75E
:1031200090BE0020007900087079000800000000BF
:1031300008B502F0F5F901F063FF084B1A689A42EE
:1031400004D0996992688968914203D3002383F37C
:10315000118808BD72B6024ADA62FEE790BE00200E
:10316000307B0008000000000000000000000000AC
:10317000F8B528B321B304460D46202383F3118804
:1031800001F056FF02F0DCF923785A1E012A04D917
:1031900072B6554B554ADA62FEE7012B656032D0B4
:1031A0002B46A0681968B0FBF1F2013A92B202FB1B
:1031B0000111884209D072B64B4B4D4ADA62FEE7E4
:1031C00072B6494B494ADA62FEE7D868E1689E6800
:1031D000002520F0FF0302200D604E608A620D6121
:1031E000CB60207002F09CF901F00AFF3E4B1A6898
:1031F0009A4204D0996992688968914211D3002358
:1032000083F31188F8BD3B4B9C4256D03A4B9C420D
:103210003BD03A4B9C4220D0394B9C4205D063684E
:10322000BFE772B6374ADA62FEE7374B374A196CA6
:10323000374841F004011964196A002641F004017D
:10324000702519621E624FF0804182F81E53636838
:10325000C2F880111160A060A3E72B4B2B4A196CB8
:103260002B4841F002011964196A002641F002015D
:10327000702519621E624FF0005182F81D53636879
:10328000C2F880111160A0608BE71F4B1F4A196CB8
:103290001F4841F001011964196A002641F001013B
:1032A000702519621E624FF0805182F81C536368CA
:1032B000C2F880111160A06073E7134B134A596C78
:1032C000144D41F001015964596A4FF00070002714
:1032D00041F00101702659625F6282F81963C2F8F9
:1032E00080011060A5609AE790BE0020E078000899
:1032F0001079000810A8002090C5002078BE00209A
:10330000A0C50020B07900080038024000E100E0CC
:1033100000BD0105007A030A000000000000000063
:1033200010B52023044683F3118801F081FE02F0DA
:1033300007F901F015FF1248124B02681968E31DE6
:1033400023F00703891A8B429DBF9B180360144624
:10335000002402F0E5F801F053FE0B4B1A689A4284
:1033600004D0996992688968914204D3002383F359
:103370001188204610BD72B6044ADA62FEE700BF2B
:103380000C1A0020081A002090BE0020A079000826
:103390002DE9F04F83B083460193D0F81C90174677
:1033A000002A6ED08846202686F3118801F040FE60
:1033B000384C02F0C5F80025A24601F0D1FEDBF83A
:1033C00008305846002B3ED0DBF81420DBF80830DC
:1033D000511C013BCBF81410CBF8083098F80030A2
:1033E0001370DBF81030DBF814209A4224BFDBF8AE
:1033F0000C30CBF81430B9F1000F00D0C84702F000
:103400008FF801F0FDFD2368224AA34205D0DAF8C7
:1034100018109B68896899422FD3002383F3118881
:10342000013F05F1010508F1010822D086F311885A
:1034300001F0FEFD02F084F801F092FEDBF80830A6
:103440005846002BC0D15846019901F051FF002881
:10345000B3D002F065F801F0D3FD22680D4BA24213
:1034600004D099699268896891420FD3002383F34D
:103470001188284603B0BDE8F08F72B6064BD362C0
:10348000FEE772B6034B054ADA62FEE772B6024AFD
:10349000DA62FEE790BE00209079000820790008EB
:1034A0003030FFF775BF00BF0000000000000000D3
:1034B00030304FF0FF33FFF76BBF00BF000000005C
:1034C000F8B504460F461646202383F3118801F011
:1034D000AFFD02F035F803E001F00AFF051E28DB1E
:1034E00001F03EFEA36820463146002BF4D062690D
:1034F000A368511C013B6161A36017702369626975
:103500009A4224BFE3686361E3690BB120469847A0
:1035100002F006F801F074FD134B1A689A4204D0C9
:10352000996992688968914219D3002080F31188C3
:10353000F8BD01F0F5FF01F063FD0B4B1A689A42EC
:1035400004D0996992688968914204D3002383F377
:1035500011882846F8BD72B6044ADA62FEE772B6F0
:10356000024ADA62FEE700BF90BE002090790008B0
:103570003030FFF7A5BF00BF0000000000000000D2
:1035800030304FF0FF32FFF79BBF00BF000000005C
:103590002DE9F04F83B09946C369019382461446E2
:1035A000002A65D00E464FF0200888F3118801F0FC
:1035B0003FFD364D01F0C4FF013C00273444AB46CB
:1035C000019B33B15046984703E001F091FE00287B
:1035D0003AD101F0C5FDDAF8083050464946002BD3
:1035E000F3D0DAF81820DAF80830511C013BCAF899
:1035F0001810CAF8083013783370DAF81030DAF897
:1036000018209A4224BFDAF80C30CAF8183001F0BA
:1036100087FF01F0F5FC2B681C4AAB4205D0DBF8B4
:1036200018109B688968994227D3002383F3118877
:10363000A64207F1010717D0013688F3118801F07F
:10364000F7FC01F07DFFBBE701F06AFF01F0D8FC59
:103650002A680E4BAA4204D09969926889689142FF
:103660000FD3002383F31188384603B0BDE8F08FF1
:1036700072B6064B064ADA62FEE772B6054BD362B3
:10368000FEE772B6034ADA62FEE700BF90BE002092
:103690004079000890790008000000000000000058
:1036A0000C30FFF775BF00BF0000000000000000F5
:1036B0000C304FF0FF33FFF76BBF00BF000000007E
:1036C00070B5202304460E4683F3118801F0B0FC48
:1036D00001F036FFE36933B12046984703E001F07B
:1036E00007FE051E25DB01F03BFDA36820463146A1
:1036F000002BF4D0A169A36820694A1C013B8242D7
:10370000A360A26128BFE3680D7828BFA36101F020
:1037100007FF01F075FC114B1A689A4204D09969B1
:1037200092688968914215D3002383F31188284653
:1037300070BD01F0F5FE01F063FC084B1A689A4277
:10374000F2D09969926889689142EDD272B6044AC2
:10375000DA62FEE772B6024ADA62FEE790BE002045
:103760009079000800000000000000000000000048
:103770000C30FFF7A5BF00BF0000000000000000F4
:103780000C304FF0FF31FFF79BBF00BF000000007F
:10379000104B114A9B69114E114C80B540F2DC551B
:1037A0009A6140F6330706E0A580658025804FF4D6
:1037B000FA6001F0B5FFF3685A6BB2F5617FF3D997
:1037C0005A6BBA42F0D8596BDA6B1B6C218062805D
:1037D000A380ECE790BE0020B07A000890C50020DE
:1037E0002008002000000000000000000000000091
:1037F000304B314A9B693148314D80B59A61314F28
:1038000003F0CEF9304803F0CBF97E6A7B6AC83604
:10381000B34205F12E0449D37E6A2A682B6B2748F0
:10382000D2F808A0D3F8089003F092F9264803F0E4
:103830008FF9264A2B6B296898688968DFED246A1E
:10384000244BA2FB08E2D20802EB8202A8EB420260
:1038500005EB420ECAEB010AC9EB0009B0EE666A3D
:10386000AEF81CA0AEF84C9033F9022F07EE102AE8
:10387000B3F9302007EE902AB8EEC77AF8EEE77A6F
:10388000A34276EE876A36EE276AEDD1F2EE047A2D
:10389000C6EEA76A7B6AC836B34208F1010886EE15
:1038A000276AC5ED066A85ED126AB5D2304601F089
:1038B00007FFB2E790BE0020C07A00080008002091
:1038C00028080020000C004010080020CDCCCCCCF3
:1038D000000000004208002000000000000000007E
:1038E0000368984210D01A68026093F82010506064
:1038F000042904D072B6054B054ADA62FEE70022BD
:103900005A62184601F00CBD704700BF90BE0020FF
:10391000607A0008000000000000000000000000C5
:103920002DE9F0410446154B44F8043B00F15402E4
:1039300000F16403002700F10C0600F130054FF0A0
:1039400001084FF0100C00F1740E47614460C06232
:10395000C164006580F808808762C0F838C0C0F88C
:1039600040E0826142620262C6600661C361C36375
:103970008364436405634563BDE8F081D07A000841
:10398000444A1378012B2DE9F0411AD0916953690B
:103990000020086048638863C8630864486251680F
:1039A0003C4D0A68B3FBF2F0441EB4F5803F03D2ED
:1039B00002FB00F29A422BD072B6374B374ADA62DA
:1039C000FEE73748374B446C9569536144F0020475
:1039D0004464446A34494FF0700E4FF4805C4FF4F5
:1039E000804746F668064FF0000844F0020444623F
:1039F000C0F8248081F82CE3C1F884C1C1F804C068
:103A000081F82EE3C1F884714F60AE61EE61C6E7C4
:103A1000CB68A868AA69CD6A946203F00F030138E5
:103A2000012BD062556003D0022B0CBF032300236F
:103A3000486900F00F00012803D0022803D143F0A9
:103A4000200343F01003C86900F00F00012803D0E1
:103A5000022803D143F4007343F48073486A00F0F2
:103A60000F00012803D0022803D143F4005343F48C
:103A70008053096B1362012521F0FF0300244FF4EA
:103A80000040852155611461D36050641160BDE828
:103A9000F08100BF74C5002090BE0020407B00086C
:103AA00000380240007A030A00E100E00000000054
:103AB00038B50D46044690B1286020460B4903F006
:103AC00057FA04442046094903F02AFA60B1421C1F
:103AD00000232A600370237823B1204638BD0C6888
:103AE000002CEAD1002038BD2860F4E7CC7A000829
:103AF000F0B400F10B073C460D46B1FBF2F602FBB9
:103B0000161101F13003392BC8BF01F13703DBB2C5
:103B100004F8013DB5FBF2F53146002DEDD13A1B1D
:103B2000024401E014F8013F00F8013B9042F9D152
:103B3000F0BC704700000000000000000000000022
:103B40000CB42DE9F047C6B04EAA06AC52F8043BBF
:103B5000364F009200260D4601A81946FF23019713
:103B6000039302940496059600F022FC049B3049CE
:103B7000304ADFF8D0E0304FB1F80090B2F8008062
:103B8000FE2B98BFE6542D4B2D4EB3F800C02246B5
:103B90000521002413783BB35B2B2CD05D2B31D057
:103BA0000D2B26D00A2B24D0142922D80A2D20D858
:103BB0005C2B32D001EB810005EB4000002C14BFE0
:103BC000CA46C246142902F101020EF8003026F856
:103BD00010C027F810A01CD00131C9B213780A2DEB
:103BE00028BF0025002BD7D146B0BDE8F04702B072
:103BF00070470132CEE712F8010C5C28D4D00132B4
:103C00000124C7E712F8010C5C28CDD00132002452
:103C1000C0E70135EDB20021E0E750785B2801D024
:103C20005D28C7D101320346C4E700BF107A0008FF
:103C300028C6002088BE002080C6002070C5002055
:103C4000F0BB0020B0BD002000000000000000001C
:103C500010B40C4CE368DB03FCD4032A0AD9043A01
:103C600022F00302031D1A4450F8043B41F8043BC0
:103C70009042F9D1034A5DF8044B136943F00043C5
:103C800013617047003C024000000000000000008B
:103C9000044B0549054A59605A601869C043C00F72
:103CA000704700BF003C024023016745AB89EFCD60
:103CB0002DE9F047354C2023D4F8188083F3118880
:103CC00001F0B6F901F03CFCD8F83C3033B19A6809
:103CD000904507D072B62E4BE362FEE772B62C4BCE
:103CE000E362FEE72B4D05F10C094B4503D072B69C
:103CF000274BE362FEE7AE69C8F83C6001F0E8F9E3
:103D0000EF684F453AD0D8F840A05EB101F0E0F935
:103D100033689E4203D09B689A4538BF9A46F6683E
:103D2000002EF3D13B68FA6BC8F808A03846EB6068
:103D3000C3F80490AA61C7F83C906F6101F0F0FAF3
:103D400001F0C6F901F00CFAA269236892689B6839
:103D50009A4201D201F074F901F0E2FB01F050F94E
:103D600022680A4BA24204D09969926889689142FC
:103D700007D3002383F31188BDE8F08700236B612C
:103D8000EAE772B6044ADA62FEE700BF90BE00209E
:103D9000007B000848C60020F07900080000000001
:103DA0002DE9F04758B151B103B142B1574C2578D4
:103DB000022D09D072B6564B564ADA62FEE772B649
:103DC000534B544ADA62FEE79846064691468A46C5
:103DD000202383F311884E4D01F02AF901F0B0FB46
:103DE00070000323002223702084A260666B01F020
:103DF00097FB01F005F92B68AB4204D0AA699B68D8
:103E000092689A4256D3002383F31188226BE36AA7
:103E100011681B68606AA26ADFF80CE13E4F0A6015
:103E2000C1F80CE0C1F804A01860C3F80C90C3F806
:103E30000480D7F824A0DFF8D8904FF0200888F34A
:103E4000118801F0F5F801F07BFBB369990702D402
:103E500033689A0532D57B6ACAEB0303B3F5FA7F60
:103E600011D201F05DFB01F0CBF82A682849AA4283
:103E700005D0D9F8183092689B6893423DD300234F
:103E800083F31188DBE7052323704FF0FF3601F041
:103E900047FB01F0B5F82A681D4BAA4204D0996986
:103EA0009268896891422CD3002383F311883046AD
:103EB000BDE8F08772B6194BEB62FEE77368E06904
:103EC000AA691349114F43F400737360336843F4D4
:103ED0008073336018B172B6114BCB62FEE73B467C
:103EE000032043F81C2F0A21536201F049F9431CB7
:103EF0000646C8D002233B70C9E772B6074BCB62B7
:103F0000FEE772B6074ADA62FEE700BF48C6002045
:103F100090BE0020407A0008000C0040307A000873
:103F2000107B0008007A0008F0C4002000000000A8
:103F300070B5202383F3118801F07AF801F000FBBB
:103F40001E4A1378591E012904D972B61C4B1D4A0A
:103F5000DA62FEE7022B14D0012300211370D16036
:103F600001F0DEFA01F04CF8154B1A689A4204D0C1
:103F700099699268896891421CD3002383F3118860
:103F800070BD90691049114C00234FF480564FF4D6
:103F900080450360C36003614364C1F8846081F8B5
:103FA0002C33C1F8845081F82E33636C23F0020364
:103FB0006364D1E772B6064ADA62FEE774C5002090
:103FC00090BE0020E079000800E100E000380240E7
:103FD000307B00080000000000000000000000002E
:103FE00038B5002855D00446202383F3118801F00A
:103FF0001FF801F0A5FA237A5A1E012A04D972B6D5
:104000002F4B304ADA62FEE7012B2DD0636F2E4A28
:10401000934225D002F58062934221D041F21712DB
:104020009A6042F22C1044F24002002101251A61EC
:104030005D610222D860196019685B68227201F024
:104040006FFA00F0DDFF1E4B1A689A4204D099699E
:1040500092688968914221D3002383F3118838BD87
:1040600042F22E229A60DCE7184B9C421AD0184B81
:104070009C42CBD11748184B026C4FF48011C025DD
:1040800042F40022026483F83453C3F88411596067
:10409000BCE772B60A4B0B4ADA62FEE772B60F4A09
:1040A000DA62FEE70B480C4B026C4021C02542F45B
:1040B0000032026483F82653C3F884115960A5E7DF
:1040C00090BE0020A07A000800100140B0C500207A
:1040D000F8C400200038024000E100E0907A0008B7
:1040E00008B5202383F3118800F0A2FF01F028FA1D
:1040F000124B1A78022A04D072B6114B114ADA62B6
:10410000FEE75B6819895A6801238B409BB2538391
:1041100001F006FA00F074FF094B1A689A4204D0C5
:10412000996992688968914203D3002383F31188C7
:1041300008BD72B6044ADA62FEE700BF80BD002007
:1041400090BE0020C0790008207A0008000000001E
:1041500008B5202383F3118800F06AFF01F0F0F91D
:10416000124B1A78022A04D072B6114B114ADA6245
:10417000FEE75B6819895A6801238B409BB2138361
:1041800001F0CEF900F03CFF094B1A689A4204D0C6
:10419000996992688968914203D3002383F3118857
:1041A00008BD72B6044ADA62FEE700BF80BD002097
:1041B00090BE0020D0790008207A0008000000009E
:1041C000F8B5C0B10646202383F3118800F030FF14
:1041D00001F0B6F9284B1A78022A04D072B6274BA0
:1041E000274ADA62FEE75A6812684AB172B6234B70
:1041F000234ADA62FEE772B6204B214ADA62FEE712
:10420000196A5A6A0968DC6A12681E489F6AC8609F
:10421000012544F4806403204D6018700F60D6605F
:10422000556014600D68154C9F68A66945F001053E
:104230000D60116841F0010111601FB172B6124B9F
:10424000E362FEE743F8086F736200F051FF01F08C
:1042500067F900F0D5FE2368A34204D0A2699B68E9
:1042600092689A4203D3002383F31188F8BD72B693
:10427000064BE362FEE700BF80BD002090BE002039
:10428000F07A000872C50020807A0008207A0008C1
:104290000369C1689942024604D04168C85C013391
:1042A000136170476FF00100704700BF000000000D
:1042B000C36882689A4206D04268D154C368013309
:1042C000C360002070476FF00100704700000000DD
:1042D000164A174B9069174C174A1849184E80B563
:1042E0004FF4805584614FF480444FF400501D8397
:1042F000144F1C831D4658830024116004E04FF4C2
:10430000FA70013401F00CFAA20703D16B6983F44F
:1043100000436B613369DB07F1D53B790BB902F0E0
:1043200007FD6B6983F480536B61E8E790BE002062
:10433000000C0240907B000844C8002020080020A8
:1043400000000240C0CA0020000000000000000081
:1043500038B5054608462B69EC686968E41A94424A
:1043600028BF144619442246FCF7FAFB2B69234464
:104370002B61204638BD00BF000000000000000097
:1043800038B5C3688468E41A05469442406828BF7B
:10439000144618442246FCF7E3FBEB682344EB6029
:1043A000204638BD000000000000000000000000B2
:1043B0002DE9F04F87B015460DF10D0303AA9B1AA6
:1043C00081468A4601934FF000088B469BF8001007
:1043D0000BF1010379B1252911D0D9F800209B46B2
:1043E0009268484690479BF8001008F101080BF1CD
:1043F00001030029EFD1404607B0BDE8F08F9BF8DC
:1044000001202D2A03BF9BF802200BF102034FF07D
:10441000010A4FF0000A302A03BF5A7801333027CF
:104420002027591C002606E02B7804359BF8002035
:1044300003EB40060131A2F13003DBB2092B8B46BE
:1044400006EB8600F2D92A2AEED02E2A4FF0000180
:1044500043D002F0DF034C2B4ED0A2F144003428AD
:1044600000F2F780DFE810F0EA00F500F500F50053
:10447000F500EA00F500F500F500F500F500E800AC
:10448000F500F500F500F500F500DD00F500F5009C
:10449000F200F500F500F500F500F500F500F50077
:1044A000F500F500F500A100EA00F500F500F500C3
:1044B000F500EA00F500F500F500F500F500E8006C
:1044C000F500F500F5007100F500DD00F500F500E0
:1044D000F2002B78043503EB40011BF8012BA2F10D
:1044E0003003DBB2092B01EB8100F4D92A2AF0D08A
:1044F00002F0DF034C2BB0D19BF80030002B00F012
:10450000A880A3F144020BF1010B342A00F2A08031
:10451000DFE802F0949E9E9E9E949E9E9E9E9E929A
:104520009E9E9E9E9E879E9E9C9E9E9E9E9E9E9EC4
:104530009E9E9E4B949E9E9E9E949E9E9E9E9E920E
:104540009E9E9E1B9E879E9E9C002C685A4B002C14
:1045500008BF1C4604352378002900F09480002B06
:1045600000F096800139204601E0013903D410F8AB
:10457000013F002BF9D1001B361A431E202726EAE3
:10458000E676BAF1000F1FD0002B009334DA002E2C
:104590003FF41CAF3446D9F8003048469B68394692
:1045A0009847013CF7D1B04410E72B688DF80C30E8
:1045B000019B043518462027013B03AC361A26EA36
:1045C000E676BAF1000FDFD10093C6F1000ABAF126
:1045D000000F45D021782D2947D05646D9F8003014
:1045E00048469B68394698470136F7D1009B002B17
:1045F000CAEB0808FFF6EAAEDDF800A0D9F80030F3
:1046000014F8011B9B680AF1FF3A48469847BAF133
:10461000FF3FF3D1009B08F10108002BA8BF98448D
:10462000B5E70A22296803A80435FFF761FA03AB4E
:10463000C01A431E03ACC1E70822F3E7296800292A
:1046400005F104052EDB03A80A22EEE71022E9E7B4
:104650001A46019B8DF80C20184603AC013BADE7D0
:10466000009B002B5646C7DAB0E6302FB5D1D9F8FB
:10467000003048469B689847009B013B013408F195
:1046800001080093A9E747F6FE71002B7FF46BAF9A
:1046900026EAE676BAF1000F0BD14FF0FF33009314
:1046A000202792E72D2349428DF80C300DF10D00A3
:1046B000CAE720276BE700BF987B000800000000D6
:1046C0000EB400B582B003AA52F8041B0192FFF7A2
:1046D0006FFE02B05DF804EB03B07047000000000D
:1046E0002DE98048A04CA14AA36987B09A614FF494
:1046F000FA6001F015F89E4B1B785A1E012A05D965
:10470000052B03D072B69B4BE362FEE7202383F3B5
:10471000118800F08DFC00F013FF954B94491F7831
:104720009548586040F2564240F21643012F8A6283
:104730004B624D6B0E463DD029468D4B4268DE6A7A
:104740001B6BD6F80080DFF854E2D3F800A0077A9C
:1047500005F1100602F1FF3CC8F808604FF400496B
:1047600000234FF41068F445CAF80860C5F80090BB
:104770002B60C5F8048019D8D1F804C0DFF820E216
:104780004FF6C0760CEA06064E604E68724546F05B
:104790002A064E6040F25C83784EB24269DCBB1E52
:1047A000012B4CD972B6764BE362FEE772B6744BBE
:1047B000E362FEE7DFF8EC81C86AD8F82030714A7E
:1047C00043F400134FF0000EC8F820300521C8F85C
:1047D00020E03346FEF7A4F9002840F01883306B40
:1047E000694A05213346FEF79BF9002840F00B8308
:1047F000726AB36AD8F840C0DFF8ACE1716B7068D8
:1048000042F0007243F000734FF050094FF0004A3D
:104810004CF4001C42F4403243F44033C8F840C02A
:1048200072628EF81F93B362CEF880A1CEF800A01A
:104830008EF82093CEF88471CEF804707DE7022FB5
:1048400000F0ED82192303FB02F2504EB6FBF2F3A7
:1048500002FB03F2B61A002E40F0DD829AB24FF44A
:10486000804313436FEA43436FEA53430D229BB2E5
:104870000A62CB6102780B68022A9BB200F0DB82ED
:10488000032A00F0DE82012A02D123F00A039BB240
:104890000B602B68364A43F001032B600223137030
:1048A00000F03EFE00F0ACFB22682F4BA24205D088
:1048B0009969926889689142C0F0C682002585F3A3
:1048C0001188DFF8E8803248C0236B2488F8013073
:1048D00088F8004000F044FE2A462B46682002215A
:1048E000FFF75EFA0546D0B1FFF7E2F9294B0193D5
:1048F00019461F4B1B7A0B7013B14B8801334B8049
:10490000019A137943F002031371234C636983F412
:10491000005363614FF4FA6000F002FFF6E74FF4D2
:104920007A7000F0FDFE0326682002212A462B46FD
:1049300088F8004088F80160FFF732FA0446002842
:1049400036D0FFF7B5F9134B01931946084B1B7A84
:104950000B7013B14B8801334B80019A137943F0EC
:1049600004031371D1E700BF90BE0020A07B0008B4
:1049700048C60020507B0008B07B0008801A060063
:10498000607B0008311800086111000880DE800299
:1049900054C6002010C80020000C0240FF083D0053
:1049A000A08601000038024000E100E0F0C40020D1
:1049B0002246234619270B2601256820052188F861
:1049C000024088F8034088F8007088F8016088F891
:1049D0000450FFF7E5F90446FFF76AF9002C40F0B0
:1049E000038221468122AE4802F04AFA2146AD48B0
:1049F000182202F045FAAC4B1B69002BC0F2EE8185
:104A0000AA48A8491822FFF723F9A94AA54B10780C
:104A10005178A84E9278A24DD3F80C909F68D3F8A5
:104A200000A0D3F804C0D3F810E05C69A24B766A0A
:104A3000019302F00F0385F87E30682200F00F002A
:104A400001F00F019B4B85F87C0085F87F2085F8ED
:104A50007D105A6AAF6319360027B242C5F83C9000
:104A6000DFED968A9FED968AC5F830A0C5F834C070
:104A7000C5F840E06C64B946C0F0F4805E6A914CC1
:104A80009148874F3B2388F8003000F069FD2246AB
:104A900095F87F0001210E23FFF782F98246FFF788
:104AA00007F9BAF1000F40F01B8194F800B060786C
:104AB00094F802A06279E17894F804C094F808E0D0
:104AC000637A40EA0B2041EA0A2142EA0C2CADF855
:104AD0000C00227B607BADF80E1097F87C1094F8E8
:104AE0000AA094F80BB0ADF810C043EA0E2340EAD8
:104AF0000222ADF81230ADF8162001F0070306AA25
:104B000002EB43024BEA0A2AADF814A011F0080F99
:104B1000134632F90C2C00F0B68033F9063C9FEDB9
:104B20006B6A9FED6B7A06EE902A07EE903A95F845
:104B30007D205B49F8EEE66AF8EEE77A02F00703BB
:104B400012F0080F06AA02EB430266EE866A67EED1
:104B5000877A1346C7ED006AC7ED037A32F90C2C49
:104B600000F0848033F9063C9FED586A9FED587A37
:104B700006EE902A07EE903A95F87E20F8EEE66A67
:104B8000F8EEE77A02F0070312F0080F06AA02EB2C
:104B9000430266EE866A67EE877AC1ED016AC1ED6F
:104BA000047A13463E4932F90C2C40F0078133F960
:104BB000063C9FED466A9FED467AD243DB4306EE04
:104BC000902A07EE903AF8EEE66AF8EEE77A66EE9B
:104BD000866A67EE877A324B9FED3E4ADFED3E4AAA
:104BE000C1ED026AC1ED057A002293ED006A93EDF2
:104BF000037A93ED155AD3ED095AD3ED0C6AD3ED30
:104C00000F7A76EE666A77EE677A25EE286A25EEE9
:104C1000847AA6EE886A04320C2AA7EEA47A03F1FD
:104C2000040343ED016A83ED146AC3ED027A83ED58
:104C3000087ADAD1D5ED0B6ADFED287A95ED1C7A8A
:104C4000C6EEA77A77EE677AC5ED1C7A09F00703FE
:104C5000072B53D0174B5A6A1936B24209F1010992
:104C6000BFF40CAF304600F02BFD08E733F9063CEB
:104C70009FED166A9FED167AD243DB4306EE902A2B
:104C800007EE903A78E733F9063C9FED106A9FED06
:104C9000107AD243DB4306EE902A07EE903A46E7BD
:104CA00084EE002028C80020003C024000000408D8
:104CB00088080020000C004010C800209A99593F35
:104CC0009A99193E18C8002054C60020C3F51C3A12
:104CD0002D23FA3B3333333F9A99993E0000C84362
:104CE000734B019A1B7A1370724A002BAED0538813
:104CF0000133538009F00703072BABD195ED167AEA
:104D0000D5ED157AC7EE277A17EE900AFBF76CFC03
:104D100041EC100B02F04CF9002251EC100B664BE9
:104D2000FBF7B6FC60A3D3E90023FBF7DBFDFBF741
:104D3000C7FE95ED1D9AE86607EE900A77EEC99AD0
:104D400019EE900AFBF750FC41EC100B02F090F8C2
:104D500007EE900AF8EEE77AB6EE007AF4EEC77A3C
:104D6000F1EE10FA35D4B0EE007AF4EEC77A9FED8A
:104D7000536A9FED537ADFED537ADFED536AF1EE1C
:104D800010FA58BFB0EE677A58BFB0EE666AD5ED3C
:104D90001C7ADFED4E6ADFED4E5A67EE277A29EE78
:104DA000267AE9EE867A00232B6739EE279AF0EE11
:104DB000477AE9EE257AC5ED1D7A4BE733F9063CD3
:104DC0009FED446A9FED447A06EE902A07EE903AF2
:104DD000F9E69FED427A9FED3D6AD8E7FEF758FF6E
:104DE00000287FF40DAE10E6314B324A1B7A019257
:104DF000137013B153882B445380019A137943F0F5
:104E00000803137181E572B6354BE362FEE772B6B3
:104E1000334BE362FEE772B6324BE362FEE702EB2E
:104E20004202314BB3FBF2F602FB06F29B1A002B57
:104E300033D1B2B215E523F008039BB243F002036D
:104E400026E543F00A0323E572B6284ADA62FEE754
:104E5000012F03D072B6234BE362FEE75200224ECD
:104E6000B6FBF2F302FB03F2B61A96B99AB2032A22
:104E70000BD92B23B2F5805F0B62C2F30B03FFF457
:104E8000F8AC72B6174BE362FEE772B6154BE362FD
:104E9000FEE772B6134BE362FEE772B6114BE362B4
:104EA000FEE700BFAFF3008000000060FB21094077
:104EB00048C6002010C8002000806640CDCC4C3E83
:104EC000CDCC4C3F3333733FCDCC4C3D9A99193FF9
:104ED000CDCCCC3EC3F51C3A2D23FA3BCCCCCC3EFA
:104EE000807B0008607B000880DE8002007A00087A
:104EF0000D4B42685B6870B48B608668C168D0E90E
:104F000004459B1BE41845F100059342026888BFE5
:104F1000436001319342C0E90445C160836038BFFA
:104F2000036070BC704700BF001000E0000000008C
:104F30000B4A0C49D36B10B44C6A916959601C60E0
:104F4000416A996090F820101973103302F5886156
:104F50008B4228BF02F14003D3635DF8044B7047D6
:104F600090BE0020000C0040000000000000000087
:104F7000FEE700BF0000000000000000000000008D
:104F8000202383F31188054AD2F8A8340133C2F8EC
:104F9000A834002383F31188704700BF90BE00201F
:104FA0000F4B10495A688368F0B4D1F8A074416877
:104FB000C668D0E90445D31ADB1BE4180268836095
:104FC00045F100058B4206F1010688BF436093421C
:104FD000C660C0E9044538BF0360F0BC704700BF3D
:104FE000001000E090BE0020000000000000000063
:104FF0000148FFF7D5BF00BF58C3002000000000E4
:105000000148FFF7CDBF00BF40C3002000000000F3
:10501000014B5B6883607047001000E000000000F7
:105020000148FFF7F5BF00BF58C300200000000093
:105030000148FFF7EDBF00BF40C3002000000000A3
:1050400070B51B4D2A68AC691368A1682B600126F6
:1050500000205D6082F82060AA6184F8200000E0F2
:105060001B689A688A42FBD85A68626023602046AF
:1050700014605C60FFF75CFFD5F8AC34A9690C4E96
:105080000133483104F14800C5F8AC34FFF730FF74
:10509000EFF30983E269643B9A4205D8B06921467F
:1050A000BDE87040FBF714B972B6024BF362FEE73D
:1050B00090BE0020107C00080000000000000000EE
:1050C000FFF7BEBF0000000000000000000000006D
:1050D000054B1A6B1AB95A6B002A00DD704772B67D
:1050E000024ADA62FEE700BF90BE0020207C000882
:1050F00070B5164C0646FFF7EBFF2368A5691A68E2
:1051000085F8206001215460284683F82010226031
:10511000A361FFF70DFFD4F8AC34A169013305F1A9
:1051200048004831C4F8AC34FFF7E2FEEFF30983DE
:10513000EA69643B9A4205D8A0692946BDE87040F7
:10514000FBF7C6B872B6024BE362FEE790BE0020E2
:10515000107C0008000000000000000000000000BB
:10516000054B1A6B002A03DB5A6B002A00DD7047DF
:1051700072B6024ADA62FEE790BE0020287C000880
:105180002DE9F0430C4687B00746FFF7A1FF631CEB
:1051900055D0514ED6F81890FFF7E2FF1CB972B601
:1051A0004E4BF362FEE7B046012C58F81C5F4C4AA8
:1051B0004C49536ACDF8149008BF02244545049128
:1051C00046D0B06A1B1AE418AB6855D32D68E41AB0
:1051D000AB689C4204D92D68E41AAB68A342FAD3A9
:1051E0006B6802930DF104090195C3F80090C5F8AE
:1051F00004900394AB684FF0FF321B1BAB607262EC
:105200003846FFF775FFFFF7ABFF049BDBB1FFF7F5
:10521000A7FFF36930494B4535D0029A019B1360D3
:10522000019B002143455A6004910CD09968039A70
:105230000A449A60B369586A07B0BDE8F0833846FB
:10524000FFF756FF244EB369586A07B0BDE8F083F4
:105250000394B362D16801950DF1040911F00201C4
:1052600002951C44C6F81C90C6F8209029D1022350
:1052700054631161D360C3E79C42AAD22044FDF776
:10528000B7FCAB68A5E7019ACA6100234245C2F8A2
:105290000480049319D09368039C1148896A2344BD
:1052A0009360406A421A9342CDD99B1A012B98BF52
:1052B00002231844FDF79CFCB369586A07B0BDE8A7
:1052C000F08372B6084BF362FEE7054AD360B36918
:1052D000586A07B0BDE8F08390BE0020107D00083A
:1052E000000C0040B1540008C07B00080000000022
:1052F00069B1084B10B4024644689B69042083E8F6
:105300001400236053605DF8044BFFF739BF4FF082
:10531000FF30704790BE0020000000000000000039
:1053200010B50446FFF71CFFCCB194F820308BB1C8
:105330000F2B0FD00022A1680B4B84F820201B6894
:105340009A688A42FBD25A686260236020461460E1
:105350005C6010BD72B6044B044ADA62FEE772B6B6
:10536000014B024ADA62FEE790BE0020E07B0008B3
:10537000036873B193F82020032A04D072B6054B5A
:10538000054ADA62FEE70022026018465962FFF71A
:10539000C7BF704790BE0020D07B0008000000000F
:1053A000104DAC6908B5A36A606204F128069E42FC
:1053B00007D01A68A2621846FFF7B2FFA36AB34289
:1053C000F7D194F821309B0704D1636922691A61EF
:1053D000226953610F20FFF78BFE72B6024BEB621E
:1053E000FEE700BF90BE0020F07B00080000000038
:1053F000202383F31188074B1A6B002A01DD596BB8
:1054000019B172B6044ADA62FEE7013A1A6381F30F
:105410001188704790BE0020307C0008000000001A
:10542000202383F31188074B1A6B002A01DB596B89
:1054300019B172B6044ADA62FEE701321A6381F3E7
:105440001188704790BE0020387C000800000000E2
:10545000064B1A6B002A05DD5A6B002A02DD00227A
:105460005A63704772B6024ADA62FEE790BE0020C5
:10547000407C000800000000000000000000000068
:10548000064B1A6B002A01DD5A6B1AB172B6044A38
:10549000DA62FEE701225A63704700BF90BE002027
:1054A000487C000800000000000000000000000030
:1054B00038B50446202383F31188FFF7B1FDFFF7C9
:1054C000DFFF94F82030072B10D8DFE803F0150F2A
:1054D0000F1D0A040F0A656AFFF742FEAB6801332D
:1054E000AB6094E80C001A60226853604FF0FF3301
:1054F00063622046FFF714FFFFF7AAFFFFF778FD6E
:10550000002383F3118838BD636A00221A604FF0CC
:10551000FF3363622046FFF703FFEDE70000000062
:10552000054B1A6B22B9596B002901DD5A6370478C
:1055300072B6024ADA62FEE790BE0020507C000894
:10554000054B1A6B0AB95A6B1AB172B6034ADA6282
:10555000FEE701225A63704790BE0020587C000885
:10556000F8B50546202383F31188474EFFF760FD09
:10557000FFF7E6FFB469FFF7ABFD002D46D0A86842
:1055800000284ED0A26883689A4207D990F820304C
:105590008260062B5ED0072B24D0C3B12B4603E0DC
:1055A0009968A268914202D31B689D42F8D15A685B
:1055B00062602360062014605C606562FFF798FDFE
:1055C000AB689C4226D072B6304BF362FEE790E89F
:1055D0000C00012180F820101A6002685360FFF768
:1055E0009FFEDBE790E80A0019600768416A7B606C
:1055F0000B4602E09F68974202D31B689942F9D19B
:105600005A684260036010605860C7E772B61F4B6B
:10561000F362FEE7E36B9D4207D072B61B4BF36269
:10562000FEE7E36BEB60AC60E563FFF779FFFFF744
:10563000E7FC3268144BB24204D0996992688968D9
:10564000914203D3002383F31188F8BD72B6104A48
:10565000DA62FEE790E80A0019600768416A7B6039
:105660000B4602E09F68974202D31B689942F9D12A
:105670005A6842600360106058608868A268836856
:105680009A4283D88AE700BF90BE0020207D0008A0
:10569000F079000800000000000000000000000099
:1056A00008B50446202383F31188FFF7C1FCFFF7F8
:1056B00047FF2046FFF774FE0000000000000000D6
:1056C00010B52023044683F31188FFF7B1FCFFF7E0
:1056D00037FF0E4B596A611A02D00820FFF750FDC0
:1056E000FFF71EFFFFF78CFC094B1A689A4204D0A3
:1056F000996992688968914203D3002383F31188E2
:1057000010BD72B6034ADA62FEE700BF000C00402B
:1057100090BE0020E07C00080000000000000000B7
:1057200010B52023044683F31188FFF781FCFFF7AF
:1057300007FFA4B121460820FFF722FDFFF7F0FE86
:10574000FFF75EFC0A4B1A689A4204D09969926886
:105750008968914208D3002383F3118810BD72B683
:10576000034B044ADA62FEE772B6034ADA62FEE7E6
:1057700090BE0020007D0008E07C000800000000D2
:105780002DE9F04F1746984683B004468A4600F14B
:1057900060050346FF2203F8012B9D42FBD104EB79
:1057A0000A02954205D22B46552103F8011B93426C
:1057B000FBD1202383F31188FFF73AFCFFF7C0FEEB
:1057C000FFF7CEFC002C00F08380BAF5B87F7FD3C2
:1057D0007F2F7DD8B8F1000F7AD0494EDFF8349191
:1057E0007369AAF16401214404F12C0201920C9A1C
:1057F000E1600020C1F840804A64C1F86090019ADD
:1058000063614FF0010C04F1280E4FF0020A4FF0D3
:10581000FF3B4FF000084FF00009A760266184F8B5
:105820002100E063A063A061276484F820A084F8CD
:1058300022C01C61E06420656065E561C4F828E071
:10584000E2622263C4F848B0C4E916897461FFF7C4
:105850003FFC3368B069B3424FD09A688368934283
:1058600047D300229F4262623FD9FFF759FD0123CF
:1058700084F820300546B461FFF75AFBD6F8AC3403
:105880001F4F013305F1480004F14801C6F8AC345C
:10589000FFF72EFBEFF30983EA69643B9A4220D8B5
:1058A00029462046FAF714FDFFF73AFEFFF7A8FB5A
:1058B0003268134BB24204D0996992688968914268
:1058C0000BD3002383F31188204603B0BDE8F08F8B
:1058D00072B60B4B0B4ADA62FEE772B60A4ADA621C
:1058E000FEE772B6094BFB62FEE72046FFF718FDA4
:1058F000DAE772B6064BF362FEE78368B1E700BFF2
:1059000090BE0020007C0008E07C0008107C0008AD
:10591000F07C0008E9020008000000000000000020
:10592000FEE700BF000000000000000000000000D3
:10593000F0B4114E002506F1800796E81A00A34244
:105940000DD204391A4651F8040F42F8040BA24252
:10595000F9D3DA43144424F0030404342344F268F2
:10596000934203D243F8045B9342FBD31036BE420A
:10597000E3D3F0BC704700BF607C0008000000006B
:10598000FEE700BF00000000000000000000000073
:10599000704700BF00000000000000000000000091
:1059A000704700BF00000000000000000000000081
:1059B0002DE980480F4D104BAA691049104C916198
:1059C0004FF480521A8389B02046FFF7C9FD202387
:1059D00083F31188FFF72CFBFFF7B2FD14F80C2CB2
:1059E000531E012BA4F10C040ED972B6054BEB62C9
:1059F000FEE700BF90BE002000040240507D00087A
:105A00008CBD0020307D0008E44B6360012A00F06B
:105A100016825989E36AA26A080523F4F04348BF55
:105A200043F4205322F4F042E36248BF42F4205290
:105A3000E369A26241F441710020072218601960F5
:105A40005A601A6842F040021A6002232370FFF77E
:105A500067FDFFF7D5FA2A68D14BAA4205D09969AC
:105A6000926889689142C0F00782002484F311880B
:105A7000CC4DCD4E6B694FF4804783F480536B61FE
:105A80000A207783FFF74CFE0A203783FFF748FE92
:105A90006B697B406B61012001F00AF9112001F074
:105AA00007F94FF49660FFF73BFEB12001F000F9D3
:105AB000012001F0E5F82C2001F0E2F82D2001F0A2
:105AC000DFF8B22001F0F4F8012001F0D9F82C2021
:105AD00001F0D6F82D2001F0D3F8B32001F0E8F85A
